:020000040800F2
:10000000083E002001010008650C0008310C0008C2
:10001000610C000869090008651E00080000000066
:10002000000000000000000000000000A50F000814
:10003000C9090008000000007D0C0008A116000896
:100040001B0100081B0100081B0100081B01000820
:100050001B0100081B0100081B0100081B01000810
:100060001B0100081B0100081B0100081B01000800
:100070001B0100081B0100081B0100081B010008F0
:100080001B0100081B0100081B0100081B010008E0
:100090001B0100081B0100081B0100081B010008D0
:1000A0001B0100081B0100081B0100081B010008C0
:1000B0001B0100081B0100081B0100081B010008B0
:1000C0001B0100081B0100081B0100081B010008A0
:1000D0001B0100081B0100081B0100081B01000890
:1000E0001B0100081B0100081B010008DFF80CD0F1
:1000F00000F080FB00480047BD1E0008083E0020BD
:100100000648804706480047FEE7FEE7FEE7FEE7B1
:10011000FEE7FEE7FEE7FEE7FEE7FEE7F91600086A
:10012000ED000008F0B480EA0102D40F4200B2EB07
:10013000410F02D20246084611464A0042D0C30D82
:10014000DDB2C1F3C752AD1A202D35DAC1F3160165
:1001500041F4000204B15242C5F1200602FA06F150
:100160002A411044B3EBD05F23D0C4B1012DA0EBE2
:10017000C35009DCF0BC4FF0004202EAC352DBB2CC
:1001800000F5000000F0ABBA400000F1807000EB19
:10019000C350A0F1807040EAD170490009E04908DD
:1001A00041EAC071A0EBC35000F50000400800EB2D
:1001B000C350F0BC00F08ABA6142012202EB410157
:1001C000001BF6E7F0BC704781F00041AAE780F021
:1001D0000040A7E780EA010210B502F000434000AA
:1001E00022D04A001FD0010E01EB1261C0F356006D
:1001F000C2F3560240F4000042F40002A0FB0220C9
:1002000000047F39140400D0401C50EA124001D48D
:100210004000491EC2B20C0604EBD010401C40083E
:10022000802A02D003E0002010BD20F00100002948
:1002300000DA0020184310BD30B480EA010202F059
:10024000004530F0004221F0004013D090B1C30DC2
:10025000D40DC2F31601C0F31600E41A41F40001F4
:1002600040F400027D34914201D3641C00E0490057
:10027000002C02DA30BC002070474FF4000000234D
:10028000914201D3891A034340084FEA4101F7D153
:1002900051B1914202D14FF0004105E002D24FF03E
:1002A000010101E06FF0010103EBC450284430BCB0
:1002B00000F00CBA2DE9FE4F804681EA0300C00F22
:1002C0000C46009021F0004123F00045B8EB0200FD
:1002D000A94105D24046214690461C460B4602469F
:1002E00023F00040104347D0270DC7F30A00C3F3A3
:1002F0000A510290401A019040286BDAC3F31300B0
:1003000040F4801B0098924620B10023D2EB030AF0
:1003100063EB0B0B01985946C0F14002504600F0C8
:10032000A4F906460D4650465946019A00F0BCF91C
:1003300010EB08006141002487EA115284EAE77358
:100340001A4340D0009A62B3019A012A4FEA075239
:1003500015DC001B61EB02014FF0004202EA07527C
:10036000CDE90042001C41F5801132462B4600F0D9
:10037000F3F903B0BDE8F08F40462146F9E7001BD2
:1003800061EB0201001C41F5801300185B4120184D
:10039000A2F5001747EB030140EAD570B6196D418D
:1003A00011E06D084FEA360645EAC0754FEA07527C
:1003B000001B61EB0201001C41F5801149084FEA66
:1003C00030000019514132462B4603B0BDE8F04FD2
:1003D00000F0B3B90098012240000023D0EB0202E4
:1003E00063EBE073009821464FEAE074B8EB00003D
:1003F00061EB0401E9E783F000435BE781F0004132
:1004000058E72DE9FE4F81EA030404F0004421F08F
:10041000004100944FF0000B23F0004350EA010428
:100420005ED052EA03045BD0C3F30A54C1F30A5509
:100430002C44A4F2F3340194A0FB0254C1F3130141
:1004400041F48011C3F3130343F4801301FB02440E
:1004500000FB034E840A970A44EA815447EA835713
:10046000A4FB076802958D0A05FB07854FEA932CCC
:1004700004FB0C542705029D4FEA065847EA16373D
:10048000B5EB08056EEB070C870E920E47EA811755
:1004900042EA8312A7FB0201B6EB0B0164EB0004F6
:1004A0002B0D43EA0C335E1844EB1C50DA465146E0
:1004B000E7FB0201C5F313044FEA0B3343EA14537D
:1004C0004FEA0432019C43EA0603A4F10C040294AF
:1004D000009CCDE900B400F03FF903B0BDE8F08F17
:1004E00000200146F9E72DE9F04D81EA030404F00C
:1004F000004B21F0004514464FF0000A23F0004164
:1005000050EA050220D054EA01021DD0C5F30A5773
:100510000246C5F31303C1F31300C1F30A5640F4B6
:10052000801543F48013A7EB0608101BD64608F28B
:10053000FD3873EB050002D308F1010801E09218C1
:100540005B41B8F1000F03DA00200146BDE8F08DF1
:1005500000204FF48011064684460EE0171B73EB13
:10056000050705D3121B63EB050306434CEA010C98
:1005700049084FEA300092185B4150EA0107EDD17B
:1005800052EA030012D082EA040083EA050108431C
:1005900005D0101BAB4106D20122002306E0002249
:1005A0004FF0004302E06FF0010253101AEB060017
:1005B0004CEB085110EB0A0041EB0B01BDE8F04D8C
:1005C00000F0BBB8C10F80EAE0700844CA07962368
:1005D000002100F084B896230022114600F07FB875
:1005E0000EB540F2334102910021CDE900110A46D7
:1005F0000B4600F0B1F803B000BD00F0004220F05F
:100600000040C10DC0F3160040F400007F2901DA5C
:1006100000207047962903DCC1F19601C84001E033
:1006200096398840002AF4D04042704770B5C1F333
:100630000A5201F000450024C1F3130140F2FF33D8
:1006400041F480119A4201DA002070BD40F2334338
:100650009A42A2F2334203DC524200F015F800E065
:1006600090402C43F1D0404270BD202A04DB203A58
:1006700000FA02F1002070479140C2F1200320FAF5
:1006800003F3194390407047202A04DB203A21FAF3
:1006900002F00021704721FA02F3D040C2F120029B
:1006A0009140084319467047202A06DBCB17203AB1
:1006B00041FA02F043EAE07306E041FA02F3D04067
:1006C000C2F1200291400843194670470029A8BF93
:1006D0007047401C490008BF20F00100704710B46B
:1006E000B0FA80FC00FA0CF050EA010404BF10BC20
:1006F000704749B1CCF1200421FA04F411FA0CF14D
:1007000018BF012121430843A3EB0C01CB1D4FEA85
:1007100000614FEA102042BF002010BC704700EB80
:10072000C35010440029A4BF10BC7047401C4900AE
:1007300008BF20F0010010BC704710B5141E73F103
:10074000000408DA401C41F1000192185B411A4391
:1007500001D120F0010010BD2DE9F04D92469B46DD
:1007600011B1B1FA81F202E0B0FA80F22032904683
:10077000FFF77BFF04460F4640EA0A0041EA0B01FF
:1007800053465A46084313D0114653EA010019D084
:10079000C8F140025046FFF777FF05460E46504627
:1007A00059464246FFF761FF084305D0012004E0A7
:1007B00020463946BDE8F08D0020054346EAE07644
:1007C0002C4337430A986305E40AA0EB0800002293
:1007D000FD0A44EA47540A3002D500200146E9E701
:1007E000010510196941DDE9084500196941BDE8B5
:1007F000F04DA2E7064C074D06E0E06840F001032B
:1008000094E8070098471034AC42F6D3FFF772FC27
:100810004C1F00086C1F000870B58D1810F8014BB4
:1008200014F0030201D110F8012B231106D110F8A6
:10083000013B03E010F8016B01F8016B521EF9D186
:10084000ABB110F8012B04F00C048A1A0C2C03D065
:10085000A2EB84129B1C08E010F8014BA2EB0422CF
:10086000F8E712F8014B01F8014B5B1EF9D5A942DC
:10087000D4D3002070BD000008B500F0FDFA0121BE
:10088000042000F01DFA4FF40040ADF800001020E5
:100890008DF8030003208DF802006946044800F03B
:1008A0009EF84FF40041024800F06EF908BD0000C8
:1008B000000801402DE9F0411C48B0F8740084B2F2
:1008C00040F68C20844205DA194904F5617051F82C
:1008D000200004E0A4F68C20154951F820000646BB
:1008E000134850F824501149886E2946FFF772FCCE
:1008F00007460E49486E3146FFF76CFC8046394684
:10090000FFF762FC0949C860886E3146FFF762FC58
:1009100007460649486E2946FFF75CFC8046394683
:10092000FFF700FC01490861BDE8F081583900205B
:100930002800002010B54FF4806000F095F900F019
:1009400075FE00F077F9012140F2E73000F05EFF1C
:1009500000F00CF800F016F8FFF78EFF01200149B7
:10096000087010BD1800002000BFFEE710B500247D
:1009700004E0204600F024F9601CC4B20A2CF8DB25
:1009800010BD000008B50121082000F099F94FF4CE
:100990004070ADF8000003208DF8020010208DF8A3
:1009A00003006946074800F01AF84FF40071054843
:1009B00000F0EAF800F00EFA4FF48071014800F000
:1009C000E3F808BD000C0140704710B5012108464E
:1009D00000F086F90021012000F082F910BD2DE918
:1009E000F0410246002500260020002300240027B5
:1009F00091F803C00CF00F0591F803C00CF0100C37
:100A0000BCF1000F03D091F802C04CEA050591F843
:100A100000C0BCF1000F31D0146800202BE04FF073
:100A2000010C0CFA00F3B1F800C00CEA03069E4278
:100A300020D183004FF00F0C0CFA03F7BC4305FAEA
:100A400003FC4CEA040491F803C0BCF1280F06D162
:100A50004FF0010C0CFA00FCC2F814C00AE091F847
:100A600003C0BCF1480F05D14FF0010C0CFA00FC9B
:100A7000C2F810C0401C0828D1D31460B1F800C0DF
:100A8000BCF1FF0F34DD546800202EE000F1080CAB
:100A90004FF0010808FA0CF3B1F800C00CEA0306A5
:100AA0009E4221D183004FF00F0C0CFA03F7BC4398
:100AB00005FA03FC4CEA040491F803C0BCF1280FCA
:100AC00005D100F1080C08FA0CF8C2F8148091F86E
:100AD00003C0BCF1480F07D100F1080C4FF001082A
:100AE00008FA0CF8C2F81080401C0828CED35460D5
:100AF000BDE8F081F0B50A4600230024002100255E
:100B000000F00046B6F1004F02D11D4EF16901E040
:100B10001B4E7168C0F3034583B200F44016B6F56E
:100B2000401F08D121F07061154E766826F070667E
:100B3000134F7E6012E000F48016B6F5801F06D1D8
:100B4000032606FA05F4A14341F0706106E0460D64
:100B5000360103FA06F6B14341F0706122B1460D49
:100B6000360103FA06F6314300F00046B6F1004FB5
:100B700002D1034EF16101E0014E7160F0BD000051
:100B80000000014041617047016170470B4A1168E4
:100B90004FF0E02252694FF0E0239B69D21A4FF4E4
:100BA0007A735A434FF0E0235B69B2FBF3F201EB37
:100BB0004103C3EBC11302EBC300704720000020C8
:100BC00070B5044604EB4400174951F8200004EBCB
:100BD0004401154A02EB81014860FFF7D7FF064642
:100BE000FFF7F9FC05461149FFF726FB04EB44012A
:100BF0000D4A42F8210004EB44020B4B03EB820246
:100C0000516804EB440253F82200FFF7DDFA04EBCD
:100C10004401054A02EB8101886004EB440011465F
:100C200001EB8000806870BDE0380020002474492A
:100C300000BFFEE708B50121082000F041F84FF49D
:100C40008050ADF8000010208DF8030003208DF8CF
:100C5000020069460148FFF7C2FE08BD000C0140D2
:100C600000BFFEE77047000002490143024A1160DD
:100C7000704700000000FA050CED00E0704700002E
:100C800029B1064AD2690243044BDA6104E0034AFF
:100C9000D2698243014BDA617047000000100240C4
:100CA00029B1064A12690243044B1A6104E0034A5F
:100CB00012698243014B1A61704700000010024024
:100CC00029B1064A92690243044B9A6104E0034A3F
:100CD00092698243014B9A61704700000010024004
:100CE00029B1064AD2680243044BDA6004E0034AA1
:100CF000D2688243014BDA60704700000010024066
:100D000030B500210022002400232D4D6D6805F030
:100D10000C0121B1042905D0082923D105E0294D72
:100D2000056022E0274D05601FE0254D6D6805F444
:100D30007012234D6D6805F48034022505EB924254
:100D40001CB9214D554305600BE01D4D6D6805F440
:100D500000351DB11C4D5543056002E0194D55434A
:100D6000056002E0174D056000BF00BF144D6D68BF
:100D700005F0F0010909154D6B5C0568DD40456023
:100D80000F4D6D6805F4E061090A104D6B5C456814
:100D9000DD4085600A4D6D6805F46051C90A0B4D50
:100DA0006B5C4568DD40C560054D6D6805F44041EC
:100DB000890B074D6B5CC568B5FBF3F5056130BD6C
:100DC0000010024000127A0000093D00AC380020FB
:100DD000BC38002000B587B0012141F20D00FFF7BB
:100DE0006FFF01212148FFF785FE01210846FFF72B
:100DF00081FE3820ADF8180003208DF81A00182065
:100E00008DF81B0006A91A48FFF7E9FD0121080328
:100E1000FFF766FF00214FF48050FFF761FF0020CD
:100E2000ADF804004FF48270ADF806004FF4006096
:100E3000ADF808000020ADF80A000120ADF80C0064
:100E40004002ADF80E002820ADF810000020ADF8EB
:100E500012000720ADF8140001A9064800F084F83C
:100E60000121044800F066F807B000BD0002300020
:100E7000000C01400030014000B587B0012109207D
:100E8000FFF71EFF01218803FFF7FAFE4FF46040D1
:100E9000ADF8180003208DF81A0018208DF81B00FB
:100EA00006A91548FFF79BFD0020ADF804004FF49C
:100EB0008270ADF806004FF40060ADF80800002025
:100EC000ADF80A000120ADF80C004002ADF80E00AC
:100ED0003020ADF810000020ADF812000720ADF86A
:100EE000140001A9054800F03FF80121034800F073
:100EF00021F807B000BD0000000C014000380040A0
:100F000010B5044600BF0221094800F01FF8002870
:100F1000F9D02146064800F025F800BF0121044819
:100F200000F014F80028F9D0014800F018F810BDBE
:100F30000038004021B1028842F04002028004E003
:100F400002884FF6BF731A400280704702460020A5
:100F500013890B400BB1012000E0002070470146CF
:100F6000888970478181704710B50022028802F499
:100F700041520B884C8823438C882343CC882343DD
:100F80000C8923434C8923438C892343CC892343F5
:100F90001A430280838B4FF2FF74234083830B8AB2
:100FA000038210BD704710B500F002F810BD0000BC
:100FB0000CB50020019000903348006840F4803068
:100FC0003149086000BF3048006800F400300090EC
:100FD0000198401C0190009818B90198B0F5A06FD5
:100FE000F1D12948006800F4003010B101200090D0
:100FF00001E0002000900098012843D123480068B8
:1010000040F01000214908600846006820F0030005
:1010100008600846006840F0020008601A4840680E
:10102000194948600846406848600846406840F4EE
:10103000806048600846406820F47C10486008469C
:10104000406840F4E81048600846006840F080704E
:10105000086000BF0C48006800F000700028F9D05C
:101060000948406820F00300074948600846406886
:1010700040F00200486000BF0348406800F00C00E8
:101080000828F9D10CBD00000010024000200240E9
:101090002DE9F04F85B00027FD4EFE480190FE4936
:1010A000C868FE49FFF796F88046FFF7A6FAFC49A4
:1010B0000860F9490869F949FFF78CF88046FFF79D
:1010C0009CFAF8490860F4490869FFF796FAF24972
:1010D000486108694FF08041FFF7AEF88246EE485C
:1010E000C1683046FFF776F883464FF08041FFF73E
:1010F000A3F881465146FFF767F88046FFF77DFA6F
:10110000E549886108694FF08041FFF795F886F05E
:10111000004B0090E048C1685846FFF75BF88246F4
:101120004FF08041FFF788F881460099FFF74CF8AF
:101130008046FFF762FAD849C8610846406900282E
:1011400001DD012000E000200490D34880690028E0
:1011500001DD012000E000200390CF48C069002895
:1011600001DD012000E000200290029881000222AF
:10117000039802FB001104980844C7B2C6494869A5
:10118000FFF720FA83463146FFF724F8824601999B
:10119000FFF752F88146C449FFF71CF88046FFF775
:1011A0002CFABD4948618869FFF70CFA834631463D
:1011B000FFF710F882460199FFF73EF88146BA49D9
:1011C000FFF708F88046FFF718FAB3498861C86945
:1011D000FFF7F8F983463146FEF7FCFF8246019996
:1011E000FFF72AF88146B049FEF7F4FF8046FFF783
:1011F00004FAA949C861072F72D2DFE807F0040B8F
:101200004D90CFF4F3004FF4FA71A348C16201632B
:10121000416397E1A048806944429F48C0694542C4
:101220006019A249086008460068B0F57A7F06DDBB
:101230004FF47A706043096890FBF1F000E02046BB
:1012400004469A480068B0F57A7F07DD4FF47A705B
:1012500068439649096890FBF1F000E0284605468E
:10126000C4F57A71481BC11700EB91718A108A4945
:101270000A63204604EBD0714A108749096B0A447F
:101280008549CA62284605EBD0714A108249C96A6D
:101290000A4481494A6355E17F48C06944427E4817
:1012A0004069454260198149086008460068B0F508
:1012B0007A7F06DD4FF47A706043096890FBF1F0A5
:1012C00000E02046044679480068B0F57A7F08DDE2
:1012D0004FF47A7068437549096890FBF1F001E0BA
:1012E0002FE128460546C4F57A71481BC11700EB6B
:1012F00091718A106849CA62204604EBD0714A1085
:101300006549C96A0A4464494A63284605EBD071B5
:101310004A106149496B0A445F490A6312E15E4819
:101320008469456960196149086008460068B0F53C
:101330007A7F06DD4FF47A706043096890FBF1F024
:1013400000E02046044659480068B0F57A7F07DD82
:101350004FF47A7068435549096890FBF1F000E05A
:1013600028460546C4F57A71481BC11700EB9171F8
:101370008A104949CA62204604EBD0714A10464996
:10138000C96A0A4444490A63284605EBD0714A10E9
:101390004149096B0A4440494A63D3E03E484069E9
:1013A00044423D488069454260194049086008460A
:1013B0000068B0F57A7F06DD4FF47A706043096803
:1013C00090FBF1F000E02046044638480068B0F594
:1013D0007A7F09DD4FF47A7068433449096890FBDD
:1013E000F1F002E06EE01DE028460546C4F57A7192
:1013F000481BC11700EB91718A1027494A632046A8
:1014000004EBD0714A102449496B0A4422490A630B
:10141000284605EBD0714A101F49096B0A441E4942
:10142000CA628FE01C484469C56960191F49086099
:1014300008460068B0F57A7F06DD4FF47A706043A5
:10144000096890FBF1F000E0204604461748006868
:10145000B0F57A7F07DD4FF47A7068431349096865
:1014600090FBF1F000E028460546C4F57A71481B70
:10147000C11700EB91718A1007490A63204604EBFB
:10148000D0714A100449096B0A4403494A630FE0CA
:10149000D7B3DD3F0000C041583900200000C842EA
:1014A0009C380020A038002000007A44A438002096
:1014B000284605EBD0714A104C49496B0A444B4908
:1014C000CA623FE04948C4698569601948490860B3
:1014D00008460068B0F57A7F06DD4FF47A70604305
:1014E000096890FBF1F000E020460446404800689F
:1014F000B0F57A7F07DD4FF47A7068433C4909689C
:1015000090FBF1F000E028460546C4F57A71481BCF
:10151000C11700EB91718A1034494A63204604EBED
:10152000D0714A103149496B0A443049CA62284691
:1015300005EBD0714A102D49C96A0A442B490A6348
:1015400000E000BF00BF2948C06A4000C0F57A70C3
:10155000264908600846006B4000C0F57A70486074
:101560000846406B4000C0F57A7088600846006805
:10157000B0F57A7F02DD4FF47A7001E01B48006815
:101580001A49086008464068B0F57A7F02DD4FF4DA
:101590007A7001E015484068144948600846806840
:1015A000B0F57A7F02DD4FF47A7001E00F48806871
:1015B0000E498860084600680E4908600B4840687C
:1015C0000D490860094880680C4908600748008890
:1015D0000B49088005488088091D08800348008958
:1015E000091D088005B0BDE8F08F000058390020C3
:1015F000A43800209038002094380020983800202B
:10160000342C0140042808D14FF0E021096941F051
:1016100004014FF0E022116107E04FF0E021096979
:1016200021F004014FF0E0221161704770B51948B4
:10163000FFF766FB174840684FF47A71B0FBF1F48E
:10164000E4082146B1F1807F00D31DE021F07F4006
:10165000401E4FF0E022506150170F22002807DA99
:1016600013071E0E0C4B00F00F052D1F5E5503E0F7
:1016700013071D0E094B1D5400BF00204FF0E02240
:1016800090610720106100BF6FF00400FFF7BAFF00
:1016900070BD0000CC38002018ED00E000E400E050
:1016A00010B512480068401C1049086010480088B6
:1016B000401C0F49088008464088401C4880084666
:1016C0008088401C88800846C088401CC880084626
:1016D0000089401C088108464089401C4881054813
:1016E000007810B1084600F037F810BD2000002047
:1016F000C03800201800002010B51348006840F0E2
:1017000001001149086008464068104908400E4928
:101710004860084600680E4908400B4908600846C2
:10172000006820F4802008600846406820F4FE002D
:1017300048604FF41F008860FFF735FC4FF00060F1
:101740000449086010BD0000001002400000FFF8CE
:10175000FFFFF6FE08ED00E010B5044620880128E2
:1017600003DB00F026F8002020806088022803DBDD
:1017700000F044F800206080A088052803DB00F01A
:1017800026F80020A080E0880A2803DB00F019F882
:101790000020E0802089142803DB00F035F80020C9
:1017A00020816089322803DB00F012F8002060817C
:1017B00010BD10B50120FFF703FA044600F064FBEA
:1017C00010BD10B50220FFF7FBF9044610BD7047AD
:1017D00008480078401CC0B2064908700A2807DD96
:1017E000002008700448006880F4805002490860B6
:1017F00070470000140000200C0C014010B50020C0
:10180000FFF7DEF9044610BD7047000030B58DB01B
:1018100005460C4601210C20FFF752FA012140F643
:101820000100FFF74DFA4FF4F060ADF830000320EF
:101830008DF8320018208DF833000CA93E48FFF7D0
:10184000CEF80320ADF830008DF8320018208DF866
:1018500033000CA93948FFF7C2F8FFF7B6F80121A9
:101860003748FFF747F9374800F0A6F8ADF8285099
:10187000ADF824400020ADF82A002020ADF8260065
:1018800001208DF82C0009A92E4800F099FA0020BB
:10189000ADF820006020ADF814000020ADF8220063
:1018A000ADF81E00ADF81C000120ADF816000420B4
:1018B000ADF818000020ADF81A0005A9214800F085
:1018C0006FF905A91F4800F0C1F905A91D4800F0EE
:1018D0001DFA08211B4800F0AFF90821194800F053
:1018E00007FA0821174800F061FA4FF48040ADF87C
:1018F00010000020ADF80C004FF40050ADF80E00C1
:101900000120ADF80A000020ADF80800ADF806008F
:10191000ADF8040001A90B4800F022F801210948A4
:1019200000F012F80121074800F036F801210548BF
:1019300000F026F80DB030BD00080140000C014059
:1019400040001600002C014021B1028842F08002C4
:10195000028004E002884FF67F731A4002807047CD
:101960000A884B881A438B881A43CB881A430B8901
:101970001A434B891A438B891A43A0F844207047B5
:1019800021B1028842F00102028004E002884FF691
:10199000FE731A400280704731B1B0F8442042F41F
:1019A0000042A0F8442005E0B0F84420C2F30E0243
:1019B000A0F844207047000010B5044668488442EF
:1019C00008D10121C014FFF78BF90021E014FFF7C3
:1019D00087F9C4E0B4F1804F08D101210846FFF730
:1019E0005FF900210120FFF75BF9B8E05D48844210
:1019F00008D101210220FFF753F900210220FFF74F
:101A00004FF9ACE05848844208D101210420FFF787
:101A100047F900210420FFF743F9A0E0534884422E
:101A200008D101210820FFF73BF900210820FFF72A
:101A300037F994E04E48844208D101211020FFF785
:101A40002FF900211020FFF72BF988E04948844244
:101A500008D101212020FFF723F900212020FFF7E2
:101A60001FF97CE04448844208D101214014FFF76B
:101A700037F900216014FFF733F970E03F488442E2
:101A800009D10121C804FFF72BF900214FF40020F0
:101A9000FFF726F963E03A48844209D1012108059D
:101AA000FFF71EF900214FF48010FFF719F956E0F7
:101AB0003448844209D101214805FFF711F900217A
:101AC0004FF40010FFF70CF949E02F48844208D189
:101AD00001214020FFF7E4F800214020FFF7E0F863
:101AE0003DE02A48844208D101218020FFF7D8F840
:101AF00000218020FFF7D4F831E02548844208D146
:101B000001218015FFF7CCF80021A015FFF7C8F8D8
:101B100025E02048844209D101210804FFF7E0F8BC
:101B200000214FF48030FFF7DBF818E01A488442B8
:101B300009D101214804FFF7D3F800214FF4003008
:101B4000FFF7CEF80BE01548844208D10121880444
:101B5000FFF7C6F800214FF48020FFF7C1F810BD51
:101B6000002C01400004004000080040000C004030
:101B7000001000400014004000340140004C0140BF
:101B8000005001400054014000180040001C00407B
:101B90000020004000400140004401400048014056
:101BA00070B5002400220023058C4FF6FE763540E8
:101BB0000584028C8388048B4FF68F752C40B51EEC
:101BC0002C400D882C43751E2A400D892A434D88D0
:101BD0002A43144DA8420BD0134DA84208D0134DF0
:101BE000A84205D0124DA84202D0124DA84213D1EE
:101BF0004FF6F7752A404D892A434FF6FB752A4068
:101C00008D882A434FF6FF652B404FF6FF552B403A
:101C10008D892B43CD892B4383800483CD88858692
:101C2000028470BD002C014000340140004001409E
:101C300000440140004801400A460021018B4FF654
:101C4000F7731940114301837047000070B50024F9
:101C500000220023058C4FF6EF7635400584028C78
:101C60008388048B48F6FF752C404FF6FF452C40C7
:101C70000D884FF6FF7606EA05252C434FF6DF75F3
:101C80002A400D8906EA05152A434D8806EA0515FE
:101C90002A43154DA84202D0144DA8421DD14FF63B
:101CA0007F752A404D894FF6FF7606EA05152A43CF
:101CB0004FF6BF752A408D8806EA05152A434FF670
:101CC000FF352B404FF2FF752B408D8906EA8505C5
:101CD0002B43CD8906EA85052B4383800483CD8879
:101CE0000587028470BD0000002C014000340140D3
:101CF0000A460021018B4FF2FF7319404FF6FF7324
:101D000003EA0223194301837047000070B50024E1
:101D100000220023058C4FF6FF6635400584028CB7
:101D20008388848B4FF68F752C404FF6FC752C40C2
:101D30000D882C434FF6FF552A400D894FF6FF764C
:101D400006EA05252A434D8806EA05252A43154D4E
:101D5000A84202D0144DA8421DD14FF2FF752A406F
:101D60004D894FF6FF7606EA05252A434FF6FF35E3
:101D70002A408D8806EA05252A434EF6FF752B403A
:101D80004DF6FF752B408D8906EA05152B43CD894D
:101D900006EA05152B4383808483CD8885870284DA
:101DA00070BD0000002C0140003401400A460021B3
:101DB000818B4FF6F7731940114381837047000000
:101DC000002202881D4B98420ED01D4B98420BD02A
:101DD000B0F1804F08D01B4B984205D01A4B984267
:101DE00002D01A4B984204D14FF68F731A404B8899
:101DF0001A43174B984207D0164B984204D04FF61F
:101E0000FF431A40CB881A4302808B8883850B8856
:101E100003850A4B98420BD0094B984208D00E4BD1
:101E2000984205D00D4B984202D00D4B984201D1FB
:101E30000B7A03860123838270470000002C014047
:101E4000003401400004004000080040000C004045
:101E500000100040001400400040014000440140D8
:101E60000048014000BFFEE702E008C8121F08C199
:101E7000002AFAD170477047002001E001C1121F0B
:101E8000002AFBD17047000010B54FF4004109480B
:101E9000FEF778FE4FF6FF70FFF732F8C0F30D0043
:101EA000054908804FF400410248FEF76DFE01200D
:101EB00010BD000000080140E0390020FEF73AFDA7
:101EC00032E01A490888FEF78BFB8046184A194B06
:101ED000FEF709FB06460022174BFEF792FA04466E
:101EE0000022164BFEF7E6F98246FEF79FFB4FF401
:101EF000B47190FBF1F201FB120011490860084631
:101F0000006800EB80000F49096801EB40010E48B2
:101F10004167406FB0F5616F02DB00210A484167FD
:101F2000FEF7C8FCFFF7B4F8CBE70000E03900206B
:101F300092244992244992400080764000806F406C
:101F40000C00002010000020583900206C1F0008F1
:101F500000000020C0380000180800088455000860
:101F6000C038002048050000781E00080008230043
:101F700000FFBFF401000100FF007DC3E43A68C325
:101F8000643B7392AB3B0EC3E43BBEF90E3CD8916D
:101F90002B3CD129483CA1C1643CA2AC803C59F8FF
:101FA0008E3CF4439D3C708FAB3CC9DAB93CFE25B6
:101FB000C83C0A71D63CEBBBE43C9F06F33C91A8BD
:101FC000003DB9CD073DC6F20E3DB617163D893C22
:101FD0001D3D3C61243DCE852B3D3EAA323D8ACE3F
:101FE000393DB1F2403DB216483D8B3A4F3D3A5E25
:101FF000563DBF815D3D17A5643D42C86B3D3DEB3D
:10200000723D080E7A3D5198803D8429843D9CBAEA
:10201000873D9A4B8B3D7BDC8E3D406D923DE8FDCC
:10202000953D728E993DDD1E9D3D29AFA03D553FEA
:10203000A43D60CFA73D4A5FAB3D11EFAE3DB67EFC
:10204000B23D360EB63D939DB93DCA2CBD3DDCBBBD
:10205000C03DC74AC43D8BD9C73D2768CB3D9AF6E2
:10206000CE3DE584D23D0513D63DFAA0D93DC42E20
:10207000DD3D62BCE03DD34900FF00E43D16D7E7FB
:102080003D2B64EB3D11F1EE3DC77DF23D4D0AF66F
:102090003DA296F93DC522FD3D5B57003E391D022C
:1020A0003EFEE2033EA8A8053E386E073EAD33096A
:1020B0003E06F90A3E43BE0C3E65830E3E6948105B
:1020C0003E520D123E1DD2133ECA96153E5A5B1764
:1020D0003ECB1F193E1EE41A3E52A81C3E666C1EE3
:1020E0003E5B30203E30F4213EE5B7233E797B2530
:1020F0003EEC3E273E3D02293E6DC52A3E7B882CA4
:102100003E664B2E3E2E0E303ED4D0313E5693339B
:102110003EB455353EED17373E03DA383EF39B3A71
:102120003EBE5D3C3E631F3E3EE3E03F3E3CA2417F
:102130003E6F63433E7A24453E5EE5463E1BA6481D
:102140003EAF664A3E1B274C3E5FE74D3E79A74FA8
:102150003E6967513E3027533ECDE6543E3FA6567A
:102160003E8765583EA3245A3E94E35B3E58A25DE9
:102170003EF1605F3E5D1F613E00FF009CDD623E00
:10218000AD9B643E9159663E4817683ECFD4693E88
:1021900028926B3E524F6D3E4D0C6F3E18C9703EFB
:1021A000B385723E1D42743E57FE753E5FBA773E60
:1021B0003676793EDC317B3E4FED7C3E90A87E3E0C
:1021C000CF31803E3C0F813E90EC813EC9C9823EBA
:1021D000E9A6833EEE83843ED960853EA93D863ED6
:1021E0005E1A873EF9F6873E78D3883EDCAF893E9B
:1021F000248C8A3E51688B3E62448C3E57208D3E33
:1022000030FC8D3EECD78E3E8CB38F3E0F8F903ED0
:10221000756A913EBF45923EEB20933EFAFB933E9A
:10222000EBD6943EBEB1953E748C963E0B67973EBE
:102230008541983EE01B993E1CF6993E3AD09A3E65
:1022400039AA9B3E18849C3ED95D9D3E7A379E3EBE
:10225000FB109F3E5DEA9F3E9EC3A03EC09CA13EF8
:10226000C175A23EA24EA33E6327A43E0200A53E36
:1022700081D8A53EDEB0A63E1B8900FF00A73E35F3
:1022800061A83E2F39A93E0611AA3EBBE8AA3E4FDF
:10229000C0AB3EC097AC3E0E6FAD3E3A46AE3E433D
:1022A0001DAF3E2AF4AF3EEDCAB03E8DA1B13E094E
:1022B00078B23E624EB33E9624B43EA7FAB43E9442
:1022C000D0B53E5DA6B63E017CB73E8051B83EDB40
:1022D00026B93E11FCB93E21D1BA3E0CA6BB3ED276
:1022E0007ABC3E724FBD3EED23BE3E41F8BE3E6F0E
:1022F000CCBF3E77A0C03E5974C13E1448C23EA830
:102300001BC33E15EFC33E5BC2C43E7A95C53E710A
:1023100068C63E413BC73EE90DC83E69E0C83EC1C4
:10232000B2C93EF084CA3EF856CB3ED628CC3E8C8D
:10233000FACC3E19CCCD3E7D9DCE3EB86ECF3EC987
:102340003FD03EB010D13E6EE1D13E02B2D23E6CE3
:1023500082D33EAC52D43EC122D53EACF2D53E6CC7
:10236000C2D63E0192D73E6B61D83EAA30D93EBE5E
:10237000FFD93EA6CEDA3E639DDB3E1CB5F36BDC97
:102380003E583ADD3E9008DE3E9CD6DE3E7CA4DF21
:102390003E2F72E03EB53FE13E0E0DE23E3ADAE2FC
:1023A0003E39A7E33E0A74E43EAE40E53E240DE626
:1023B0003E6CD9E63E85A5E73E7171E83E2E3DE9CB
:1023C0003EBD08EA3E1DD4EA3E4E9FEB3E506AEC0D
:1023D0003E2335ED3EC7FFED3E3BCAEE3E7F94EF18
:1023E0003E935EF03E7828F13E2CF2F13EB0BBF217
:1023F0003E0485F33E274EF43E1917F53EDADFF52D
:102400003E6BA8F63ECA70F73EF738F83EF300F987
:102410003EBEC8F93E5690FA3EBC57FB3EF11EFC4C
:102420003EF3E5FC3EC2ACFD3E5F73FE3EC939FFA4
:102430003EAF0400FF003F0263003FEAC5003FB922
:1024400028013F6E8B013F09EE013F8A50023FF1A8
:10245000B2023F3E15033F7077033F89D9033F87A0
:102460003B043F6B9D043F34FF043FE360053F772F
:10247000C2053FF123063F4F85063F93E6063FBC6A
:1024800047073FCAA8073FBD09083F946A083F5164
:10249000CB083FF22B093F778C093FE2EC093F3034
:1024A0004D0A3F64AD0A3F7B0D0B3F776D0B3F56E6
:1024B000CD0B3F1A2D0C3FC28C0C3F4EEC0C3FBE97
:1024C0004B0D3F11AB0D3F490A0E3F64690E3F6251
:1024D000C80E3F44270F3F09860F3FB2E40F3F3E2F
:1024E00043103FADA1103F0000113F355E113F4D3D
:1024F000BC113F491A123F2778123FE8D5123F8B93
:1025000033133F1191133F7AEE133FC54B143FF342
:10251000A8143F0306153FF562153FC9BF153F805C
:102520001C163F1879163F92D5163FEF31173F2DF5
:102530008E173F4D00FF00EA173F4E46183F31A26D
:10254000183FF6FD183F9C59193F24B5193F8C10D0
:102550001A3FD76B1A3F02C71A3F0E221B3FFC7C63
:102560001B3FCAD71B3F79321C3F098D1C3F7AE7BE
:102570001C3FCB411D3FFD9B1D3F10F61D3F0350EF
:102580001E3FD7A91E3F8A031F3F1E5D1F3F93B604
:102590001F3FE70F203F1B69203F30C2203F241B15
:1025A000213FF873213FACCC213F4025223FB37D32
:1025B000223F06D6223F382E233F4986233F3BDE6B
:1025C000233F0B36243FBA8D243F49E5243FB73CD7
:1025D000253F0494253F2FEB253F3A42263F239980
:1025E000263FECEF263F9246273F189D273F7CF37E
:1025F000273FBE49283FDF9F283FDEF5283FBC4BE1
:10260000293F78A1293F11F7293F894C2A3FDFA1B3
:102610002A3F13F72A3F254C2B3F14A12B3FE1F50E
:102620002B3F8C4A2C3F159F2C3F7BF32C3FBE4702
:102630002D3FDF9B2D00FF003FDDEF2D3FB9432EE7
:102640003F72972E3F08EB2E3F7B3E2F3FCA912FC4
:102650003FF7E42F3F0138303FE88A303FABDD30B1
:102660003F4B30313FC882313F21D5313F57273270
:102670003F6979323F58CB323F231D333FCA6E3317
:102680003F4DC0333FAD11343FE862343F00B434B6
:102690003FF304353FC255353F6DA6353FF4F6355F
:1026A0003F5747363F9597363FAEE7363FA337371C
:1026B0003F7487373F20D7373FA726383F09763802
:1026C0003F47C5383F6014393F5463393F22B23920
:1026D0003FCC003A3F514F3A3FB09D3A3FEAEB3A88
:1026E0003FFF393B3FEE873B3FB8D53B3F5D233C47
:1026F0003FDC703C3F35BE3C3F690B3D3F76583D6B
:102700003F5FA53D3F21F23D3FBD3E3E3F338B3E07
:102710003F84D73E3FAE233F3FB26F3F3F90BB3F2A
:102720003F4707403FD852403F439E403F88E940E3
:102730003FA534413F9D00FF007F413F6DCA413FAF
:102740001715423F9B5F423FF7A9423F2DF4423F9E
:102750003B3E433F2388433FE3D1433F7D1B443F00
:10276000EF64443F3AAE443F5EF7443F5B40453F31
:102770003089453FDED1453F641A463FC362463F3C
:10278000FAAA463F0AF3463FF13A473FB182473F34
:1027900049CA473FBA11483F0259483F22A0483F23
:1027A0001BE7483FEB2D493F9374493F12BB493F1C
:1027B0006A014A3F99474A3FA08D4A3F7ED34A3F2C
:1027C00034194B3FC25E4B3F26A44B3F62E94B3F5F
:1027D000762E4C3F60734C3F22B84C3FBBFC4C3FC5
:1027E0002B414D3F72854D3F90C94D3F850D4E3F6A
:1027F00051514E3FF3944E3F6DD84E3FBD1B4F3F5E
:10280000E35E4F3FE1A14F3FB5E44F3F5F27503FAD
:10281000E069503F37AC503F64EE503F6830513F65
:102820004272513FF3B3513F79F5513FD536523F94
:102830000878523F10B95210BD3FEFF9523FA33A0A
:10284000533F2D7B533F8DBB533FC3FB533FCE3B89
:10285000543FAF7B543F66BB543FF2FA543F533A68
:10286000553F8A79553F97B8553F78F7553F2F36F2
:10287000563FBC74563F1DB3563F54F1563F5F2F31
:10288000573F406D573FF6AA573F80E8573FE02536
:10289000583F1463583F1DA0583FFBDC583FAE190A
:1028A000593F3556593F9192593FC2CE593FC70AB9
:1028B0005A3FA0465A3F4E825A3FD0BD5A3F27F951
:1028C0005A3F52345B3F516F5B3F24AA5B3FCCE4DD
:1028D0005B3F471F5C3F97595C3FBA935C3FB2CD6B
:1028E0005C3F7E075D3F1D415D3F907A5D3FD7B302
:1028F0005D3FF2EC5D6810915E3FA25E5E3F3897EF
:102900005E3FA1CF5E3FDE075F3FEE3F5F3FD27786
:102910005F3F89AF5F3F14E75F3F711E603FA25585
:10292000603FA78C603F7EC3603F28FA603FA630BF
:10293000613FF766613F1A9D613F11D3613FDA083D
:10294000623F773E623FE673623F28A9623F3DDE09
:10295000623F2413633FDE47633F6B7C633FCAB033
:10296000633FFCE4633F0119643FD84C643F8180BE
:10297000643FFDB3643F4BE7643F6B1A653F5E4DB8
:10298000653F2280653FB9B20812E51000FF0017CD
:10299000663F6B49663F4A7B663FFCAC663F7FDE25
:1029A000663FD40F673FFB40673FF471673FBFA2AC
:1029B000673F5BD3673FC903683F0934683F1B64C7
:1029C000683FFE93683FB2C3683F39F3683F902287
:1029D000693FBA51693FB480693F80AF693F1DDEEE
:1029E000693F8C0C6A3FCC3A6A3FDD686A3FBF960C
:1029F0006A3F73C46A3FF7F16A3F4D1F6B3F744CE7
:102A00006B3F6C796B3F35A66B3FCED26B3F39FF86
:102A10006B3F752B6C3F81576C3F5E836C3F0CAFF7
:102A20006C3F8BDA6C3FDB056D3FFB306D3FEC5B41
:102A30006D3FAD866D3F3FB16D3FA2DB6D3FD5056C
:102A40006E3FD82F6E3FAC596E3F51836E3FC6AC80
:102A50006E3F0BD66E3F20FF6E3F06286F3FBC5087
:102A60006F3F42796F3F99A16F3FC0C96F3FB6F189
:102A70006F3F7D19703F1441703F7B68703FB28F8C
:102A8000703FB9B6703F90DD703F37047110F53F6D
:102A9000AD2A713FF450713F0A77713FF09C713F4E
:102AA000A6C2713F2CE8713F810D723FA632723F82
:102AB0009B57723F5F7C723FF3A0723F57C5723FD6
:102AC0008AE9723F8C0D733F5E31733F0055733F4F
:102AD0007078733FB19B733FC0BE733F9FE1733FFC
:102AE0004E04743FCB26743F1849743F346B743FD7
:102AF0001F8D743FDAAE743F63D0743FBCF1743FF6
:102B0000E412753FDB33753FA154753F3675753F51
:102B10009A95753FCDB5753FCED5753F9FF5753FFD
:102B20003F15763FAE34763FEB53763FF772763FF4
:102B3000D291763F7CB0763FF5CE763F3CED763F46
:102B4000520B773F3729773FEA46773F6C64773FF0
:102B5000BD81773FDC9E773FCABB773F86D8773F02
:102B600011F5773F6A11783F922D783F8849783F79
:102B70004D65783FE080783F419C783F71B7783F62
:102B800070D278481CEA783FD707793F4022793FD6
:102B9000773C793F7D56793F5170793FF389793F92
:102BA00063A3793FA2BC793FAED5793F89EE793FE7
:102BB00032077A3FA91F7A3FED377A3F00507A3FBC
:102BC000E1677A3F917F7A3F0E977A3F59AE7A3F1D
:102BD00071C57A3F58DC7A3F0DF37A3F90097B3F0D
:102BE000E01F7B3FFF357B3FEB4B7B3FA5617B3F8E
:102BF0002D777B3F838C7B3FA7A17B3F98B67B3FA4
:102C000057CB7B3FE4DF7B3F3EF47B3F66087C3F56
:102C10005C1C7C3F20307C3FB1437C3F10577C3FA5
:102C20003C6A7C3F377D7C3FFE8F7C3F93A27C3F9C
:102C3000F6B47C3F27C77C3F25D97C3FF0EA7C3F38
:102C400089FC7C3FEF0D7D3F231F7D3F25307D3F7D
:102C5000F4407D3F90517D3FFA617D3F31727D3F71
:102C600035827D3F07927D3FA6A17D3F13B17DE870
:102C70000510357D3F55CF7D3F29DE7D3FCBEC7D77
:102C80003F3BFB7D3F77097E3F81177E3F58257E86
:102C90003FFD327E3F6E407E3FAD4D7E3FBA5A7E55
:102CA0003F93677E3F3A74101006807E3FEE8C2083
:102CB0001447987E3FD8A47E3F80B07E3FF6BB7E0F
:102CC0003F39C77E3F49D27E3F26DD7E3FD0E77E3B
:102CD0003F48F27E3F8CFC7E3F9E067F3F7C107F0C
:102CE0003F281A7F3FA1237F3FE72C7F3FF9357FA5
:102CF0003FD93E7F3F86477F3C10617F3F47587FEB
:102D00003F5C607F3F3D687F3FEB6F7F3F66777F33
:102D10003FAE7E7F3FC3857F3FA58C7F3F54937F2F
:102D20003FD0997F3F19A07F3F2FA67F3F12AC7FF6
:102D30003FC2B17F3F3FB77F3F89BC7F3FA0C17F8C
:102D40003F84C67F3F34CB7F3FB2CF7F3FFCD37FF2
:102D50003F14D87F3FF8DB7F3FA9DF7C1012E37F71
:102D60003F73E67F3F8BE97F3F70EC7F3F22EF347C
:102D70001029F17F3FECF37F3F05F67F3FEAF77FB5
:102D80003F9DF97F3F1CFB7F3F68FC7F3F81FD7FBC
:102D90003F67FE7F3F1AFF7F3F9A0412E608300428
:102DA00000008008211021182120212821302138FD
:102DB000214021482150215821602168217021782B
:102DC000218021882190219821A021A821B021B81B
:102DD00021C021C821D021D821E021E821F021F80B
:102DE00025002508251025182520252825302538DB
:102DF00025402548255025582560256825702578CB
:102E0000258025882590259825A025A825B025B8BA
:102E100025C025C84781B0D825E016EFE847AE8029
:102E2000F8290029081AAE104B6F402029282930B4
:102E300029382940294829502958296029684BA751
:102E4000A178298029882990299829A029A829B022
:102E50001AF0B829C029C829D029D829E04B94A252
:102E6000F029F84F3D6A08032D10032D18032D207B
:102E7000031E6728032D30032D38032D40032D48F2
:102E8000032D50032D58032D60034FA66170032DB1
:102E900078031EE180032D88032D90031E599803AB
:102EA0004F72C5A8032DB0032DB8031EE2C0031E48
:102EB00001C8034FEE37D8032DE0032DE8032DF0B2
:102EC000032DF8032D00042D08042D10042D1804E3
:102ED0004F783C28042D30042D38042D40041E72F8
:102EE00048044F429C58042D60042D68042D700442
:102EF0002D78042D80042D88042D90042D98042D08
:102F0000A0042DA8042DB0042DB8042DC0042DC894
:102F1000042DD0042DD8041ED3E0044FF872F00421
:102F20002DF8042D00051EA008054FCFD518052D3E
:102F300020052D28052D30052D38052D40052D485F
:102F4000054F64D058054F208D68052D70052D78EC
:102F5000052D80051EA088054FC1BE98054F7178CC
:102F6000A8052DB0052DB8052DC0052DC8051EF4EA
:102F7000D0054F607CE0051EA7E8051E82F0052DF8
:102F8000F8051EA700064FF19C10062D18061EAE70
:102F900020062D28062D30062D38062D40062D48FA
:102FA000062D50062D58064FB7F168062D70064FB6
:102FB000437980062D88064F21FF98062DA0062D07
:102FC000A8061EADB0061ED9B8062DC0062DC8062F
:102FD0002DD0062DD8062DE0062DE8062DF0061E74
:102FE0008CF8061E0D00074F5F8310072D18072D64
:102FF00020074FCFD230072D38072D40071E4E48EF
:10300000074FF8F158074FC09668072D70072D78C5
:10301000074F1EDE88072D90072D98071E91A007E9
:103020002DA8074FB3C3B8072DC0071E0AC8071E37
:10303000CAD0074F5CD3E0072DE8071EFCF0071E3F
:10304000D5F8072D00082D08084F4B7B18082D20B8
:10305000081E2328081EBA30084F238040082D4838
:10306000082D50082D58082D60082D68082D70086F
:103070001EFD78081ECB80081E6C88081EDF900895
:103080001E2598082DA0082DA8082DB0082DB808D9
:103090001EDBC0082DC8084F1B9DD8082DE0084F27
:1030A00029FAF0082DF8081EA300091E7208092D40
:1030B00010091E8A18091ED320091EEF28091EDFD9
:1030C00030091EA238091E3940091EA348091EE115
:1030D00050092D58091ED860094F917A70092D7832
:1030E000092D80094FBB9390091E4898092DA0090E
:1030F0004F25AAB0092DB8092DC0094FD1BDD0095F
:103100001EA1D8092DE0092DE8091E92F0091E36EE
:10311000F8092D000A1EFC080A1E1E100A1E1518AA
:103120000A2D200A4F81E8300A2D380A1E60400A15
:103130002D480A4F1EB3580A1E30600A4F79F770A7
:103140000A1E8B780A1E54800A2D880A2D900A1EAA
:10315000B0980A1ECFA00A2DA80A1E8EB00A1E2EF5
:10316000B80A1EA4C00A2DC80A1E11D00A1E09D80A
:103170000A1ED6E00A4F7AF5F00A1E43F80A1E69C5
:10318000000B4F65EE100B2D180B2D200B2D280B6F
:103190002D300B1EE4380B2D400B2D480B4FF494B3
:1031A000580B2D600B1E91680B1E73700B1E2C7834
:1031B0000B1EBC800B1E23880B1E61900B2D980BE1
:1031C0001E63A00B4F27A4B00B1E35B80B1E7FC08B
:1031D0000B1EA1C80B1E9AD00B1E6BD80B4F13BB36
:1031E000E80B2DF00B2DF80B4F23A0080C2D100C25
:1031F0001E4A180C1EB2200C1EF2280C2D300C4F4B
:10320000FBAA400C1E65480C2D500C1E31580C1E9C
:103210005C600C1E5F680C1E3B700C1EF0780C1E70
:103220007E800C4FE4D1900C1E3C980C2DA00C4FCE
:10323000F8A9B00C1E18B80C4F6ECAC80C1EA6D048
:103240000C2DD80C1E44E00C1ED9E80C1E48F00CC6
:103250002DF80C1EB3000D2D080D2D100D1E341869
:103260000D1EBE200D2D280D2D300D1E77380D2D75
:10327000400D4F36BE500D2D580D1EB9600D1EEF7E
:10328000680D2D700D1EEB780D4FB19D880D1ECD74
:10329000900D4F23B2A00D2DA80D1E48B00D1E0A93
:1032A000B80D1EA8C00D2DC80D1E75D00D1EA4D8BA
:1032B0000D4FAFE7E80D2DF00D1EF5F80D1E6E0059
:1032C0000E1EC3080E1EF4100E2D180E1EE9200E41
:1032D0002D280E1E4E300E1ECB380E2D400E1E59C0
:1032E000480E2E6A500E1D580E1E22600E1EC96812
:1032F0000E1E4C700E1EAC780E1EE9800E1E02884B
:103300000E1EF8900E1ECB980E2DA00E2DA80E2D81
:10331000B00E1EBAB80E1EDEC00E1EE0C80E1EBFD6
:10332000D00E2DD80E2DE00E1E8DE80E1EE2F00EF2
:103330001E15F80E3D000F1D080F1EE0100F1E8A0F
:10334000180F4F12F7280F1EBD300F1EDF380F1E4B
:10335000E0400F1EBF480F1E7D500F1E19580F1E54
:1033600093600F2D680F1E24700F1E3B780F4F3097
:10337000EB880F1EB8900F1E4A980F1EBBA00F1EA1
:103380000CA80F2DB00F1E4AB80F1E39C00F2DC844
:103390000F2DD00F2DD80F1EADE00F1EF9E80F1E18
:1033A00025F00F2DF80F1E1C00101EE808102D1020
:1033B000101E1F18101E8B20102D28101E043010F8
:1033C0001E1138101EFE40101ECC48101E7B5010DF
:1033D0002E0A58101D60104FCBD770101E0F78109A
:1033E0004F03C788101E8D90102D98101E9DA010A1
:1033F0001EF7A8101E32B0101E4FB8102DC0101EA0
:103400002EC8102DD0101E93D8101E19E0102DE8D4
:10341000101ECAF0101EF6F8102D00111EF408112F
:103420001EC610111E7B18111E1220111E8C281191
:103430002D30112D38112D40111E4E48111E3650C1
:10344000112D58111EAE60111E3F68111EB3701170
:103450001E0A78111E4580114F63C890112D9811D6
:103460001E12A0111EBFA8111E4FB0111EC3B8110D
:103470001E1BC0114F57CDD0111E7CD8112DE0114D
:103480001E31E8112DF0111E78F8112D00122D08B3
:10349000121E9510122D18122ECB20121D28121E4E
:1034A0009430121E5038122D40121E7848121EE41D
:1034B00050121E3558121E6C60121E8868121E8A29
:1034C00070121E7178122D80122D88122D90122DDF
:1034D00098122DA0121EBAA8121EEBB0121E03B82D
:1034E000121D93171F3FCAC8121E60D0121EC3D8E8
:1034F000121EF4E0121EF2E8121EBEF0121E58F860
:10350000121EBF00131EF508131EF910131ECB1850
:10351000131E6C20131EDC28131E1B30131E2938AB
:10352000131E0640131EB248131E2E50131E795848
:10353000131E9560131E8068131E3C70131EC878FE
:10354000131E2580131E5288131E5090131E1F98A1
:10355000131EBFA0131E30A8131E73B0131E87B80E
:10356000131E6DC0131E25C8131EAFD0131E0CD81A
:10357000131E3AE0131E3CE8131E0FF0131EB6F89C
:10358000131E3000141E7D08141E9E10141E921867
:10359000141E5920141EF528141E6430141EA83859
:1035A000141EC040141EAC48141E6D50141E035847
:1035B000141E6E60141EAE68141EC370141EAE7806
:1035C000141E6E80141E0488141E7090141EB2986F
:1035D000141ECAA0141EB9A8141E7FB0141E1BB856
:1035E000141E8EC0141ED8C8141EF9D0141EF2D892
:1035F000141EC2E0141E6BE8141EEBF0141E43F8F8
:10360000141E7300151E7C08151E5D10151E17185C
:10361000152EA920151D28151E5A30151E7938158E
:103620001E7140151E4348151EEE50151E74581588
:103630001ED460151E0E68151E2370151E127815F7
:103640001EDD80151E8288151E0290151E5E9815BF
:103650001E96A0151EA9A8151E98B0151E63B815B4
:103660001E0BC0151E8EC8151EEED0151E2BD815AC
:103670001E45E0151E3CE8151E10F0151EC1F8157C
:103680001E5000161EBD08161E0810161E301816F5
:103690001E3720161E1C28161EE030161E833816F4
:1036A0001E0440161E6448161EA450161EC358164B
:1036B0001EC260161EA068161E5E70161EFD7816CD
:1036C0001E7B80161EDA88161E1A90161E3A981651
:1036D0001E3BA0161E1EA8161EE1B0161E87B816A9
:1036E0001E0DC0161E76C8161EC0D0161EEDD816AA
:1036F0001EFBE0161EEDE8161EC0F0161E77F8162B
:103700001E1100171E8E08171EEE10171E311817F7
:103710001E5820171E6428171E5330171E263817F0
:103720001EDD40171E7948171EFA50171E605817E5
:103730001EAB60171EDA68171EF070171EEA7817A6
:103740001ECB80171E9188171E3E90171ED098170B
:103750001E93A0171E52A8171EDFB0171E3AB817E7
:103760001E63C0171E5AC8171E21D0171EB6D817C1
:103770001E1BE0171E50E8171E56F0171E2CF817D8
:103780001ED300181E4B08181E9510181EB11818CD
:103790001E9F20181E6028181EF430181E5C381852
:1037A0001E9740181EA648181E8A50181E43581807
:1037B0001ED160181E3468181E6D70181E7C781893
:1037C0001E6280181E1F88181EB390181E1E98189F
:1037D0001E62A0181E7EA8181E72B0181E40B818CF
:1037E0001EE6C0181E67C8181EC1D0181EF6D818CD
:1037F0001E06E0181EF1E8181EB7F0181E59F8183A
:103800001ED700191E3208191E6910191E7E1819BC
:103810001E7120191E4128191EEF30191E7C3819FF
:103820001EE840191E3448191E5F50191E6A5819A7
:103830001E5560191E2168191ECE70191E5D78195B
:103840001ECD80191E2088191E5590191E6D9819BD
:103850001E68A0191E47A8191E09B0191EB0B81974
:103860001E3CC0191EACC8191C0602E3033E3DD81D
:10387000191E5EE0191ECCE8191EA9F0191E54F895
:10388000191ECF001A1E18081A1E32101A1E1D18F3
:103890001A1EDA201A1E69281A1ECB301A1C0601BD
:1038A000A1D93D0C401A1EEC481A1EA2501A1E2E19
:1038B000581A1E92601A1ECE681A1EE3701A1ED184
:1038C000781A1E9A801A1E3E881A1EBD901A1E185B
:1038D000981A1E51A01A1E67A81A1E5CB01A1E3133
:1038E000B81A1EE5C01A1E79C81A1EEFD01A1E4853
:1038F000D81A1E82E01A1EA1E81A1EA3F01A1E8B07
:10390000F81A1E58001B1E17081B1E4C101B1E50B9
:10391000181B1E25201B1ECD281B1E48301B1E9960
:10392000381B1EC0401B1EC0481B1E99501B1E4C3E
:10393000581B1EDD601B1E4A681B1E97701B1EC590
:10394000781B1ED5801B1EC8881B1EA0901B1EBC8A
:10395000981B1C0608BCE43C26A81B1C061A26C89B
:103960003CE6B81B1E8DC01B1C0611449D3C76D046
:103970001B1EBFD81B1EDBE01B1C0A0A2A483C1278
:10398000922B3CF8F81B1E82001C1EE5081C00FF51
:103990000050C4643B4DC5E43A9C2A6633B6C1E48A
:1039A000BA84C264BBFF91ABBB9CC2E4BB85F90E79
:1039B000BC9E912BBC972948BC68C164BC85AC8077
:1039C000BC3DF88EBCD7439DBC538FABBCADDAB9C0
:1039D000BCE125C8BCED70D6BCCFBBE4BC8206F30D
:1039E000BC83A800BDABCD07BDB8F20EBDA81716AD
:1039F000BD7B3C1DBD2D6124BDC0852BBD30AA32D1
:103A0000BD7CCE39BDA3F240BDA41648BD7C3A4F63
:103A1000BD2C5E56BDB0815DBD09A564BD33C86BCC
:103A2000BD2FEB72BDFA0D7ABD4A9880BD7D298409
:103A3000BD95BA87BD924B8BBD74DC8EBD396D923E
:103A4000BDE1FD95BD6B8E99BDD61E9DBD22AFA07B
:103A5000BD4E3FA4BD59CFA7BD435FABBD0AEFAE7E
:103A6000BDAE7EB2BD2F0EB6BD8C9DB9BDC32CBD03
:103A7000BDD5BBC0BDC04AC4BD84D9C7BD2068CBBD
:103A8000BD93F6CEBDDD84D2BDFD12D6BDF3A01C24
:103A9000AAD9BDBD2EDDBD5BBCE0BDCB49E4BD0FE9
:103AA000D7E7BD2464EBBD0AF1EEBDC07DF2BD4693
:103AB0000AF6BD9B96F9BDBE22FDBD575700BE3626
:103AC0001D02BEFAE203BEA5A805BE346E07BEA95C
:103AD0003309BE02F90ABE40BE0CBE61830EBE664B
:103AE0004810BE4E0D12BE19D213BEC69615BE5654
:103AF0005B17BEC71F19BE1AE41ABE4EA81CBE63D0
:103B00006C1EBE573020BE2DF421BEE1B723BE751A
:103B10007B25BEE83E27BE3A0229BE69C52ABE778C
:103B2000882CBE624B2EBE2B0E30BED0D031BE5282
:103B30009333BEB05535BEEA1737CF1900FF0038B2
:103B4000BEEF9B3ABEBA5D3CBE601F3EBEDFE03FAB
:103B5000BE39A241BE6B6343BE772445BE5BE546DA
:103B6000BE17A648BEAC664ABE18274CBE5BE74DE2
:103B7000BE75A74FBE666751BE2D2753BECAE65419
:103B8000BE3CA656BE836558BE9F245ABE90E35BDA
:103B9000BE55A25DBEED605FBE591F61BE98DD627D
:103BA000BEAA9B64BE8E5966BE441768BECCD4695B
:103BB000BE25926BBE4F4F6DBE490C6FBE14C970CF
:103BC000BEAF8572BE1A4274BE53FE75BE5CBA7734
:103BD000BE337679BED8317BBE4BED7CBE8CA87EE1
:103BE000BECD3180BE3A0F81BE8EEC81BEC7C98288
:103BF000BEE7A683BEEC8384BED76085BEA73D86A4
:103C0000BE5C1A87BEF7F687BE76D388BEDAAF8968
:103C1000BE228C8ABE4F688BBE60448CBE55208D00
:103C2000BE2EFC8DBEEAD78EBE8AB38FBE0D8F909E
:103C3000BE746A91BEBD4592BEE92093BE00FF00EE
:103C4000F8FB93BEE9D694BEBDB195BE728C96BE0C
:103C50000A6797BE834198BEDE1B99BE1AF699BECD
:103C600038D09ABE37AA9BBE16849CBED75D9DBE37
:103C700078379EBEF9109FBE5BEA9FBE9DC3A0BE73
:103C8000BE9CA1BEC075A2BEA14EA3BE6127A4BEAC
:103C90000000A5BE7FD8A5BEDDB0A6BE1989A7BE0F
:103CA0003461A8BE2D39A9BE0411AABEBAE8AABEC5
:103CB0004DC0ABBEBE97ACBE0D6FADBE3946AEBEFD
:103CC000421DAFBE28F4AFBEEBCAB0BE8BA1B1BEE1
:103CD0000778B2BE604EB3BE9524B4BEA6FAB4BE99
:103CE00093D0B5BE5BA6B6BEFF7BB7BE7F51B8BE54
:103CF000D926B9BE0FFCB9BE1FD1BABE0BA6BBBE3A
:103D0000D07ABCBE714FBDBEEB23BEBE3FF8BEBE77
:103D10006ECCBFBE76A0C0BE5774C1BE1248C2BE34
:103D2000A61BC3BE13EFC3BE59C2C4BE7895C5BEA1
:103D30007068C6BE3F3BC7BEE70DC8BE67E000FF68
:103D400000C8BEBFB2C9BEEF84CABEF656CBBED550
:103D500028CCBE8BFACCBE17CCCDBE7B9DCEBEB6DA
:103D60006ECFBEC73FD0BEAF10D1BE6DE1D1BE0198
:103D7000B2D2BE6B82D3BEAA52D4BEC022D5BEAAD6
:103D8000F2D5BE6BC2D6BE0092D7BE6A61D8BEA9BC
:103D900030D9BEBCFFD9BEA5CEDABE619DDBBEF177
:103DA0006BDCBE563ADDBE8E08DEBE9AD6DEBE7A2B
:103DB000A4DFBE2D72E0BEB33FE1BE0C0DE2BE3803
:103DC000DAE2BE37A7E3BE0874E4BEAC40E5BE222B
:103DD0000DE6BE6AD9E6BE84A5E7BE7071E8BE2DC9
:103DE0003DE9BEBB08EABE1BD4EABE4D9FEBBE4F09
:103DF0006AECBE2135EDBEC5FFEDBE39CAEEBE7D13
:103E000094EFBE925EF0BE7628F1BE2BF2F1BEAF0B
:103E1000BBF2BE0285F3BE254EF4BE1817F5BED91F
:103E2000DFF5BE69A8F6BEC870F7BEF638F8BEF278
:103E300000F9BEBCC8F9BE5490FABEBB57FBBE1C0D
:103E400039EF1EFCBEF1E5FCBEC0ACFDBE5D73FEED
:103E5000BEC739FFBEFEFFFFBE016300BFE9C5005C
:103E6000BFB82801BF6D8B01BF08EE01BF895002AA
:103E7000BFF0B202BF3D1503BF201C1C3EBF88D956
:103E800003BF863B04BF6A9D04BF33FF04BFE260EB
:103E900005BF76C205BFF02306BF4E8506BF92E67A
:103EA00006BFBB4707BFC9A807BFBC0908BF936AC5
:103EB00008BF50CB08BFF12B09BF201C1C06BFE177
:103EC000EC09BF201C1C0EBF63AD0ABF7A0D0BBFEF
:103ED000766D0BBF201C1EBF201C1EBF201C1C0AA1
:103EE000BF4DEC0CBFBD4B0DBF201C1C12BF480AC0
:103EF0000EBF63690EBF61C80EBF43270FBF201CF2
:103F00001C0ABFB1E40FBF3D4310BF201C1C0ABFF9
:103F1000FFFF10BF345E11BF201C1C12BF481A12D5
:103F2000BF267812BFE7D512BF8A3313BF201C1CEF
:103F300022BF79EE13BFC44B14BFF2A814BF020610
:103F400015BFF46215BFC8BF15BF7F1C16BF177918
:103F500016BF201C1C0EBFEE3117BF2C8E17BF4C96
:103F6000EA17BF201C1EBF201C1C0EBFF5FD18BF8A
:103F70009B5919BF23B519BF201C1C22BFD66B1A31
:103F8000BF01C71ABF0D221BBFFB7C1BBFC9D71BBC
:103F9000BF78321CBF088D1CBF79E71CBF201C1ED8
:103FA000BF201C1C0EBF0FF61DBF02501EBFD6A99E
:103FB0001EBF201C1EBF201C1C0ABF92B61FBFE6DE
:103FC0000F20BF201C1C22BF2FC220BF231B21BFDC
:103FD000F77321BFABCC21BF3F2522BFB27D22BFEB
:103FE00005D622BF372E23BF201C1C0ABF3ADE2372
:103FF000BF0A3624BF201C1C0EBF48E524BFB63CB8
:1040000025BF039425BF201C1C06BF394226BF20B4
:104010001C1C06BFEBEF26BF201C1C0ABF179D27E8
:10402000BF7BF327BF201C1EBF201C1EBF201C1CF3
:104030000ABFBB4B29BF77A129BF201C1EBF201C74
:104040001C12BFDEA12ABF12F72ABF244C2BBF13BC
:10405000A12BBF201C1C0EBF8B4A2CBF149F2CBF52
:104060007AF32CBF201C1C06BFDE9B2DBF201C1C1E
:1040700012BFB8432EBF71972EBF07EB2EBF7A3EFB
:104080002FBF201C1EBF201C1EBF201C1C06BFE70C
:104090008A30BF201C1EBF201C1C06BFC78231BF38
:1040A000201C1EBF201C1EBF201C1C0EBF57CB3265
:1040B000BF221D33BFC96E33BF201C1C06BFAC110D
:1040C00034BF201C1C0ABFFFB334BFF20435BF202D
:1040D0001C1EBF201C1EBF201C1C0ABF564736BF1B
:1040E000949736BF201C1EBF201C1C0EBF73873741
:1040F000BF1FD737BFA62638BF201C1C0EBF46C522
:1041000038BF5F1439BF536339BF201C1C16BFCBA7
:10411000003ABF504F3ABFAF9D3ABFE9EB3ABFFEFE
:10412000393BBF201C1EBF201C1C12BF5C233CBFA0
:10413000DB703CBF34BE3CBF680B3DBF201C1C0E77
:10414000BF5EA53DBF20F23DBFBC3E3EBF201C1C54
:1041500010BF83D73EBFAD233FBFB16F3FBF8FBB03
:104160003F0E1C040740BF201C1EBF201C1C06BFA6
:1041700087E940BF201C1C06BF9C7F41BF201C1E3E
:10418000BF201C1C0EBF9A5F42BFF6A942BF2CF491
:1041900042BF201C1C06BF228843BF201C1C06BF38
:1041A0007C1B44BF201C1EBF201C1EBF201C1C06E5
:1041B000BF5A4045BF201C1C06BFDDD145BF201C97
:1041C0001C0EBFC26246BFF9AA46BF09F346BF2014
:1041D0001C1EBF201C1EBF201C1C0ABFB91148BFDB
:1041E000015948BF201C1C0EBF1AE748BFEA2D49E1
:1041F000BF927449BF201C1C06BF69014ABF201C26
:104200001C06BF9F8D4ABF201C1EBF201C1C06BF62
:10421000C15E4BBF201C1EBF201C1C06BF752E4C50
:10422000BF201C1EBF201C1C1ABFBAFC4CBF2A4159
:104230004DBF71854DBF8FC94DBF840D4EBF5051CD
:104240004EBF201C1C0ABF6CD84EBFBC1B4FBF20EA
:104250001C1C16BFE0A14FBFB4E44FBF5E2750BF88
:10426000DF6950BF36AC50BF201C1EBF201C1EBFD4
:10427000201C1C06BFF2B351BF201C1EBF201C1CFB
:1042800006BF077852BF201C1C06BFEEF952BF20A4
:104290001C1EBF201C1EBF201C1C06BFC2FB53BF20
:1042A000201C1EBF201C1C0ABF65BB54BFF1FA5462
:1042B000BF201C1EBF201C1C06BF96B855BF201C6B
:1042C0001EBF201C1C06BFBB7456BF201C1C06BF93
:1042D00053F156BF201C1EBF201C1C06BFF5AA5759
:1042E000BF201C1C06BFDF2558BF201C1EBF201C82
:1042F0001EBF201C1C06BFAD1959BF201C1EBF20AD
:104300001C1C0ABFC1CE59BFC60A5ABF201C1C06BE
:10431000BF4D825ABF201C1C0EBF26F95ABF513414
:104320005BBF506F5BBF201C1C06BFCBE45BBF2094
:104330001C1C06BF96595CBF201C1EBFA0121C0A85
:10434000BF7D075DBF1C415DBF201C1EBF201C1C24
:1043500006BFF1EC5DBF201C1EBF201C1EBF201C31
:104360001EBF201C1EBF201C1EBF201C1EBF201CE9
:104370001EBF201C1C06BF13E75FBF201C1EBF20F2
:104380001C1C0ABFA68C60BF7DC360BF201C1EBF63
:10439000201C1C06BFF66661BF201C1C06BF10D384
:1043A00061BF201C1C06BF763E62BF70131EBF7823
:1043B000131C06BF3CDE62BF201C1EBF201C1EBF9C
:1043C000201C1EBF201C1EBF201C1C0ABF0019641D
:1043D000BFD74C64BF201C1C0ABFFCB364BF4AE7B4
:1043E00064BF201C1C06BF5D4D65BF201C1EBF2086
:1043F0001C1EBF201C1C06BF5D1766BF08141EBF15
:10440000201C1C06BFFBAC66BF20141EBF201C1E58
:10441000BF201C1EBF38141C06BFBEA267BF201CD5
:104420001EBF201C1EBF201C1C0ABF1A6468BFFDD3
:104430009368BF201C1C06BF38F368BF201C1C06F5
:10444000BFB95169BF90141EBF98141EBF201C1E17
:10445000BF201C1C06BFCB3A6ABFB8141EBF201C6D
:104460001C06BF72C46ABF201C1EBF201C1EBF20BA
:104470001C1C0ABF6B796BBF34A66BBF201C1EBF10
:1044800000151C06BF742B6CBF10151EBF201C1E10
:10449000BF201C1EBF201C1C06BFDA056DBF201CE0
:1044A0001C06BFEB5B6DBF48151EBF50151C0ABF35
:1044B000A1DB6DBFD4056EBF201C1EBF201C1EBF1C
:1044C000201C1C06BFC5AC6EBF88151EBF201C1E5D
:1044D000BF201C1EBF201C1EBF201C1EBF201C1C7A
:1044E00006BFBFC96FBF201C1EBFC8151EBFD01599
:1044F0001EBF201C1EBF201C1EBFE8151C0ABF8F3C
:10450000DD70BF360471BF201C1C06BFF35071BFA5
:1045100010161EBF201C1EBF201C1EBF28161EBF4B
:10452000201C1EBF201C1EBF40161EBF201C1EBF0D
:10453000201C1C0ABF56C572BF89E972BF68161ECF
:10454000BF70161C06BFFF5473BF201C1C06BFB0F3
:104550009B73BF201C1EBF201C1C06BF4D0474BFD4
:10456000A8161EBFB0161EBF201C1EBF201C1C0696
:10457000BFD9AE74BF201C1EBF201C1EBF201C1E36
:10458000BFE8161C12BFA05475BF357575BF99954D
:1045900075BFCCB575BF201C1EBF201C1EBF201CC4
:1045A0001C06BFAD3476BF201C1EBF201C1EBF20C2
:1045B0001C1EBF201C1EBF50171EBF58171EBF60F9
:1045C000171EBF201C1EBF201C1EBF78171C06BF55
:1045D000BC8177BF201C1C06BFC9BB77BF98171EC4
:1045E000BFA0171EBF201C1EBF201C1EBFB8171E59
:1045F000BF201C1EBFC8171EBF201C1EBF201C10C2
:1046000005BF6FD278481F78BF201C1EBFF8171E49
:10461000BF201C1EBF08181EBF201C1EBF201C1E52
:10462000BF20181C06BFA1BC79BF30181EBF3818A8
:104630001EBF201C1C06BFA81F7ABF201C1EBF2047
:104640001C1EBF201C1C0EBF907F7ABF0D977ABF27
:1046500058AE7ABF201C1EBF201C1EBF201C1EBFD0
:10466000201C1EBF201C1EBF201C1EBFB0181EBF5A
:10467000201C1EBFC0181EBF201C1C06BFA6A17B8D
:10468000BFD8181D84051F7BBFE8181EBFF0181E79
:10469000BF201C1EBF00191EBF201C1EBF10191EEC
:1046A000BF18191EBF201C1C06BF367D7CBF201CF6
:1046B0001EBF201C1EBF40191EBF48191C06BF2468
:1046C000D97CBF201C1EBF60191EBF201C1EBF70DE
:1046D000191EBF201C1C06BFF3407DBF201C1C06FA
:1046E000BFF9617DBF98191EBFA0191EBF201C1104
:1046F000701F7DBFB8191DE8051C077DBF54CF7D15
:10470000BF201C1EBF201C1C06BF3AFB7DBF201C07
:104710001EBFF0191EBF201C1EBF201C1EBF201C68
:104720001EBF201C1C06BFB95A7EBF201A1EBF2008
:104730001C1EBF201C1EBF201C1EBF401A1EBF48CF
:104740001A1EBF201C1EBF581A1EBF601A1EBF684B
:104750001A1EBF201C1EBF201C1EBF801A1EBF2099
:104760001C1EBF901A1EBF981A1EBF201C1EBF2001
:104770001C1C06BFE62C7FBFB81A1EBFC01A1EBF86
:10478000C81A153C1F7FBF201C1C06BF5B607FBF83
:10479000201C1EBF201C1EBFF81A1EBF201C1EBFDF
:1047A000081B1EBF101B1EBF201C1EBF201B1EBFD0
:1047B000281B1EBF301B1EBF201C1EBF201C1EBF7F
:1047C000481B1EBF201C1EBF581B1C06BF83C67F74
:1047D000BF201C1EBF201C1EBF781B1EBF801B1EBF
:1047E000BF201C1EBF901B1EBF981B1EBF201C1E7F
:1047F000BFA81B1EBFB01B1EBF201C1EBF201C1E3F
:10480000BFC81B1EBFD01B1EBF201C1EBFE01B1E2F
:10481000BFE81B1EBF201C1EBFF81B1EBF001C1EB6
:10482000BF201C1EBF201C1EBF181C1EBF201C3119
:104830000821102118212021282130213821402150
:10484000482150215843A1F168217021782180210D
:104850008843AADF9821A021A821B021B81D201CDF
:1048600031C821D021D821E021E821F021F825000C
:1048700025082510251825202528253025381D2018
:104880001C17BF484847015058256016FA681D900C
:104890001D3578258025882590259825A025A825D3
:1048A000B025B825C025C81D201C35D825E01D2001
:1048B0001C1EBF201C35F829001D201C1EBF201CFB
:1048C0001EBF201C39204B59253029381D201C398A
:1048D0004829501D201C396029681D201C39782961
:1048E0008029881D201C39981DC01E39A81A24B0A3
:1048F0001D201C39C029C81DF01E39D81AF7E01D2B
:10490000201C39F01D181F1EBF201C3D08032D1050
:10491000032D18031E5D20031D201C4C04BF3FF413
:1049200038032D40032D48031D701F3D58031E2ED4
:1049300060031D201C4C04BFEC4B78031D201C3D64
:1049400088031E0E90031D201C1EBF201C1EBFC806
:104950001F1EBF201C1EBF201C1EBF201C153C1F7D
:104960007ABF201C1EBFF81F3DE0032DE8031EAFD9
:10497000F0031D18204C04BF64A308042D10042D5F
:1049800018041D201C3D28042D30041E3D38041D34
:10499000201C1EBF201C1EBF201C3D58042D60047F
:1049A0004F894970041E6B78042D80042D88041DE6
:1049B000201C3D98041DC0201FBF6DA8044FEB466E
:1049C000B8041E53C0044F3DEDD0041E7DD8041D15
:1049D000201C1EBF201C1FBFECF0041D18213D0031
:1049E000051D201C1EBF201C1EBF38211EBF4021DC
:1049F0001EBF201C1EBF201C3D38052D40051EBDBE
:104A000048051D201C1EBF78211EBF201C1FBF355E
:104A100068051E1970051ECC78051DA0211EBF203B
:104A20001C1EBF201C1EBFB8211EBF201C1EBFC8DD
:104A3000211FBF5FB0051E8DB8051DE0211EBF20E0
:104A40001C1EBF201C1EBF201C1FBF9CE0051D207C
:104A50001C1EBF201C3DF8051D201C1EBF201C1F56
:104A6000BF0B10061D201C1EBF201C1EBF48221E8F
:104A7000BF201C3D38061EB340061E7C48061E158E
:104A800050061E7E58061D201C1EBF88221FBF9A7E
:104A900070061D201C1FBFBD80061E0788061D2036
:104AA0001C3D98061D201C3DA8061D201C1EBF2075
:104AB0001C1EBFE0221EBFE8221FBF40D0061EAE54
:104AC000D8061D201C1FBFFCE8061D10231EBF209A
:104AD0001C1EBF201C1EBF201C1FBF8210071D38BC
:104AE000231FBF3A20071D201C1EBF50231FBF6D70
:104AF00038071E7540071D201C1EBF201C1FBF74D9
:104B000058071D201C1FBFDE68071ECD70071E8DB5
:104B100078071D201C1FBF8188071EB590071DB890
:104B2000231EBF201C1EBF201C1EBF201C1FBFFF3A
:104B3000B8071DE0231EBF201C1EBF201C1EBF2067
:104B40001C1FBFC0E0071EF5E8071D201C1EBF206C
:104B50001C1FBF8000081D28241EBF201C1FBF6C07
:104B600018081E5F20081D201C1EBF201C1EBF2011
:104B70001C1EBF201C1FBF6C48081D201C1EBF2010
:104B80001C1FBF8260081D88241FBF0270081D20E3
:104B90001C1EBF201C1EBF201C1EBF201C1EBF20B1
:104BA0001C1FBF3EA0081E29A8081EE7B0081E78DB
:104BB000B8081D201C1FBF12C8081D201C1EBF20C6
:104BC0001C1FBFA7E0081D201C1FBF7FF0081D2071
:104BD0001C1EBF201C1EBF201C1EBF201C1EBF2071
:104BE0001C1EBF201C1EBF201C1EBF201C1EBF2061
:104BF0001C1EBF201C1EBF201C1EBF201C1FBFF37D
:104C000058091D201C1EBF201C1FBF1E70091D201F
:104C10001C1FBFB380091D201C1FBF9890091D20B9
:104C20001C1EBFC0251EBF201C1FBF52B0091E5333
:104C3000B8091E28C0091D201C1FBF4FD0091D2008
:104C40001C1FBFC8E0091EC3E8091D201C1EBF2091
:104C50001C1FBFAF000A1D201C1EBF201C1EBF2032
:104C60001C11681F58BF201C1FBFF7300A1E413897
:104C70000A1D201C1FBF55480A1D201C1FBFBD5800
:104C80000A1D201C1EBF201C1FBF98700A1D201C5F
:104C90001EBF201C1FBFF3880A1E67900A1D201C20
:104CA0001EBF201C1FBFC4A80A1D201C1EBF201C25
:104CB0001EBF201C1FBFF0C80A1E12D00A1D201CD8
:104CC0001FBFD7E00A1D201C1FBFF4F00A1D201CC7
:104CD0001EBF201C1FBF66080B1E38100B1EE118DC
:104CE0000B1E60200B1EB6280B1EE2300B1D201C75
:104CF0001FBFBE400B1E6E480B1D201C1FBF52580D
:104D00000B1E86600B1D201C1EBF201C1EBF201CFE
:104D10001EBF201C1EBF201C1EBF201C1FBF77985B
:104D20000B1D201C1EBF201C1FBFC3B00B1D201C51
:104D30001EBF201C1EBF201C1EBF201C1EBF201C0F
:104D40001FBF14E00B1E94E80B1EECF00B1E1CF8AA
:104D50000B1D201C1FBF03080C1EBB100C1D201CAC
:104D60001EBF201C1EBF201C1FBF0B300C1D201C93
:104D70001FBFC4400C1D201C1FBFDF500C1D201C7A
:104D80001EBF201C1FBF60680C1E3C700C1D201C29
:104D90001EBF201C1FBFE5880C1E24900C1D201C6C
:104DA0001FBF2EA00C1D201C1FBF9CB00C1E19B8CD
:104DB0000C1E6FC00C1E9EC80C1EA7D00C1E89D8DE
:104DC0000C1D201C1FBFDAE80C1D201C1FBF91F812
:104DD0000C1D201C1FBFAF080D1E85100D1E3518A1
:104DE0000D1D201C1FBF22280D1E60300D1E78389F
:104DF0000D1E6A400D1D201C1FBFDD500D1E5E588C
:104E00000D1D201C1FBFF0680D1C05003A3BBF2084
:104E10001C1EBF201C1FBF52880D1D201C1FBF243D
:104E2000980D1E55A00D1E61A80D1D201C1FBF0B47
:104E3000B80D1D201C1FBF21C80D1D201C1FBFA5A4
:104E4000D80D1EB0E00D1E96E80D1E58F00D1D2069
:104E50001C1FBF6F000E1EC4080E1D201C1C06BFA9
:104E600001B434BF201C1FBFAE280E1E4F300E1DD4
:104E7000201C1FBF24400E1D201C1DC40A1F32BF52
:104E8000201C1FBF23600E1D201C1FBF4D700E1E57
:104E9000AD780E1D201C1FBF03880E1EF9900E1E3C
:104EA000CC980E1E7CA00E1E09A80E1E73B00E1DFF
:104EB000201C1FBFDFC00E1D201C1FBFC0D00E1E38
:104EC0007CD80E1E16E00E1D201C1FBFE3F00E1D29
:104ED000201C1FBF26000F1D201C1D200D1C042A96
:104EE000BF8B180F1E13200F1E79280F1D201C1FAB
:104EF000BFE0380F1EE1400F1EC0480F1D201C1ED2
:104F0000BF201C1FBF94600F1EED680F1E25700F81
:104F10001D201C1FBF31800F1E05880F1D201C1E69
:104F2000BF201C1FBFBCA00F1D201C1D280C1C0473
:104F300023BF4BB80F1D201C1FBF07C80F1EB4D0C6
:104F40000F1E41D80F1D201C1EBF201C1EBF201C81
:104F50001FBF31F80F1E1D00101D201C1FBF941015
:104F6000101E2018101E8C20101ED828101D201C6A
:104F70001EBF201C1FBFFF40101ECD48101D201C4F
:104F80001FBF0B58101D201C1EBF201C1FBFFD7013
:104F9000101E1078101D201C1FBFD888101E8E9068
:104FA000101E2598101E9EA0101D201C1FBF33B080
:104FB000101E50B8101E4EC0101D201C1FBFF0D078
:104FC000101E94D8101D201C1FBF81E8101ECBF0AE
:104FD000101D201C2FBF0400111D08111EC7101129
:104FE0001E7C18111E1320111E8D28111EE9301170
:104FF0001E2838111E4A40111E4F48111E375011ED
:105000001C06010011BFAF60111E4068111EB47074
:10501000111E0B78111D201C1FBF6488111E659086
:10502000111E4A98111E13A0111D201C1FBF50B045
:10503000111EC4B8111E1CC0111E58C8111E78D0F4
:10504000111D201C1FBF65E0111E32E8111EE3F088
:10505000111E79F8111EF300121E5208121E96102E
:10506000121EBE18121D201C1EBF201C1FBF953013
:10507000121E5138121EF240121E7948121EE550BF
:10508000121E3658121D201C1FBF8968121D201CBD
:105090001FBF7278121E3F80121EF288121E8B9064
:1050A000121E0A98121E6FA0121D201C1FBFECB00A
:1050B000121D201C11B41C0400BFCCC8121E62D0EB
:1050C000121EC5D8121EF6E0121EF4E8121EBFF022
:1050D000121E59F8121EC100131EF608131EFA10F4
:1050E000131ECD18131E6E20131EDE28131E1C3037
:1050F000131E2A38131E0740131EB348131E2F50C9
:10510000131E7B58131E9760131E8268131E3E7079
:10511000131ECA78131E2680131E5388131E519027
:10512000131E2098131EC0A0131E32A8131E74B0A5
:10513000131E89B8131E6FC0131E27C8131EB1D0CB
:10514000131E0DD8131E3CE0131E3DE8131E11F074
:10515000131EB8F8131E3200141E7F08141E9F1071
:10516000141E9318141E5B20141EF628141E66309D
:10517000141EA938141EC140141EAE48141E6F50D0
:10518000141E0558141E6F60141EAF68141EC570DF
:10519000141EAF78141E7080141E0688141E7290A0
:1051A000141EB498141ECCA0141EBBA8141E80B0EC
:1051B000141E1CB8141E8FC0141EDAC8141EFBD097
:1051C000141EF4D8141EC4E0141E6CE8141EECF077
:1051D000141E44F8141E7400151E7D08151E5E1062
:1051E000151E1818151EAB20151E1728151E5C302D
:1051F000151E7B38151E7340151E4448151EF050B1
:10520000151E7658151ED560151E1068151E2470C3
:10521000151E1478151EDE80151E8488151C0604C4
:105220007CB7BE6098151E98A0151EABA8151E9AD7
:10523000B0151E65B8151E0CC0151E90C8151EF0C1
:10524000D0151E2DD8151E47E0151E3EE8151E125E
:10525000F0151EC3F8151E5200161EBF08161E09B3
:1052600010161E3218161E3920161E1E28161EE293
:1052700030161E8438161E0640161E6648161EA6D8
:1052800050161EC558161EC360161EA268161E6054
:1052900070161EFE78161E7D80161EDC88161E1CDB
:1052A00090161E3C98161E3DA0161E20A8161EE342
:1052B000B0161E88B8161E0FC0161E77C8161EC25E
:1052C000D0161EEED8161EFDE0161EEEE8161EC203
:1052D000F0161E79F8161E1300171E8F08171EEF02
:1052E00010171E3318171E5A20171E6528171E5434
:1052F00030171E2838171EDF40171E7B48171EFC6C
:1053000050171E6258171EAC60171EDC68171EF17E
:1053100070171EEC78171ECD80171E9388171E3F3E
:1053200090171ED298171E97A0171E56A8171EE397
:10533000B0171E3DB8171E66C0171E5EC8171E2484
:10534000D0171EBAD8171E1FE0171E54E8171E5993
:10535000F0171E2FF8171ED600181E4F08181E989B
:1053600010181EB418181EA320181E6428181EF842
:1053700030181E5F38181E9B40181EAA48181E8E33
:1053800050181E4658181ED460181E3768181E7113
:1053900070182E8078181D80181E2288181EB6904E
:1053A000181E2298181E65A0181E81A8181E76B017
:1053B000181E43B8181EEAC0181E6BC8181EC5D0A8
:1053C000181EFAD8181C060ADA38BEF4E8181EBBF4
:1053D000F0181E5DF8181EDB00191E3608191E6D28
:1053E00010191E8218191E7420191E4428191D56E2
:1053F000321FBE8038191EEC40191E3748191E6234
:1054000050191E6D58191E5960191E2568191ED293
:1054100070191E6178191ED180191E2488191E5911
:1054200090191E7198191E6CA0191E4AA8191E0DFC
:10543000B0191EB4B8191E3FC0191EAFC8191C06FA
:1054400005E303BE41D8191E62E0191ED3E8191EF8
:10545000B0F0191E5CF8191ED6001A1E1F081A1E7D
:1054600039101A1E24181A1EE1201A1E70281A1E3E
:10547000D2301A1C0708A1D9BD1313401A1D481AAF
:105480001EA9501A1E35581A1E99601A1ED5681A80
:105490001EEA701A1ED9781A1EA1801A1E45881A93
:1054A0001EC4901A1E1F981A1E58A01A1E6FA81A02
:1054B0001E64B01A1E38B81A1EECC01A1E80C81A14
:1054C0001EF7D01A1E4FD81A1E8AE01A1EA8E81A14
:1054D0002EABF01A1DF81A1E5F001B1C06250E7A53
:1054E000BD5A101B1E5E181B1E34201B1EDB281B02
:1054F0001E57301B1EA7381B1ECF401B1ECE481B3D
:105500001EA7501B1E5B581B1EEB601B1E59681B01
:105510001EA6701B1ED3781B1EE3801B1ED6881B85
:105520001EAE901B1ED9981B1C1225BCE4BC4371F7
:10553000D6BC3726C8BC03DBB9BCAAC01B1C062ED0
:10554000449DBC93D01B1EDBD81B00224514C264B3
:10555000BC442A48BC4B922BBC32FA0EBCF3C3E4C9
:10556000BB5993ABBB38C564BB1DC7E4BA0001206F
:1055700005010203040400090006070809020406E5
:04558000080000001F
:04000005080000ED02
:00000001FF
