:020000040800F2
:10000000C0040020010100081D050008E9040008E3
:1000100019050008110300080B0900080000000082
:100020000000000000000000000000002D06000895
:100030002B0300080000000035050008B507000884
:100040001B0100081B0100081B0100081B01000820
:100050001B0100081B0100081B0100081B01000810
:100060001B0100081B0100081B0100081B01000800
:100070001B0100081B0100081B0100081B010008F0
:100080001B0100081B0100081B0100081B010008E0
:100090001B0100081B0100081B0100081B010008D0
:1000A0001B0100081B0100081B0100081B010008C0
:1000B0001B0100081B0100081B0100081B010008B0
:1000C0001B0100081B0100081B0100081B010008A0
:1000D0001B0100081B0100081B0100081B01000890
:1000E0001B0100081B0100081B010008DFF80CD0F1
:1000F00000F0EAF8004800472D090008C00400207D
:100100000648804706480047FEE7FEE7FEE7FEE7B1
:10011000FEE7FEE7FEE7FEE7FEE7FEE70D08000864
:10012000ED000008F0B480EA0102D40F4200B2EB07
:10013000410F02D20246084611464A0042D0C30D82
:10014000DDB2C1F3C752AD1A202D35DAC1F3160165
:1001500041F4000204B15242C5F1200602FA06F150
:100160002A411044B3EBD05F23D0C4B1012DA0EBE2
:10017000C35009DCF0BC4FF0004202EAC352DBB2CC
:1001800000F5000000F072B8400000F1807000EB54
:10019000C350A0F1807040EAD170490009E04908DD
:1001A00041EAC071A0EBC35000F50000400800EB2D
:1001B000C350F0BC00F051B86142012202EB410192
:1001C000001BF6E7F0BC704781F00041AAE780F021
:1001D0000040A7E730B480EA010202F0004530F0A9
:1001E000004221F0004013D090B1C30DD40DC2F3F2
:1001F0001601C0F31600E41A41F4000140F40002B5
:100200007D34914201D3641C00E04900002C02DAE5
:1002100030BC002070474FF400000023914201D30E
:10022000891A034340084FEA4101F7D151B1914285
:1002300002D14FF0004105E002D24FF0010101E090
:100240006FF0010103EBC450284430BC00F005B846
:1002500096230022114600F009B80029A8BF704774
:10026000401C490008BF20F00100704710B4B0FAEC
:1002700080FC00FA0CF050EA010404BF10BC704787
:1002800049B1CCF1200421FA04F411FA0CF118BFA1
:10029000012121430843A3EB0C01CB1D4FEA006170
:1002A0004FEA102042BF002010BC704700EBC35043
:1002B00010440029A4BF10BC7047401C490008BF6F
:1002C00020F0010010BC7047064C074D06E0E068C6
:1002D00040F0010394E8070098471034AC42F6D38D
:1002E000FFF708FF340900085409000810B54FF45F
:1002F000806000F015F900F023FA00F0F7F800F044
:1003000009F801200149087010BD0000000000201C
:1003100000BFFEE710B5002404E0204600F0ACF872
:10032000601CC4B20A2CF8DB10BD70472DE9F04107
:10033000024600250026002000230024002791F813
:1003400003C00CF00F0591F803C00CF0100CBCF1C9
:10035000000F03D091F802C04CEA050591F800C0E7
:10036000BCF1000F31D0146800202BE04FF0010CDD
:100370000CFA00F3B1F800C00CEA03069E4220D14B
:1003800083004FF00F0C0CFA03F7BC4305FA03FC93
:100390004CEA040491F803C0BCF1280F06D14FF0D9
:1003A000010C0CFA00FCC2F814C00AE091F803C07A
:1003B000BCF1480F05D14FF0010C0CFA00FCC2F85B
:1003C00010C0401C0828D1D31460B1F800C0BCF1A3
:1003D000FF0F34DD546800202EE000F1080C4FF0D0
:1003E000010808FA0CF3B1F800C00CEA03069E42BB
:1003F00021D183004FF00F0C0CFA03F7BC4305FA30
:1004000003FC4CEA040491F803C0BCF1280F05D1A9
:1004100000F1080C08FA0CF8C2F8148091F803C037
:10042000BCF1480F07D100F1080C4FF0010808FAA1
:100430000CF8C2F81080401C0828CED35460BDE8E8
:10044000F08100000B4A11684FF0E02252694FF032
:10045000E0239B69D21A4FF47A735A434FF0E0239A
:100460005B69B2FBF3F201EB4103C3EBC11302EB97
:10047000C30070470800002070B5044604EB440038
:10048000174951F8200004EB4401154A02EB8101A1
:100490004860FFF7D7FF0646FFF7DAFE0546114929
:1004A000FFF798FE04EB44010D4A42F8210004EBEB
:1004B00044020B4B03EB8202516804EB440253F8F5
:1004C0002200FFF781FE04EB4401054A02EB8101A3
:1004D000886004EB4400114601EB8000806870BD29
:1004E000440000200024744900BFFEE708B5012144
:1004F000082000F021F84FF48050ADF800001020E3
:100500008DF8030003208DF8020069460148FFF7CB
:100510000DFF08BD000C014000BFFEE77047000062
:1005200002490143024A1160704700000000FA05C9
:100530000CED00E07047000029B1064A92690243C1
:10054000044B9A6104E0034A92698243014B9A6129
:10055000704700000010024030B500210022002446
:1005600000232D4D6D6805F00C0121B1042905D043
:10057000082923D105E0294D056022E0274D0560BB
:100580001FE0254D6D6805F47012234D6D6805F46C
:100590008034022505EB92421CB9214D554305607C
:1005A0000BE01D4D6D6805F400351DB11C4D554324
:1005B000056002E0194D5543056002E0174D0560E6
:1005C00000BF00BF144D6D6805F0F0010909154D1D
:1005D0006B5C0568DD4045600F4D6D6805F4E061BA
:1005E000090A104D6B5C4568DD4085600A4D6D68F9
:1005F00005F46051C90A0B4D6B5C4568DD40C56070
:10060000054D6D6805F44041890B074D6B5CC5686D
:10061000B5FBF3F5056130BD0010024000127A0011
:1006200000093D000D0000201D000020704710B59E
:1006300000F002F810BD00000CB500200190009001
:100640003348006840F480303149086000BF3048CA
:10065000006800F4003000900198401C0190009860
:1006600018B90198B0F5A06FF1D12948006800F4DD
:10067000003010B10120009001E0002000900098AF
:10068000012843D12348006840F010002149086048
:100690000846006820F0030008600846006840F043
:1006A000020008601A4840681949486008464068D6
:1006B00048600846406840F48060486008464068EA
:1006C00020F47C1048600846406840F4E810486018
:1006D0000846006840F08070086000BF0C48006861
:1006E00000F000700028F9D00948406820F00300AD
:1006F000074948600846406840F00200486000BF73
:100700000348406800F00C000828F9D10CBD000037
:100710000010024000200240042808D14FF0E021E0
:10072000096941F004014FF0E022116107E04FF048
:10073000E021096921F004014FF0E02211617047C6
:1007400070B51948FFF708FF174840684FF47A71F1
:10075000B0FBF1F4E4082146B1F1807F00D31DE045
:1007600021F07F40401E4FF0E022506150170F22D1
:10077000002807DA13071E0E0C4B00F00F052D1F83
:100780005E5503E013071D0E094B1D5400BF0020EA
:100790004FF0E02290610720106100BF6FF004006D
:1007A000FFF7BAFF70BD00003000002018ED00E038
:1007B00000E400E010B512480068401C10490860D1
:1007C00010480088401C0F49088008464088401C9B
:1007D000488008468088401C88800846C088401CA5
:1007E000C88008460089401C088108464089401C92
:1007F00048810548007810B1084600F037F810BD70
:1008000008000020240000200000002010B513483C
:10081000006840F00100114908600846406810492E
:1008200008400E494860084600680E4908400B49D8
:1008300008600846006820F4802008600846406888
:1008400020F4FE0048604FF41F008860FFF7EFFEC1
:100850004FF000600449086010BD00000010024025
:100860000000FFF8FFFFF6FE08ED00E010B50446BB
:100870002088012803DB00F026F800202080608813
:10088000022803DB00F03AF800206080A0880528E9
:1008900003DB00F024F80020A080E0880A2803DBB6
:1008A00000F017F80020E0802089142803DB00F016
:1008B0002BF8002020816089322803DB00F010F83B
:1008C0000020608110BD10B50120FFF7D5FD044662
:1008D00010BD10B50220FFF7CFFD044610BD7047D4
:1008E00005480078401CC0B2034908700A2801DDA1
:1008F00000200870704700000C00002010B5002098
:10090000FFF7BAFD044610BD704700BFFEE702E0E6
:1009100008C8121F08C1002AFAD17047704700208A
:1009200001E001C1121F002AFBD17047FFF7DEFC76
:1009300000BFFEE75409000800000020240000006A
:100940000E09000878090008240000209C0400001B
:100950001E09000800000000000000000000000068
:10096000000000000001020304010203040607085E
:08097000090204060800000062
:04000005080000ED02
:00000001FF
