:020000040800F2
:100000004807002001010008911400083D11000874
:100010008D140008A50D0008A5310008000000009F
:100020000000000000000000000000002D1F00087C
:10003000490E000800000000291600089D2600084F
:100040001B0100081B0100081B0100081B01000820
:100050001B0100081B0100081B0100081B01000810
:100060001B0100081B0100081B0100081B01000800
:100070001B0100081B0100081B0100081B010008F0
:100080001B0100081B010008B90800081B0100083B
:100090001B0100081B0100081B0100081B010008D0
:1000A0001B010008152B00081B0100081B0100089C
:1000B0001B0100081B0100081B0100081B010008B0
:1000C0001B0100081B0100081B0100081B010008A0
:1000D0001B0100081B0100081B0100081B01000890
:1000E0001B0100081B0100081B010008DFF80CD0F1
:1000F00000F0C4FB00480047F53500084807002021
:100100000648804706480047FEE7FEE7FEE7FEE7B1
:10011000FEE7FEE7FEE7FEE7FEE7FEE7FD26000856
:10012000ED000008F0B480EA0102D40F4200B2EB07
:10013000410F02D20246084611464A0042D0C30D82
:10014000DDB2C1F3C752AD1A202D35DAC1F3160165
:1001500041F4000204B15242C5F1200602FA06F150
:100160002A411044B3EBD05F23D0C4B1012DA0EBE2
:10017000C35009DCF0BC4FF0004202EAC352DBB2CC
:1001800000F5000000F0D0BA400000F1807000EBF4
:10019000C350A0F1807040EAD170490009E04908DD
:1001A00041EAC071A0EBC35000F50000400800EB2D
:1001B000C350F0BC00F0AFBA6142012202EB410132
:1001C000001BF6E7F0BC704781F00041AAE780F021
:1001D0000040A7E780EA010210B502F000434000AA
:1001E00022D04A001FD0010E01EB1261C0F356006D
:1001F000C2F3560240F4000042F40002A0FB0220C9
:1002000000047F39140400D0401C50EA124001D48D
:100210004000491EC2B20C0604EBD010401C40083E
:10022000802A02D003E0002010BD20F00100002948
:1002300000DA0020184310BD30B480EA010202F059
:10024000004530F0004221F0004013D090B1C30DC2
:10025000D40DC2F31601C0F31600E41A41F40001F4
:1002600040F400027D34914201D3641C00E0490057
:10027000002C02DA30BC002070474FF4000000234D
:10028000914201D3891A034340084FEA4101F7D153
:1002900051B1914202D14FF0004105E002D24FF03E
:1002A000010101E06FF0010103EBC450284430BCB0
:1002B00000F031BA2DE9FE4F804681EA0300C00FFD
:1002C0000C46009021F0004123F00045B8EB0200FD
:1002D000A94105D24046214690461C460B4602469F
:1002E00023F00040104347D0270DC7F30A00C3F3A3
:1002F0000A510290401A019040286BDAC3F31300B0
:1003000040F4801B0098924620B10023D2EB030AF0
:1003100063EB0B0B01985946C0F14002504600F0C8
:10032000C9F906460D4650465946019A00F0E1F9D2
:1003300010EB08006141002487EA115284EAE77358
:100340001A4340D0009A62B3019A012A4FEA075239
:1003500015DC001B61EB02014FF0004202EA07527C
:10036000CDE90042001C41F5801132462B4600F0D9
:1003700036FA03B0BDE8F08F40462146F9E7001B8E
:1003800061EB0201001C41F5801300185B4120184D
:10039000A2F5001747EB030140EAD570B6196D418D
:1003A00011E06D084FEA360645EAC0754FEA07527C
:1003B000001B61EB0201001C41F5801149084FEA66
:1003C00030000019514132462B4603B0BDE8F04FD2
:1003D00000F0F6B90098012240000023D0EB0202A1
:1003E00063EBE073009821464FEAE074B8EB00003D
:1003F00061EB0401E9E783F000435BE781F0004132
:1004000058E72DE9FE4F81EA030404F0004421F08F
:10041000004100944FF0000B23F0004350EA010428
:100420005ED052EA03045BD0C3F30A54C1F30A5509
:100430002C44A4F2F3340194A0FB0254C1F3130141
:1004400041F48011C3F3130343F4801301FB02440E
:1004500000FB034E840A970A44EA815447EA835713
:10046000A4FB076802958D0A05FB07854FEA932CCC
:1004700004FB0C542705029D4FEA065847EA16373D
:10048000B5EB08056EEB070C870E920E47EA811755
:1004900042EA8312A7FB0201B6EB0B0164EB0004F6
:1004A0002B0D43EA0C335E1844EB1C50DA465146E0
:1004B000E7FB0201C5F313044FEA0B3343EA14537D
:1004C0004FEA0432019C43EA0603A4F10C040294AF
:1004D000009CCDE900B400F082F903B0BDE8F08FD4
:1004E00000200146F9E72DE9F04D81EA030404F00C
:1004F000004B21F0004514464FF0000A23F0004164
:1005000050EA050220D054EA01021DD0C5F30A5773
:100510000246C5F31303C1F31300C1F30A5640F4B6
:10052000801543F48013A7EB0608101BD64608F28B
:10053000FD3873EB050002D308F1010801E09218C1
:100540005B41B8F1000F03DA00200146BDE8F08DF1
:1005500000204FF48011064684460EE0171B73EB13
:10056000050705D3121B63EB050306434CEA010C98
:1005700049084FEA300092185B4150EA0107EDD17B
:1005800052EA030012D082EA040083EA050108431C
:1005900005D0101BAB4106D20122002306E0002249
:1005A0004FF0004302E06FF0010253101AEB060017
:1005B0004CEB085110EB0A0041EB0B01BDE8F04D8C
:1005C00000F0FEB8C10F80EAE0700844CA07962325
:1005D000002100F0A9B896230022114600F0A4B82B
:1005E0000EB5C10F80EAE0700844CA07002140F24E
:1005F00033438DE80E000A460B4600F0F0F803B0D6
:1006000000BD0EB540F2334102910021CDE9001149
:100610000A460B4600F0E3F803B000BD00F00042CC
:1006200020F00040C10DC0F3160040F400007F2907
:1006300001DA00207047962903DCC1F19601C84019
:1006400001E096398840002AF4D04042704770B5E6
:10065000C1F30A5201F000450024C1F3130140F236
:10066000FF3341F480119A4201DA002070BD40F25C
:1006700033439A42A2F2334203DC524200F029F89B
:1006800000E090402C43F1D0404270BD002801DBD7
:10069000C0F10040002901DBC1F1004181427047F7
:1006A000002801DBC0F10040002901DBC1F100415D
:1006B00088427047202A04DB203A00FA02F1002029
:1006C00070479140C2F1200320FA03F31943904090
:1006D0007047202A04DB203A21FA02F000217047FB
:1006E00021FA02F3D040C2F120029140084319469A
:1006F0007047202A06DBCB17203A41FA02F043EA82
:10070000E07306E041FA02F3D040C2F120029140CA
:100710000843194670470029A8BF7047401C49008C
:1007200008BF20F00100704710B4B0FA80FC00FA56
:100730000CF050EA010404BF10BC704749B1CCF181
:10074000200421FA04F411FA0CF118BF012121430D
:100750000843A3EB0C01CB1D4FEA00614FEA1020C8
:1007600042BF002010BC704700EBC350104400296A
:10077000A4BF10BC7047401C490008BF20F0010016
:1007800010BC704710B541000CD0C0F3C75196297A
:1007900008DC7E2909DC06DB410204D000F00040C1
:1007A00040F07E5010BD002010BDC1F19604C4F190
:1007B000200100FA01F1E040FFF7ADFFA04010BDBD
:1007C00010B5141E73F1000408DA401C41F1000159
:1007D00092185B411A4301D120F0010010BD2DE9B0
:1007E000F04D92469B4611B1B1FA81F202E0B0FAA7
:1007F00080F220329046FFF75DFF04460F4640EA44
:100800000A0041EA0B0153465A46084313D01146E9
:1008100053EA010019D0C8F140025046FFF759FFD2
:1008200005460E46504659464246FFF743FF0843E9
:1008300005D0012004E020463946BDE8F08D0020B7
:10084000054346EAE0762C4337430A986305E40AF9
:10085000A0EB08000022FD0A44EA47540A3002D502
:1008600000200146E9E7010510196941DDE9084565
:1008700000196941BDE8F04DA2E70000064C074DA4
:1008800006E0E06840F0010394E807009847103460
:10089000AC42F6D3FFF72EFCD06F0008F06F0008D3
:1008A000420005D0C0F3C7525242914201DC002001
:1008B000704700EBC150704770B54FF490615948D4
:1008C00000F022F900286FD05748006807286CD242
:1008D000DFE800F09F0437386C6D050000BF514819
:1008E0003C30006805B25148006804B215F5004F6D
:1008F00001DC4F4806E0B5F5004F02DB47F6FF701C
:1009000000E02846054614F5004F01DC484806E0A3
:10091000B4F5004F02DB47F6FF7000E020460446C6
:10092000A5F5804000B243498886A4F5804001B215
:100930004048C1866842001B00F500403D4988637D
:1009400068E000BF37483C30006805B237480068AF
:1009500004B215F5004F01DC354806E0B5F5004F4F
:1009600002DB47F6FF7000E02846054614F5004F0D
:1009700001DC2F4806E0B4F5004F02DB47F6FF70BC
:1009800000E020460446A5F5804000B2294988864B
:10099000A4F5804001B22748C1866842001B00F5DB
:1009A00000402449886335E03AE032E000BF1D484A
:1009B0003C30006805B21D48006804B215F5004FD0
:1009C00001DC1B4806E0B5F5004F02DB47F6FF707F
:1009D00000E02846054614F5004F01DC144806E007
:1009E000B4F5004F02DB47F6FF7000E020460446F6
:1009F000A5F5804000B20F498886A4F5804001B279
:100A00000C48C1866842001B00F500400949886314
:100A100000E000BF00BF4FF49061024800F017F8FB
:100A200070BD0000002401405C0000203C28014013
:100A30000180FFFF5001002021B1426842F4806232
:100A4000426003E0426822F4806242607047002204
:100A50000A12D3430360704721B1826842F0010259
:100A6000826003E0826822F0010282607047000029
:100A700010B504461248844208D10121401501F006
:100A8000F3F80021601501F0EFF817E00D488442FB
:100A900008D10121001501F0E7F80021201501F02F
:100AA000E3F80BE00848844208D10121C80301F0B3
:100AB000DBF800214FF4004001F0D6F810BD000033
:100AC0000024014000280140003C014021B142685F
:100AD00042F40062426003E0426822F40062426035
:100AE000704721B1826842F40042826003E082686C
:100AF00022F40042826070470A460021816821F496
:100B0000E04111438160704770B502460020002328
:100B100000240B125568CEB205EA060415681D4084
:100B200015B10CB1012000E0002070BD014600208D
:100B30008A6802F008020AB1012000E00020704734
:100B400010B50023CBB21AB144681C43446002E0E4
:100B500044689C43446010BD30B502460020002329
:100B600050680F4C20400D790C6844EA052420435E
:100B7000506090680B4C2040D1E902542C434D79D1
:100B800044EA450420439060D06A20F470000C7C55
:100B9000641EE4B2234340EA0350D06230BD00003B
:100BA000FFFEF0FFFDF7F1FFF0B50446154600200B
:100BB00000220026092911DDE068A1F10A0707EBF0
:100BC000470C072707FA0CF29043A1F10A0707EB3D
:100BD000470703FA07F21043E0600CE0206901EBDD
:100BE000410C072707FA0CF2904301EB410703FA87
:100BF00007F210432061A06BC0F30156EF1C06F111
:100C0000010CA7EB0C0707EB870C1F2707FA0CF268
:100C10009043EF1C06F1010CA7EB0C0707EB8707CD
:100C200001FA07F21043A063F0BD21B1426842F41B
:100C30008052426003E0426822F480524260704772
:100C400010B50A4600210023816B21F44011531E88
:100C500041EA0351816310BD816841F00801816060
:100C6000704708B5002300930090009B0B4400934D
:100C7000009B1A6008BD21B1826842F4A002826024
:100C800003E0826822F4A00282607047816841F02C
:100C9000040181607047000008B501F0B1F801213E
:100CA000042000F0D1FF4FF40040ADF80000102008
:100CB0008DF8030003208DF802006946044800F017
:100CC00013F94FF40041024800F0E4F908BD0000B8
:100CD000000801402DE9F0411C48B0F86C0084B2D6
:100CE00040F68C20844205DA194904F5617051F808
:100CF000200004E0A4F68C20154951F82000064697
:100D0000134850F824501149086E2946FFF762FA3B
:100D100007460E49C86D3146FFF75CFA80463946F2
:100D2000FFF752FA09498860086E3146FFF752FA18
:100D300007460649C86D2946FFF74CFA80463946F2
:100D4000FFF7F0F90149C860BDE8F08150010020CB
:100D50007037000810B54FF4806000F0D3FB01F04D
:100D600063FC00F0A1FA00F041F8002140F6CA004F
:100D700001F0F4FD00F046F8FFF78EFF642000F06C
:100D800064F800F053FC00F00BFD00F076F802F080
:100D900015FC00F0C1FB01200149087010BD0000E6
:100DA0002400002000BFFEE72DE9F0410C48B0F917
:100DB0003410C1630146B1F93420B1F93610022371
:100DC00003FB0120FFF70CFC0646064A064BFFF723
:100DD0008AFB0446FFF73BFC01490864BDE8F0814B
:100DE00050010020912B50E67AB6FB3F10B500244D
:100DF00004E0204600F06AF9601CC4B20A2CF8DB5B
:100E000010BD000008B50121082000F01DFF4FF4BF
:100E10004070ADF8000003208DF8020010208DF81E
:100E200003006946074800F05FF84FF40071054879
:100E300000F030F900F092FF4FF48071014800F0AB
:100E400029F908BD000C0140704710B5044603E0C5
:100E50004FF47A7000F005F8201EA4F10104F7D1D8
:100E600010BD30B5044600F017F9054600BF00F08C
:100E700013F9401BA042FAD330BD08B519208DF8F4
:100E8000000000208DF801008DF8020001208DF88F
:100E90000300684600F0FEFA18208DF800000420D8
:100EA0008DF8010001208DF802008DF803006846DE
:100EB00000F0F0FA12208DF8000002208DF80100F9
:100EC00000208DF8020001208DF80300684600F034
:100ED000E1FA08BD10B50121084600F0C5FE002169
:100EE000012000F0C1FE10BD2DE9F04102460025B1
:100EF0000026002000230024002791F803C00CF0F6
:100F00000F0591F803C00CF0100CBCF1000F03D0DA
:100F100091F802C04CEA050591F800C0BCF1000F41
:100F200031D0146800202BE04FF0010C0CFA00F3D4
:100F3000B1F800C00CEA03069E4220D183004FF0B6
:100F40000F0C0CFA03F7BC4305FA03FC4CEA04044B
:100F500091F803C0BCF1280F06D14FF0010C0CFA38
:100F600000FCC2F814C00AE091F803C0BCF1480FBD
:100F700005D14FF0010C0CFA00FCC2F810C0401C67
:100F80000828D1D31460B1F800C0BCF1FF0F34DDE4
:100F9000546800202EE000F1080C4FF0010808FA18
:100FA0000CF3B1F800C00CEA03069E4221D1830085
:100FB0004FF00F0C0CFA03F7BC4305FA03FC4CEAA4
:100FC000040491F803C0BCF1280F05D100F1080C0E
:100FD00008FA0CF8C2F8148091F803C0BCF1480F6D
:100FE00007D100F1080C4FF0010808FA0CF8C2F81C
:100FF0001080401C0828CED35460BDE8F08100006A
:10100000F0B50A46002300240021002500F0004628
:10101000B6F1004F02D11D4EF16901E01B4E71681F
:10102000C0F3034583B200F44016B6F5401F08D163
:1010300021F07061154E766826F07066134F7E6061
:1010400012E000F48016B6F5801F06D1032606FADA
:1010500005F4A14341F0706106E0460D360103FA44
:1010600006F6B14341F0706122B1460D360103FA34
:1010700006F6314300F00046B6F1004F02D1034EB0
:10108000F16101E0014E7160F0BD0000000001401F
:1010900041617047016170470B4A11684FF0E022CF
:1010A00052694FF0E0239B69D21A64235A434FF0F0
:1010B000E0235B69B2FBF3F201EBC10303EB011325
:1010C00002EB8300704700002C00002070B504463E
:1010D00004EB4400174951F8200004EB4401154A81
:1010E00002EB81014860FFF7D7FF0646FFF773FA6E
:1010F00005461149FFF7A0F804EB44010D4A42F8F8
:10110000210004EB44020B4B03EB8202516804EB19
:10111000440253F82200FFF757F804EB4401054A54
:1011200002EB8101886004EB4400114601EB800072
:10113000806870BDB00000200024744900BFFEE745
:101140002DE9FC5F2949D1F88800FFF73BFA0190AF
:101150002649C86CFFF736FA0090DDE90010FFF76A
:1011600033F881462149D1F890004946FFF732F81B
:1011700007463146FEF7D6FF04461D48006880F05A
:10118000004721463846FFF78BFA04D2184800681A
:1011900080F0004009E0164801682046FFF780FA19
:1011A00002D21348006800E0204605460F48C56596
:1011B00029462046FFF708F880460C49D1F89800E8
:1011C0004146FFF707F882460849D1F8940049469E
:1011D000FFF700F883463146FEF7A4FF0746514665
:1011E000FEF7F2FF0646BDE8FC9F0000500100201C
:1011F0006C0000202DE9FC5F2949D1F88C00FFF735
:10120000E1F901902649086DFFF7DCF90090DDE96E
:101210000010FEF7D9FF81462149D1F89C004946CC
:10122000FEF7D8FF07463146FEF77CFF04461D480F
:10123000006880F0004721463846FFF731FA04D2B3
:101240001848006880F0004009E016480168204610
:10125000FFF726FA02D21348006800E02046054650
:101260000F48056629462046FEF7AEFF80460C492A
:10127000D1F8A4004146FEF7ADFF82460849D1F8F7
:10128000A0004946FEF7A6FF83463146FEF74AFF17
:1012900007465146FEF798FF0646BDE8FC9F000052
:1012A000500100207000002008B50121082000F046
:1012B000CBFC4FF48050ADF8000010208DF80300F7
:1012C00003208DF8020069460148FFF70DFE08BDB6
:1012D000000C01402DE9F84F07460E460025A846B0
:1012E000254800EB471400212068FFF7CFF902D80A
:1012F0003046BDE8F88FA168E069FEF76BFF8246D3
:101300006168A069FEF766FF83463146FEF75FFF1E
:1013100081465146FEF758FF0546284620F0004119
:10132000C1F1FF41C90F49B900BF4FF07F41B1EB97
:10133000400F01D1012100E0002101B13546616972
:10134000E069FEF747FF00902169A069FEF742FFC0
:1013500082462846E168FEF73DFF83465146FEF788
:10136000E1FE81460099FEF7DDFE8046A069E0615E
:10137000A5614046BDE70000040200202DE9F04FC2
:1013800085B006460F46154600200490804603901F
:101390003B4800EB461429463846FEF74DFF0490C3
:1013A00038480499FEF748FF814602F027F9804645
:1013B00041464046FEF70EFF0290334802F040F8E7
:1013C0004FF080410190FEF705FF83464146FEF74E
:1013D00001FF82464FF07E51FEF7A4FE814602993E
:1013E000FEF7A0FE0390256000212068FFF758F962
:1013F00042D241464046FEF7EDFE81460399FEF794
:101400001BFFE0604FF08040E168FEF7E3FE2061E3
:10141000E068606141464046FEF7DCFE83464FF0DF
:101420007E51FEF7D1FE81464FF08041FEF7D2FE9D
:1014300082460399FEF700FF606041464046FEF792
:10144000C9FE0290104801F0FBFF4FF08041009070
:10145000FEF7C0FE41460190FEF7BCFE83464FF00A
:101460007E51FEF7B4FE82460299FEF75BFE81468E
:101470000399FEF7E1FEA06005B0BDE8F08F000023
:1014800004020020DA0F4940DA0F493F00BFFEE7AF
:101490007047000070B5002100230F22C47804B308
:1014A000154C246804F4E064C4F5E064210AC1F139
:1014B0000403CA40447804FA03F1847814402143B9
:1014C00009010E4C0678A155047804F01F0501248B
:1014D000AC4005786D11AD0005F1E025C5F800417F
:1014E00009E0047804F01F050124AC40044D06789F
:1014F000761145F8264070BD0CED00E000E400E0F8
:1015000080E100E002490143024A11607047000097
:101510000000FA050CED00E00F4810490860104982
:10152000086000200F49C1F8900000210D48C0F864
:101530009410C0F89810C0F89C10C0F8A010C0F823
:10154000A41000200749C1F888004FF4FA6105484B
:10155000C0F88C1070470000000050416C00002063
:1015600070000020500100202DE9F0472C48B0F811
:101570006C0084B240F68C20844205DA294904F5D7
:10158000617051F8200004E0A4F68C20254951F840
:1015900020000646234850F824502149086CFFF7E4
:1015A00011F881462946FEF715FE07461C49C86B0F
:1015B000FFF708F881463146FEF70CFE80463946B3
:1015C000FEF7B0FD16490867C86BFEF7FBFF8146C2
:1015D0002946FEF7FFFD07461149086CFEF7F2FFAA
:1015E00081463146FEF7F6FD80463946FEF7ECFDB2
:1015F0000B4948670846016F0020FFF76BFE07465E
:10160000FFF70CF80649C8640846416F0120FFF750
:1016100061FE0746FFF702F801490865BDE8F0875B
:1016200050010020703700087047000000B587B0F7
:101630000121480200F008FB0121880200F004FBB0
:101640000121042000F000FB4FF4004000F0D0FA2C
:101650007020ADF8040000208DF8070001A94D4866
:10166000FFF742FC4C48FFF703FA4FF4A02002902A
:1016700001208DF80C008DF80D004FF460200490CF
:101680004FF40060059001208DF8180000214248B9
:10169000FFF71CFA02A94048FFF75EFA3F48FFF740
:1016A000E7F901208DF80C0000208DF80D004FF4B3
:1016B000602004904FF40060059001208DF8180020
:1016C00000213648FFF702FA02A93448FFF744FA2E
:1016D00000213148FFF7B0F900212F48FFF7A5FAA4
:1016E000002214212C48FFF7BCFA002218212A48B6
:1016F000FFF7B7FA00221C212748FFF7B2FA4FF490
:1017000080512548FFF7F8F903212348FFF798FA9D
:101710000323012206212048FFF746FA0323022271
:1017200005211D48FFF740FA03231A4604211A48F1
:10173000FFF73AFA00211948FFF77EF90021174810
:10174000FFF773FA002214211448FFF78AFA0022E7
:1017500018211248FFF785FA00221C210F48FFF7D5
:1017600080FA03210D48FFF76BFA032301220621BB
:101770000A48FFF719FA0323022205210748FFF759
:1017800013FA03231A4604210448FFF70DFA07B0A1
:1017900000BD000000080140002401400028014075
:1017A00010B501224FF490611F48FFF7C9F90121DC
:1017B0001D48FFF796F901211C48FFF792F9012116
:1017C0001948FFF749F901211848FFF745F916486C
:1017D000FFF742FA1548FFF73FFA00BF1248FFF73C
:1017E000A5F90028FAD100BF1048FFF79FF900289B
:1017F000FAD101210C48FFF73EFA01210B48FFF70F
:101800003AFA0948FFF742FA0848FFF73FFA00BFE3
:101810000548FFF78BF90028FAD10448FFF786F94D
:101820000028F5D110BD000000240140002801402F
:1018300070B5002400250021214801F023FC214837
:10184000008840F6CA01081A6F2809DD4C1E4FF4C3
:1018500000301D4908604FF420301C4908602BE01F
:101860001848008817494988401A85B215480088E9
:1018700040F6CA01081AB5EB400F04D91148008898
:10188000D03884B210E00F4800886F3084B240F640
:10189000CA00844208DB0221094801F0F3FB41F24F
:1018A0009410001B401E84B24FF42030064908609B
:1018B0004FF440300549086001484030048070BD55
:1018C000002C0140500100203824014038280140FC
:1018D00070B5002400250021214801F0D3FB2148E8
:1018E000408840F6CA01081A6F2809DD4C1E4FF4E3
:1018F00000301D4908604FF420301C4908602BE07F
:101900001848408817490988401A85B21548408808
:1019100040F6CA01081AB5EB400F04D911484088B7
:10192000D03884B210E00F4840886F3084B240F65F
:10193000CA00844208DB0221094801F0A3FB41F2FE
:101940009410001B401E84B24FF40030064908601A
:101950004FF440300549086001484030048070BDB4
:10196000002C01405001002038240140382801405B
:1019700070B5002400250021214801F083FB214897
:10198000408840F6CA01081A6F2809DD4C1E4FF442
:1019900000301D4908604FF420301C4908602BE0DE
:1019A0001848408817498988401A85B215484088E8
:1019B00040F6CA01081AB5EB400F04D91148408817
:1019C000D03884B210E00F4840886F3084B240F6BF
:1019D000CA00844208DB0221094801F053FB41F2AE
:1019E0009410001B401E84B24FF40030064908607A
:1019F0004FF440300549086001484030048070BD14
:101A0000002C0140500100203824014038280140BA
:101A100070B5002400250021214801F033FB214846
:101A2000808840F6CA01081A6F2809DD4C1E4FF461
:101A300000301D4908604FF420301C4908602BE03D
:101A40001848808817494988401A85B21548808807
:101A500040F6CA01081AB5EB400F04D91148808836
:101A6000D03884B210E00F4880886F3084B240F6DE
:101A7000CA00844208DB0221094801F003FB41F25D
:101A80009410001B401E84B24FF4003006490860D9
:101A90004FF420300549086001484030048070BD93
:101AA000002C01405001002038240140382801401A
:101AB00070B5002400250021214801F0E3FA2148F7
:101AC000808840F6CA01081A6F2809DD4C1E4FF4C1
:101AD00000301D4908604FF420301C4908602BE09D
:101AE0001848808817490988401A85B215488088A7
:101AF00040F6CA01081AB5EB400F04D91148808896
:101B0000D03884B210E00F4880886F3084B240F63D
:101B1000CA00844208DB0221094801F0B3FA41F20D
:101B20009410001B401E84B24FF400300649086038
:101B30004FF420300549086001484030048070BDF2
:101B4000002C014050010020382401403828014079
:101B500070B5002400250021214801F093FA2148A6
:101B6000008840F6CA01081A6F2809DD4C1E4FF4A0
:101B700000301D4908604FF420301C4908602BE0FC
:101B80001848008817498988401A85B21548008886
:101B900040F6CA01081AB5EB400F04D91148008875
:101BA000D03884B210E00F4800886F3084B240F61D
:101BB000CA00844208DB0221094801F063FA41F2BD
:101BC0009410001B401E84B24FF420300649086078
:101BD0004FF440300549086001484030048070BD32
:101BE000002C0140500100203824014038280140D9
:101BF00001460020034A506820F4404008435060EA
:101C0000704700000010024029B1064AD269024321
:101C1000044BDA6104E0034AD2698243014BDA6182
:101C2000704700000010024029B1064A12690243C1
:101C3000044B1A6104E0034A12698243014B1A61A2
:101C4000704700000010024029B1064A9269024321
:101C5000044B9A6104E0034A92698243014B9A6102
:101C6000704700000010024029B1064AD2680243C2
:101C7000044BDA6004E0034AD2688243014BDA6025
:101C8000704700000010024030B5002100220024FF
:101C900000232D4D6D6805F00C0121B1042905D0FC
:101CA000082923D105E0294D056022E0274D056074
:101CB0001FE0254D6D6805F47012234D6D6805F425
:101CC0008034022505EB92421CB9214D5543056035
:101CD0000BE01D4D6D6805F400351DB11C4D5543DD
:101CE000056002E0194D5543056002E0174D05609F
:101CF00000BF00BF144D6D6805F0F0010909154DD6
:101D00006B5C0568DD4045600F4D6D6805F4E06172
:101D1000090A104D6B5C4568DD4085600A4D6D68B1
:101D200005F46051C90A0B4D6B5C4568DD40C56028
:101D3000054D6D6805F44041890B074D6B5CC56826
:101D4000B5FBF3F5056130BD0010024000127A00CA
:101D500000093D00740000208400002000B587B019
:101D6000012141F20D00FFF76FFF01212148FFF72C
:101D700047F901210846FFF743F93820ADF818006C
:101D800003208DF81A0018208DF81B0006A91A48A8
:101D9000FFF7AAF801210803FFF766FF00214FF4BF
:101DA0008050FFF761FF0020ADF804004FF482700F
:101DB000ADF806004FF40060ADF808000020ADF863
:101DC0000A000120ADF80C004002ADF80E002820FA
:101DD000ADF810000020ADF812000720ADF8140097
:101DE00001A9064800F084F80121044800F066F8D3
:101DF00007B000BD00023000000C0140003001407F
:101E000000B587B001210920FFF71EFF01218803DB
:101E1000FFF7FAFE4FF46040ADF8180003208DF88C
:101E20001A0018208DF81B0006A91548FFF75CF86A
:101E30000020ADF804004FF48270ADF806004FF4B6
:101E40000060ADF808000020ADF80A000120ADF8F0
:101E50000C004002ADF80E003020ADF8100000205C
:101E6000ADF812000720ADF8140001A9054800F0F4
:101E70003FF80121034800F021F807B000BD000041
:101E8000000C01400038004010B5044600BF02219C
:101E9000094800F01FF80028F9D02146064800F054
:101EA00025F800BF0121044800F014F80028F9D0FB
:101EB000014800F018F810BD0038004021B1028838
:101EC00042F04002028004E002884FF6BF731A40DD
:101ED000028070470246002013890B400BB101209D
:101EE00000E0002070470146888970478181704773
:101EF00010B50022028802F441520B884C8823431B
:101F00008C882343CC8823430C8923434C89234367
:101F10008C892343CC8923431A430280838B4FF25D
:101F2000FF74234083830B8A038210BD704710B572
:101F300000F002F810BD00000CB5002001900090E8
:101F40003348006840F480303149086000BF3048B1
:101F5000006800F4003000900198401C0190009847
:101F600018B90198B0F5A06FF1D12948006800F4C4
:101F7000003010B10120009001E000200090009896
:101F8000012843D12348006840F01000214908602F
:101F90000846006820F0030008600846006840F02A
:101FA000020008601A4840681949486008464068BD
:101FB00048600846406840F48060486008464068D1
:101FC00020F47C1048600846406840F4E8104860FF
:101FD0000846006840F08070086000BF0C48006848
:101FE00000F000700028F9D00948406820F0030094
:101FF000074948600846406840F00200486000BF5A
:102000000348406800F00C000828F9D10CBD00001E
:1020100000100240002002402DE9F04F85B000275B
:10202000FA4EFB480190FB498868FB49FEF7D2F85D
:102030008046FEF7F3FAF9490860F649C868F649A0
:10204000FEF7C8F88046FEF7E9FAF5490860F1495D
:10205000C868FEF7E3FAEF490861C8684FF08041AD
:10206000FEF7EAF88246EB4881683046FEF7B2F8A0
:1020700083464FF08041FEF7DFF881465146FEF778
:10208000A3F88046FEF7CAFAE2494861C8684FF0F3
:102090008041FEF7D1F886F0004B0090DD48816862
:1020A0005846FEF797F882464FF08041FEF7C4F895
:1020B00081460099FEF788F88046FEF7AFFAD549C9
:1020C000886108460069002801DD012000E0002049
:1020D0000490D0484069002801DD012000E0002084
:1020E0000390CC488069002801DD012000E0002039
:1020F0000290029881000222039802FB00110498CA
:102100000844C7B2C3490869FEF75CFA8346314602
:10211000FEF760F882460199FEF78EF88146C149C4
:10212000FEF758F88046FEF779FABA49086148691F
:10213000FEF748FA83463146FEF74CF8824601998D
:10214000FEF77AF88146B749FEF744F88046FEF775
:1021500065FAB04948618869FEF734FA834631462A
:10216000FEF738F882460199FEF766F88146AD49D8
:10217000FEF730F88046FEF751FAA6498861072F2E
:102180007AD2DFE807F0040B549EE4FBFA0040F239
:102190006541A0488162C1620163C3E19D48406915
:1021A00044429C488069454260199F49086008463E
:1021B000006840F6CA01884206DD084660439A4935
:1021C000096890FBF1F000E020460446964800685C
:1021D00040F6CA01884206DD08466843924909680C
:1021E00090FBF1F000E02846054640F6CA01091BC5
:1021F000481BC11700EB91718A108649CA622046BC
:1022000004EBD0714A108349C96A0A4481498A6241
:10221000284605EBD0714A107E49896A0A447D49F7
:102220000A63022081490860FFF752FB7AE179488E
:102230008069444277480069454260197A490860DC
:102240000846006840F6CA01884206DD0846604339
:102250007549096890FBF1F000E020460446724899
:10226000006840F6CA01884207DD084668436E49A7
:10227000096890FBF1F001E053E12846054640F67D
:10228000CA01091B481BC11700EB91718A106149F3
:102290008A62204604EBD0714A105E49896A0A447A
:1022A0005C490A63284605EBD0714A105949096B0D
:1022B0000A445849CA6206205C490860FFF748FC96
:1022C00030E1544844690569601957490860084677
:1022D000006840F6CA01884206DD0846604352495C
:1022E000096890FBF1F000E0204604464E48006883
:1022F00040F6CA01884206DD084668434A49096833
:1023000090FBF1F000E02846054640F6CA01091BA3
:10231000481BC11700EB91718A103E498A62204622
:1023200004EBD0714A103B49896A0A443949CA62B0
:10233000284605EBD0714A103649C96A0A44354926
:102340000A63012039490860FFF772FAEAE0314870
:10235000006944422F48406945426019324908608B
:102360000846006840F6CA01884208DD0846604316
:102370002D49096890FBF1F002E08CE032E0204644
:1023800004462948006840F6CA01884206DD08462E
:1023900068432549096890FBF1F000E028460546AE
:1023A00040F6CA01091B481BC11700EB91718A1046
:1023B00018490A63204604EBD0714A101549096B8D
:1023C0000A441449CA62284605EBD0714A101149E3
:1023D000C96A0A440F498A62042014490860FFF759
:1023E00017FB9FE00B480469856960190E49086076
:1023F0000846006840F6CA01884219DD0846604375
:102400000949096890FBF1F013E00000D7B3DD3F04
:102410000000C041500100200000C84254000020CC
:102420005800002000A00C45640000205C00002043
:10243000204604466B48006840F6CA01884206DD23
:10244000084668436749096890FBF1F000E02846B8
:10245000054640F6CA01091B481BC11700EB9171E4
:102460008A106149CA62204604EBD0714A105E4965
:10247000C96A0A445C490A63284605EBD0714A10D0
:102480005949096B0A4458498A6203205749086030
:10249000FFF76EFA46E0544884694569601951496E
:1024A00008600846006840F6CA01884206DD084612
:1024B00060434C49096890FBF1F000E02046044677
:1024C0004848006840F6CA01884206DD084668436D
:1024D0004449096890FBF1F000E02846054640F6C3
:1024E000CA01091B481BC11700EB91718A103E49B4
:1024F0000A63204604EBD0714A103B49096B0A4439
:1025000039498A62284605EBD0714A103649896AF2
:102510000A443549CA62052034490860FFF7C8FA01
:1025200000E000BF00BF3048806A40F6CA010222C6
:1025300002FB10102C4908800846C06A40F6CA0108
:1025400002FB1010284948800846006B40F6CA017B
:1025500002FB1010244988802CB925B940F6CA0026
:102560000880488088802048008840F6CA01884258
:1025700001DD084601E01C4800881B490880084628
:10258000408840F6CA01884201DD084601E016484D
:102590004088154948800846808840F6CA0188422C
:1025A00001DD084601E0104880880F498880084610
:1025B00000880F4908600C4840880E4908600A48A6
:1025C00080880D490860084800880C490880064842
:1025D0004088091D088004488088091D088005B0CE
:1025E000BDE8F08F64000020500100205C00002056
:1025F000480000204C00002050000020342C0140F6
:10260000042808D14FF0E021096941F004014FF09E
:10261000E022116107E04FF0E021096921F0040197
:102620004FF0E0221161704770B51948FFF72CFB9D
:102630001748406842F21071B0FBF1F4E4082146FB
:10264000B1F1807F00D31DE021F07F40401E4FF0AC
:10265000E022506150170F22002807DA13071E0EE0
:102660000C4B00F00F052D1F5E5503E013071D0EE8
:10267000094B1D5400BF00204FF0E022906107205D
:10268000106100BF6FF00400FFF7BAFF70BD0000DB
:102690009C00002018ED00E000E400E010B51448B4
:1026A0000068401C1249086012480088401C11490B
:1026B000088008464088401C488008468088401CA6
:1026C00088800846C088401CC88008460089401C95
:1026D000088108464089401C488108468089401C82
:1026E00088810548007810B1084600F037F810BD21
:1026F0002C0000208C0000202400002010B513487E
:10270000006840F00100114908600846406810491F
:1027100008400E494860084600680E4908400B49C9
:1027200008600846006820F4802008600846406879
:1027300020F4FE0048604FF41F008860FFF7F7FBAD
:102740004FF000600449086010BD00000010024016
:102750000000FFF8FFFFF6FE08ED00E010B50446AC
:102760002088012803DB00F02FF8002020806088FB
:102770000A2803DB00F088F800206080A088142875
:1027800003DB00F0E3F80020A080E088322803DBC0
:1027900000F08AF80020E0802089642803DB00F044
:1027A0007DF8002020816089C82803DB00F0D4F880
:1027B00000206081A089B0F5FA7F03DB00F0B0F85B
:1027C0000020A08110BD00002DE9F84F0220FEF787
:1027D0007DFC009000F01AFE23490888FDF711FFE8
:1027E0008046224A224BFDF77EFE06460022214B00
:1027F000FDF707FE044600221F4BFDF75BFD8246F6
:10280000FDF725FF4FF4B47190FBF1F201FB1200CC
:102810001A4908600846006800EB800018490968FA
:1028200001EB40011748C166C06EB0F5616F06DB71
:102830001448C06EA0F60F601249C86609E011483E
:10284000C06E002805DA0F48C06E00F60F600D4913
:10285000C866FEF7A9FAFEF787FEFEF73BFAFFF718
:10286000DBFBBDE8F88F000028010020922449928C
:102870002449924000807640000058400400002027
:10288000080000205001002010B50120FEF71EFCBA
:102890000446FEF755FCFEF7ADFC10BD10B5022056
:1028A000FEF714FC044610BD10B500F067FD174894
:1028B0000069002802DD1548006902E0134800693C
:1028C0004042282809DA1248007830B911480068D7
:1028D0001149086001200E4908700C480069002861
:1028E00002DD0A48006902E00848006940422828E1
:1028F0000ADD07480078012806D106480068074924
:10290000086000200249087010BD00002801002066
:102910002000002008000020180000201C000020DB
:1029200008480078401CC0B2064908700A2807DD34
:10293000002008700448006880F480500249086054
:1029400070470000210000200C0C014010B5002051
:10295000FEF7BCFB044610BD7047000030B58DB0DB
:1029600005460C4601210C20FFF76EF9012140F6C7
:102970000100FFF769F94FF4F060ADF83000032073
:102980008DF8320018208DF833000CA95D48FEF751
:10299000ABFA0320ADF830008DF8320018208DF826
:1029A00033000CA95848FEF79FFAFEF793FA01216D
:1029B0005648FEF725FB564800F006F9ADF82850BA
:1029C000ADF824400020ADF82A002020ADF8260004
:1029D00001208DF82C0001214D4800F0BBF809A919
:1029E0004B4800F08DFB0621494800F080FB102188
:1029F000474800F061FB7021454800F06FFB002163
:102A0000434800F062FB0020ADF820006020ADF8E4
:102A100014000020ADF82200ADF81E00ADF81C0037
:102A20000120ADF816000420ADF818000020ADF824
:102A30001A0005A9364800F0D7F905A9344800F076
:102A400029FA05A9324800F085FA7020ADF8140083
:102A500040F62B00ADF81A0005A92D4800F0D4FA75
:102A600008212B4800F00CFA0821294800F064FAEC
:102A70000821274800F0BEFA0821254800F00FFB86
:102A80000020ADF81000ADF80C00ADF80E001C20D1
:102A9000ADF80A004FF48070ADF808008000ADF882
:102AA00006004000ADF8040001A9194800F05EF8E6
:102AB00001221021164800F08EF901221146144817
:102AC00000F089F901228021114800F084F9702179
:102AD0000F4800F003FB20210D4800F0FFFA012110
:102AE0000B4800F062F81021094800F061F901215B
:102AF000074800F05DF90121054800F04AF80DB0E3
:102B000030BD000000080140000C014040001600EC
:102B1000002C014010B501210D4800F04BF918B10F
:102B200001210B4800F032F81021094800F042F969
:102B300018B11021064800F029F88021044800F05F
:102B400039F918B18021024800F020F810BD0000CA
:102B5000002C014021B1028842F08002028004E092
:102B600002884FF67F731A40028070470A884B88AC
:102B70001A438B881A43CB881A430B891A434B8913
:102B80001A438B891A43A0F844207047CA43028233
:102B9000704721B1028842F00102028004E00288FD
:102BA0004FF6FE731A400280704731B1B0F84420EE
:102BB00042F40042A0F8442005E0B0F84420C2F3FB
:102BC0000E02A0F84420704710B5044668488442BD
:102BD00008D10121C014FFF747F80021E014FFF7E6
:102BE00043F8C4E0B4F1804F08D101210846FFF753
:102BF0001BF800210120FFF717F8B8E05D48844278
:102C000008D101210220FFF70FF800210220FFF771
:102C10000BF8ACE05848844208D101210420FFF7AA
:102C200003F800210420FEF7FFFFA0E05348844290
:102C300008D101210820FEF7F7FF00210820FEF748
:102C4000F3FF94E04E48844208D101211020FEF7A2
:102C5000EBFF00211020FEF7E7FF88E0494884429F
:102C600008D101212020FEF7DFFF00212020FEF700
:102C7000DBFF7CE04448844208D101214014FEF788
:102C8000F3FF00216014FEF7EFFF70E03F4884423D
:102C900009D10121C804FEF7E7FF00214FF400200D
:102CA000FEF7E2FF63E03A48844209D101210805BA
:102CB000FEF7DAFF00214FF48010FEF7D5FF56E053
:102CC0003448844209D101214805FEF7CDFF002197
:102CD0004FF40010FEF7C8FF49E02F48844208D1A6
:102CE00001214020FEF7A0FF00214020FEF79CFFBD
:102CF0003DE02A48844208D101218020FEF794FF5C
:102D000000218020FEF790FF31E02548844208D161
:102D100001218015FEF788FF0021A015FEF784FF32
:102D200025E02048844209D101210804FEF79CFFD8
:102D300000214FF48030FEF797FF18E01A488442D4
:102D400009D101214804FEF78FFF00214FF4003024
:102D5000FEF78AFF0BE01548844208D10121880460
:102D6000FEF782FF00214FF48020FEF77DFF10BDAB
:102D7000002C01400004004000080040000C00400E
:102D8000001000400014004000340140004C01409D
:102D9000005001400054014000180040001C004059
:102DA0000020004000400140004401400048014034
:102DB0008182704730B50246002000230024158A26
:102DC00005EA0103958905EA010413B10CB101205C
:102DD00000E0002030BD1AB183890B43838102E0FB
:102DE00083898B438381704770B5002400220023C0
:102DF000058C4FF6FE7635400584028C8388048B63
:102E00004FF68F752C40B51E2C400D882C43751E37
:102E10002A400D892A434D882A43144DA8420BD0DD
:102E2000134DA84208D0134DA84205D0124DA84218
:102E300002D0124DA84213D14FF6F7752A404D89A2
:102E40002A434FF6FB752A408D882A434FF6FF65CB
:102E50002B404FF6FF552B408D892B43CD892B43BB
:102E600083800483CD888586028470BD002C014058
:102E7000003401400040014000440140004801404E
:102E80000A460021018B4FF6F77319401143018365
:102E90007047000070B5002400220023058C4FF617
:102EA000EF7635400584028C8388048B48F6FF75E5
:102EB0002C404FF6FF452C400D884FF6FF7606EA72
:102EC00005252C434FF6DF752A400D8906EA0515C6
:102ED0002A434D8806EA05152A43154DA84202D01B
:102EE000144DA8421DD14FF67F752A404D894FF6EB
:102EF000FF7606EA05152A434FF6BF752A408D88EE
:102F000006EA05152A434FF6FF352B404FF2FF75B1
:102F10002B408D8906EA85052B43CD8906EA850578
:102F20002B4383800483CD880587028470BD000015
:102F3000002C0140003401400A460021018B4FF271
:102F4000FF7319404FF6FF7303EA0223194301830D
:102F50007047000070B5002400220023058C4FF656
:102F6000FF6635400584028C8388848B4FF68F750D
:102F70002C404FF6FC752C400D882C434FF6FF5526
:102F80002A400D894FF6FF7606EA05252A434D882B
:102F900006EA05252A43154DA84202D0144DA84241
:102FA0001DD14FF2FF752A404D894FF6FF7606EA94
:102FB00005252A434FF6FF352A408D8806EA052568
:102FC0002A434EF6FF752B404DF6FF752B408D8939
:102FD00006EA05152B43CD8906EA05152B438380A8
:102FE0008483CD888587028470BD0000002C014059
:102FF000003401400A460021818B4FF6F7731940D7
:10300000114381837047000070B500220023002423
:10301000058C4EF6FF7635400584038C8488828BC0
:1030200048F6FF752A404FF6FF452A400D884FF6B7
:10303000FF7606EA05252A434DF6FF752B400D89DC
:1030400006EA05352B434D8806EA05352B430B4D23
:10305000A84202D00A4DA84208D14BF6FF752C4079
:103060008D894FF6FF7606EA85152C43848082838E
:10307000CD88A0F84050038470BD0000002C0140B2
:10308000003401400A460021018C4DF6FF731940BF
:103090004FF6FF7303EA02331943018470470A466F
:1030A0000021818B4FF2FF7319404FF6FF7303EA43
:1030B00002231943818370470A46002101894FF694
:1030C0008F73194011430181704702894FF67F7356
:1030D0001A40028102890A430281704782884FF6B2
:1030E0008F731A40828082880A43828070470289E7
:1030F0004FF6F8731A40028102890A430281704731
:10310000002202881D4B98420ED01D4B98420BD0D6
:10311000B0F1804F08D01B4B984205D01A4B984213
:1031200002D01A4B984204D14FF68F731A404B8845
:103130001A43174B984207D0164B984204D04FF6CB
:10314000FF431A40CB881A4302808B8883850B8803
:1031500003850A4B98420BD0094B984208D00E4B7E
:10316000984205D00D4B984202D00D4B984201D1A8
:103170000B7A03860123838270470000002C0140F4
:10318000003401400004004000080040000C0040F2
:103190000010004000140040004001400044014085
:1031A0000048014000BFFEE74100080218BF0420AC
:1031B0000A0E18BF40F001004FF07F4232EA0101D1
:1031C00008BF40F00200012808BF05207047012118
:1031D000FDF766BB00210846FDF72EB86FF05E01D3
:1031E0000807FDF75DBB00002DE9F04D0D461446C4
:1031F0004FF07F41B1EB440F9EBF4FF0FF3129608C
:10320000BDE8F08D4FF0004040EA0421C4F3C75000
:10321000783810F01F024A4B4FEA601CC2F12006BA
:103220007B44C4F3C750A0F178004FEA601003EB71
:10323000800053F82C3008BFD0E901C612D0D0F876
:1032400004C093402CFA06F73B4387680CFA02FC53
:1032500027FA06F8C06807FA02F2F0404CEA080CB8
:1032600042EA0006A3FB0132ACFB01C0A6FB0161F0
:1032700001EB0C068E4234BF4FF0010C4FF0000CF6
:10328000C1186144BCF1000F02D0814202D903E0B1
:10329000814201D2012000E00020104400F1200210
:1032A0004FEA92188006CA0C40EA42304F03C5F834
:1032B0000080FDF787F982463846FDF78CF96FF0FC
:1032C0001201FDF7EDFA07463046FDF784F96FF07D
:1032D0002501FDF7E5FA834639465046FCF722FF03
:1032E0005946FCF71FFF00F500666FF30B065146C9
:1032F0003046FCF769FF3946FCF766FF5946FCF794
:1033000066FF1049FCF766FF07460F493046FCF799
:1033100061FF3946FCF706FF07460C493046FCF7CB
:1033200059FF3946FCF7FEFE14F0004F08BFBDE818
:10333000F08DC8F1805180F000402960BDE8F08D2B
:103340008C3D0000DB0FC92F22AAFD290000C92FE8
:1033500002E008C8121F08C1002AFAD1704770475E
:10336000002001E001C1121F002AFBD170470000BC
:103370000149086070470000880000201F4800884D
:103380001F4908601F48007830B9084600681E4988
:10339000086001201B490870194800681A4909682B
:1033A000401A10F5005F0ADA1548006816490968E6
:1033B000401A43F6FF7108441049086119E01048AB
:1033C000006811490968401AB0F5005F0ADD0C4831
:1033D00000680D490968401AA0F57C50FF3807497C
:1033E000086106E00648006807490968401A034971
:1033F00008610348006804490860704728010020FC
:1034000038000020400000203C00002010B54FF4A0
:1034100000410948FDF73CFE4FF6FF70FEF734FD12
:10342000C0F30D00054908804FF400410248FDF744
:1034300031FE012010BD00000008014028010020DD
:103440002DE9F843044602464F486946B0EB420F67
:1034500009D94FF0E640B0EB420F94BF00204FF087
:10346000FF30009030E0494B22F00040834271D998
:1034700047492046FCF7AEFEFDF784F98046FDF78C
:10348000CDF800F00300009042494046FCF7A2FE50
:10349000054641494046FCF79DFE06463F494046E9
:1034A000FCF798FE07463E494046FCF793FE21464E
:1034B000FCF78DFE3946FCF787FE3146FCF784FEAB
:1034C0002946FCF781FE04462546009C002C45DB7E
:1034D000294614F0010F08461CD0FCF77BFE064677
:1034E0003049FCF777FE3049FCF771FE3146FCF7B6
:1034F00071FE2E49FCF716FE3146FCF76BFE29469D
:10350000FCF768FE2946FCF70DFE14F0020F1CD0F4
:10351000BDE8F883FCF75EFE05462549FCF75AFE38
:103520002449FCF7FFFD2946FCF754FE2249FCF72D
:10353000F9FD2946FCF74EFE4FF07E51FCF7F2FDF7
:1035400014F0020F08BFBDE8F88380F00040BDE82A
:10355000F883FFE71046FFF747FEB4E76800B0F1D5
:103560007F4F3CBF4FF07E50BDE8F88307D14FF04E
:103570000100FFF7FDFEBDE8F843FFF72BBE28462C
:10358000BDE8F843FFF723BEB61F927E490E4946B9
:1035900083F9223F1A61342C0020A23300A0FD39A8
:1035A0000000C93F336D4C39DA82083CA0AA2ABE1C
:1035B000B93AB2BACA9F2A3DDDFFFFBE10B54FF03F
:1035C0007E5208490020FDF7D9FE4FF0804206499F
:1035D0000120FDF7D3FE054A05490220FDF7CEFE86
:1035E00010BD000000409C450000FA440000A040CF
:1035F00000004843FDF7AEFB00BFFEE72DE9F843AE
:10360000044602464C486946B0EB420F09D94FF0D8
:10361000E640B0EB420F94BF00204FF0FF30009027
:1036200030E0464B22F00040834265D944492046B1
:10363000FCF7D0FDFDF7A6F88046FCF7EFFF00F0A1
:10364000030000903F494046FCF7C4FD05463E4953
:103650004046FCF7BFFD06463C494046FCF7BAFD34
:1036600007463B494046FCF7B5FD2146FCF7AFFD58
:103670003946FCF7A9FD3146FCF7A6FD2946FCF7C3
:10368000A3FD0446009D002D3ADB21460846FCF7C9
:10369000A1FD06462F49FCF79DFD2F49FCF742FD91
:1036A0003146FCF797FD2D49FCF73CFD3146FCF710
:1036B00091FD2B49FCF736FD3146FCF78BFD29497E
:1036C000FCF730FD3146FCF785FD2749FCF72AFD64
:1036D0003146FCF77FFD2146FCF77CFD2146FCF7D7
:1036E00021FD15F0010F08BFBDE8F8830146BDE8D4
:1036F000F8431E48FCF7A0BD1046FFF775FDC0E774
:103700006000B0F17F4F09D22046FFF74DFD04283D
:1037100008BFFFF763FD2046BDE8F88306D101200E
:10372000FFF726FEBDE8F843FFF754BD2046BDE88D
:10373000F843FFF74CBD0000B61F927E490E494684
:1037400083F9223F1A61342C0020A23300A0FD39F6
:103750000000C93FBBE9223C0C6D063B8A76CE3C9B
:10376000ACB5593D35A1083E29AAAA3E000080BF4C
:10377000000000007DC3E43A68C3643B7392AB3B36
:103780000EC3E43BBEF90E3CD8912B3CD129483CFA
:10379000A1C1643CA2AC803C59F88E3CF4439D3CF2
:1037A000708FAB3CC9DAB93CFE25C83C0A71D63CE7
:1037B000EBBBE43C9F06F33C91A8003DB9CD073D2F
:1037C000C6F20E3DB617163D893C1D3D3C61243DB9
:1037D000CE852B3D3EAA323D8ACE393DB1F2403DE9
:1037E000B216483D8B3A4F3D3A5E563DBF815D3D36
:1037F00017A5643D42C86B3D3DEB723D080E7A3D16
:103800005198803D8429843D9CBA873D9A4B8B3DDD
:103810007BDC8E3D406D923DE8FD953D728E993D7D
:10382000DD1E9D3D29AFA03D553FA43D60CFA73D86
:103830004A5FAB3D11EFAE3DB67EB23D360EB63DB2
:10384000939DB93DCA2CBD3DDCBBC03DC74AC43DBC
:103850008BD9C73D2768CB3D9AF6CE3DE584D23D56
:103860000513D63DFAA0D93DC42EDD3D62BCE03D36
:10387000D349E43D16D7E73D2B64EB3D11F1EE3D16
:10388000C77DF23D4D0AF63DA296F93DC522FD3DAC
:103890005B57003E391D023EFEE2033EA8A8053EEE
:1038A000386E073EAD33093E06F90A3E43BE0C3E74
:1038B00065830E3E6948103E520D123E1DD2133EE6
:1038C000CA96153E5A5B173ECB1F193E1EE41A3EA0
:1038D00052A81C3E666C1E3E5B30203E30F4213EFA
:1038E000E5B7233E797B253EEC3E273E3D02293E4F
:1038F0006DC52A3E7B882C3E664B2E3E2E0E303EFA
:10390000D4D0313E5693333EB455353EED17373E55
:1039100003DA383EF39B3A3EBE5D3C3E631F3E3EBB
:10392000E3E03F3E3CA2413E6F63433E7A24453E86
:103930005EE5463E1BA6483EAF664A3E1B274C3E10
:103940005FE74D3E79A74F3E6967513E3027533EB2
:10395000CDE6543E3FA6563E8765583EA3245A3EC8
:1039600094E35B3E58A25D3EF1605F3E5D1F613EA9
:103970009CDD623EAD9B643E9159663E4817683EB1
:10398000CFD4693E28926B3E524F6D3E4D0C6F3E38
:1039900018C9703EB385723E1D42743E57FE753E97
:1039A0005FBA773E3676793EDC317B3E4FED7C3E2A
:1039B00090A87E3ECF31803E3C0F813E90EC813E10
:1039C000C9C9823EE9A6833EEE83843ED960853E26
:1039D000A93D863E5E1A873EF9F6873E78D3883E3B
:1039E000DCAF893E248C8A3E51688B3E62448C3E1B
:1039F00057208D3E30FC8D3EECD78E3E8CB38F3EF3
:103A00000F8F903E756A913EBF45923EEB20933EEC
:103A1000FAFB933EEBD6943EBEB1953E748C963E37
:103A20000B67973E8541983EE01B993E1CF6993EF8
:103A30003AD09A3E39AA9B3E18849C3ED95D9D3E61
:103A40007A379E3EFB109F3E5DEA9F3E9EC3A03E9E
:103A5000C09CA13EC175A23EA24EA33E6327A43ED8
:103A60000200A53E81D8A53EDEB0A63E1B89A73E3A
:103A70003561A83E2F39A93E0611AA3EBBE8AA3EF1
:103A80004FC0AB3EC097AC3E0E6FAD3E3A46AE3E29
:103A9000431DAF3E2AF4AF3EEDCAB03E8DA1B13E0C
:103AA0000978B23E624EB33E9624B43EA7FAB43EC5
:103AB00094D0B53E5DA6B63E017CB73E8051B83E7F
:103AC000DB26B93E11FCB93E21D1BA3E0CA6BB3E65
:103AD000D27ABC3E724FBD3EED23BE3E41F8BE3EA3
:103AE0006FCCBF3E77A0C03E5974C13E1448C23E61
:103AF000A81BC33E15EFC33E5BC2C43E7A95C53ECC
:103B00007168C63E413BC73EE90DC83E69E0C83E0C
:103B1000C1B2C93EF084CA3EF856CB3ED628CC3E50
:103B20008CFACC3E19CCCD3E7D9DCE3EB86ECF3EBC
:103B3000C93FD03EB010D13E6EE1D13E02B2D23E7E
:103B40006C82D33EAC52D43EC122D53EACF2D53EBF
:103B50006CC2D63E0192D73E6B61D83EAA30D93EA8
:103B6000BEFFD93EA6CEDA3E639DDB3EF36BDC3E64
:103B7000583ADD3E9008DE3E9CD6DE3E7CA4DF3E19
:103B80002F72E03EB53FE13E0E0DE23E3ADAE23EF4
:103B900039A7E33E0A74E43EAE40E53E240DE63E1E
:103BA0006CD9E63E85A5E73E7171E83E2E3DE93EC3
:103BB000BD08EA3E1DD4EA3E4E9FEB3E506AEC3E05
:103BC0002335ED3EC7FFED3E3BCAEE3E7F94EF3E10
:103BD000935EF03E7828F13E2CF2F13EB0BBF23E0F
:103BE0000485F33E274EF43E1917F53EDADFF53E25
:103BF0006BA8F63ECA70F73EF738F83EF300F93E80
:103C0000BEC8F93E5690FA3EBC57FB3EF11EFC3E44
:103C1000F3E5FC3EC2ACFD3E5F73FE3EC939FF3E9C
:103C20000000003F0263003FEAC5003FB928013FA2
:103C30006E8B013F09EE013F8A50023FF1B2023F15
:103C40003E15033F7077033F89D9033F873B043F0D
:103C50006B9D043F34FF043FE360053F77C2053F9F
:103C6000F123063F4F85063F93E6063FBC47073FDB
:103C7000CAA8073FBD09083F946A083F51CB083FD7
:103C8000F22B093F778C093FE2EC093F304D0A3FA8
:103C900064AD0A3F7B0D0B3F776D0B3F56CD0B3F5D
:103CA0001A2D0C3FC28C0C3F4EEC0C3FBE4B0D3F0F
:103CB00011AB0D3F490A0E3F64690E3F62C80E3FCB
:103CC00044270F3F09860F3FB2E40F3F3E43103FAA
:103CD000ADA1103F0000113F355E113F4DBC113FBB
:103CE000491A123F2778123FE8D5123F8B33133F12
:103CF0001191133F7AEE133FC54B143FF3A8143FC5
:103D00000306153FF562153FC9BF153F801C163FDE
:103D10001879163F92D5163FEF31173F2D8E173F7A
:103D20004DEA173F4E46183F31A2183FF6FD183FA7
:103D30009C59193F24B5193F8C101A3FD76B1A3F75
:103D400002C71A3F0E221B3FFC7C1B3FCAD71B3FFA
:103D500079321C3F098D1C3F7AE71C3FCB411D3F48
:103D6000FD9B1D3F10F61D3F03501E3FD7A91E3F70
:103D70008A031F3F1E5D1F3F93B61F3FE70F203F83
:103D80001B69203F30C2203F241B213FF873213F95
:103D9000ACCC213F4025223FB37D223F06D6223FB7
:103DA000382E233F4986233F3BDE233F0B36243FFB
:103DB000BA8D243F49E5243FB73C253F0494253F75
:103DC0002FEB253F3A42263F2399263FECEF263F33
:103DD0009246273F189D273F7CF3273FBE49283F47
:103DE000DF9F283FDEF5283FBC4B293F78A1293FC4
:103DF00011F7293F894C2A3FDFA12A3F13F72A3FB9
:103E0000254C2B3F14A12B3FE1F52B3F8C4A2C3F37
:103E1000159F2C3F7BF32C3FBE472D3FDF9B2D3F53
:103E2000DDEF2D3FB9432E3F72972E3F08EB2E3F1B
:103E30007B3E2F3FCA912F3FF7E42F3F0138303FA1
:103E4000E88A303FABDD303F4B30313FC882313FF5
:103E500021D5313F5727323F6979323F58CB323F26
:103E6000231D333FCA6E333F4DC0333FAD11343F46
:103E7000E862343F00B4343FF304353FC255353F68
:103E80006DA6353FF4F6353F5747363F9597363F99
:103E9000AEE7363FA337373F7487373F20D7373FEA
:103EA000A726383F0976383F47C5383F6014393F69
:103EB0005463393F22B2393FCC003A3F514F3A3F29
:103EC000B09D3A3FEAEB3A3FFF393B3FEE873B3F3D
:103ED000B8D53B3F5D233C3FDC703C3F35BE3C3FAB
:103EE000690B3D3F76583D3F5FA53D3F21F23D3F89
:103EF000BD3E3E3F338B3E3F84D73E3FAE233F3FE8
:103F0000B26F3F3F90BB3F3F4707403FD852403FD3
:103F1000439E403F88E9403FA534413F9D7F413F5C
:103F20006DCA413F1715423F9B5F423FF7A9423F91
:103F30002DF4423F3B3E433F2388433FE3D1433F81
:103F40007D1B443FEF64443F3AAE443F5EF7443F3D
:103F50005B40453F3089453FDED1453F641A463FCF
:103F6000C362463FFAAA463F0AF3463FF13A473F4B
:103F7000B182473F49CA473FBA11483F0259483FBB
:103F800022A0483F1BE7483FEB2D493F9374493F30
:103F900012BB493F6A014A3F99474A3FA08D4A3FB9
:103FA0007ED34A3F34194B3FC25E4B3F26A44B3F62
:103FB00062E94B3F762E4C3F60734C3F22B84C3F3A
:103FC000BBFC4C3F2B414D3F72854D3F90C94D3F4F
:103FD000850D4E3F51514E3FF3944E3F6DD84E3FAD
:103FE000BD1B4F3FE35E4F3FE1A14F3FB5E44F3F65
:103FF0005F27503FE069503F37AC503F64EE503F81
:104000006830513F4272513FF3B3513F79F5513F10
:10401000D536523F0878523F10B9523FEFF9523F20
:10402000A33A533F2D7B533F8DBB533FC3FB533FBD
:10403000CE3B543FAF7B543F66BB543FF2FA543FF4
:10404000533A553F8A79553F97B8553F78F7553FD2
:104050002F36563FBC74563F1DB3563F54F1563F62
:104060005F2F573F406D573FF6AA573F80E8573FB5
:10407000E025583F1463583F1DA0583FFBDC583FD4
:10408000AE19593F3556593F9192593FC2CE593FCB
:10409000C70A5A3FA0465A3F4E825A3FD0BD5A3FA8
:1040A00027F95A3F52345B3F516F5B3F24AA5B3F75
:1040B000CCE45B3F471F5C3F97595C3FBA935C3F42
:1040C000B2CD5C3F7E075D3F1D415D3F907A5D3F15
:1040D000D7B35D3FF2EC5D3FE0255E3FA25E5E3F01
:1040E00038975E3FA1CF5E3FDE075F3FEE3F5F3F09
:1040F000D2775F3F89AF5F3F14E75F3F711E603F3C
:10410000A255603FA78C603F7EC3603F28FA603FA6
:10411000A630613FF766613F1A9D613F11D3613F51
:10412000DA08623F773E623FE673623F28A9623F4A
:104130003DDE623F2413633FDE47633F6B7C633F9A
:10414000CAB0633FFCE4633F0119643FD84C643F4D
:104150008180643FFDB3643F4BE7643F6B1A653F6A
:104160005E4D653F2280653FB9B2653F22E5653F00
:104170005E17663F6B49663F4A7B663FFCAC663F15
:104180007FDE663FD40F673FFB40673FF471673FB8
:10419000BFA2673F5BD3673FC903683F0934683FED
:1041A0001B64683FFE93683FB2C3683F39F3683FC2
:1041B0009022693FBA51693FB480693F80AF693F3F
:1041C0001DDE693F8C0C6A3FCC3A6A3FDD686A3F6E
:1041D000BF966A3F73C46A3FF7F16A3F4D1F6B3F5A
:1041E000744C6B3F6C796B3F35A66B3FCED26B3F07
:1041F00039FF6B3F752B6C3F81576C3F5E836C3F83
:104200000CAF6C3F8BDA6C3FDB056D3FFB306D3FD5
:10421000EC5B6D3FAD866D3F3FB16D3FA2DB6D3F07
:10422000D5056E3FD82F6E3FAC596E3F51836E3F20
:10423000C6AC6E3F0BD66E3F20FF6E3F06286F3F29
:10424000BC506F3F42796F3F99A16F3FC0C96F3F2C
:10425000B6F16F3F7D19703F1441703F7B68703F2E
:10426000B28F703FB9B6703F90DD703F3704713F39
:10427000AD2A713FF450713F0A77713FF09C713F56
:10428000A6C2713F2CE8713F810D723FA632723F8A
:104290009B57723F5F7C723FF3A0723F57C5723FDE
:1042A0008AE9723F8C0D733F5E31733F0055733F57
:1042B0007078733FB19B733FC0BE733F9FE1733F04
:1042C0004E04743FCB26743F1849743F346B743FDF
:1042D0001F8D743FDAAE743F63D0743FBCF1743FFE
:1042E000E412753FDB33753FA154753F3675753F5A
:1042F0009A95753FCDB5753FCED5753F9FF5753F06
:104300003F15763FAE34763FEB53763FF772763FFC
:10431000D291763F7CB0763FF5CE763F3CED763F4E
:10432000520B773F3729773FEA46773F6C64773FF8
:10433000BD81773FDC9E773FCABB773F86D8773F0A
:1043400011F5773F6A11783F922D783F8849783F81
:104350004D65783FE080783F419C783F71B7783F6A
:1043600070D2783F3CED783FD707793F4022793FC4
:10437000773C793F7D56793F5170793FF389793F9A
:1043800063A3793FA2BC793FAED5793F89EE793FEF
:1043900032077A3FA91F7A3FED377A3F00507A3FC4
:1043A000E1677A3F917F7A3F0E977A3F59AE7A3F25
:1043B00071C57A3F58DC7A3F0DF37A3F90097B3F15
:1043C000E01F7B3FFF357B3FEB4B7B3FA5617B3F96
:1043D0002D777B3F838C7B3FA7A17B3F98B67B3FAC
:1043E00057CB7B3FE4DF7B3F3EF47B3F66087C3F5F
:1043F0005C1C7C3F20307C3FB1437C3F10577C3FAE
:104400003C6A7C3F377D7C3FFE8F7C3F93A27C3FA4
:10441000F6B47C3F27C77C3F25D97C3FF0EA7C3F40
:1044200089FC7C3FEF0D7D3F231F7D3F25307D3F85
:10443000F4407D3F90517D3FFA617D3F31727D3F79
:1044400035827D3F07927D3FA6A17D3F13B17D3F21
:104450004DC07D3F55CF7D3F29DE7D3FCBEC7D3F7D
:104460003BFB7D3F77097E3F81177E3F58257E3F8E
:10447000FD327E3F6E407E3FAD4D7E3FBA5A7E3F5D
:1044800093677E3F3A747E3FAD807E3FEE8C7E3FE9
:10449000FD987E3FD8A47E3F80B07E3FF6BB7E3F36
:1044A00039C77E3F49D27E3F26DD7E3FD0E77E3F43
:1044B00048F27E3F8CFC7E3F9E067F3F7C107F3F14
:1044C000281A7F3FA1237F3FE72C7F3FF9357F3FAD
:1044D000D93E7F3F86477F3F00507F3F47587F3F11
:1044E0005C607F3F3D687F3FEB6F7F3F66777F3F3C
:1044F000AE7E7F3FC3857F3FA58C7F3F54937F3F38
:10450000D0997F3F19A07F3F2FA67F3F12AC7F3FFE
:10451000C2B17F3F3FB77F3F89BC7F3FA0C17F3F94
:1045200084C67F3F34CB7F3FB2CF7F3FFCD37F3FFA
:1045300014D87F3FF8DB7F3FA9DF7F3F28E37F3F31
:1045400073E67F3F8BE97F3F70EC7F3F22EF7F3F39
:10455000A0F17F3FECF37F3F05F67F3FEAF77F3F17
:104560009DF97F3F1CFB7F3F68FC7F3F81FD7F3FC4
:1045700067FE7F3F1AFF7F3F9AFF7F3FE6FF7F3F47
:104580000000803FE6FF7F3F9AFF7F3F1AFF7F3F9B
:1045900067FE7F3F81FD7F3F68FC7F3F1CFB7F3FC5
:1045A0009DF97F3FEAF77F3F05F67F3FECF37F3FC2
:1045B000A0F17F3F22EF7F3F70EC7F3F8BE97F3F91
:1045C00073E67F3F28E37F3FA9DF7F3FF8DB7F3F34
:1045D00014D87F3FFCD37F3FB2CF7F3F34CB7F3FA8
:1045E00084C67F3FA0C17F3F89BC7F3F3FB77F3FED
:1045F000C2B17F3F12AC7F3F2FA67F3F19A07F3F04
:10460000D0997F3F54937F3FA58C7F3FC3857F3FE9
:10461000AE7E7F3F66777F3FEB6F7F3F3D687F3F9A
:104620005C607F3F47587F3F00507F3F86477F3F1A
:10463000D93E7F3FF9357F3FE72C7F3FA1237F3F66
:10464000281A7F3F7C107F3F9E067F3F8CFC7E3F79
:1046500048F27E3FD0E77E3F26DD7E3F49D27E3F57
:1046600039C77E3FF6BB7E3F81B07E3FD8A47E3FF8
:10467000FD987E3FEF8C7E3FAE807E3F3A747E3F5A
:1046800093677E3FBA5A7E3FAE4D7E3F6F407E3F7E
:10469000FD327E3F58257E3F81177E3F77097E3F62
:1046A0003BFB7D3FCBEC7D3F29DE7D3F55CF7D3F02
:1046B0004DC07D3F13B17D3FA7A17D3F07927D3F58
:1046C00035827D3F31727D3FFA617D3F90517D3F64
:1046D000F4407D3F25307D3F231F7D3FF00D7D3F22
:1046E00089FC7C3FF0EA7C3F25D97C3F27C77C3F93
:1046F000F6B47C3F94A27C3FFE8F7C3F377D7C3FAD
:104700003D6A7C3F10577C3FB1437C3F20307C3F6B
:104710005C1C7C3F67087C3F3EF47B3FE4DF7B3FD3
:1047200057CB7B3F98B67B3FA7A17B3F838C7B3FDA
:104730002D777B3FA6617B3FEB4B7B3FFF357B3F7C
:10474000E11F7B3F90097B3F0DF37A3F59DC7A3FB5
:1047500072C57A3F59AE7A3F0E977A3F917F7A3F82
:10476000E2677A3F01507A3FEE377A3FA91F7A3FDE
:1047700032077A3F89EE793FAED5793FA2BC793FC7
:1047800063A3793FF389793F5170793F7D56793F33
:10479000783C793F4022793FD707793F3CED783F1D
:1047A00070D2783F72B7783F429C783FE080783F84
:1047B0004D65783F8849783F922D783F6A11783F60
:1047C00011F5773F86D8773FCABB773FDC9E773FAE
:1047D000BD81773F6C64773FEA46773F3729773F63
:1047E000520B773F3CED763FF5CE763F7CB0763F7F
:1047F000D391763FF872763FEB53763FAE34763FF7
:104800003F15763FA0F5753FCFD5753FCDB5753FC8
:104810009A95753F3675753FA154753FDB33753FEB
:10482000E412753FBCF1743F64D0743FDAAE743F5C
:10483000208D743F346B743F1849743FCB26743F0E
:104840004E04743FA0E1733FC1BE733FB19B733F01
:104850007178733F0055733F5E31733F8C0D733F2A
:104860008AE9723F57C5723FF4A0723F607C723F85
:104870009B57723FA732723F820D723F2CE8713F07
:10488000A7C2713FF19C713F0A77713FF450713FAD
:10489000AE2A713F3704713F90DD703FB9B6703F6B
:1048A000B28F703F7B68703F1441703F7D19703F3D
:1048B000B7F16F3FC0C96F3F99A16F3F43796F3F19
:1048C000BC506F3F06286F3F21FF6E3F0BD66E3FF7
:1048D000C6AC6E3F51836E3FAD596E3FD92F6E3FD0
:1048E000D5056E3FA2DB6D3F3FB16D3FAD866D3F9D
:1048F000EC5B6D3FFB306D3FDB056D3F8CDA6C3F51
:104900000DAF6C3F5F836C3F81576C3F752B6C3FE5
:1049100039FF6B3FCFD26B3F35A66B3F6C796B3F56
:10492000744C6B3F4E1F6B3FF8F16A3F73C46A3F94
:10493000C0966A3FDD686A3FCC3A6A3F8C0C6A3F9A
:104940001EDE693F80AF693FB480693FBA51693F5D
:104950009122693F39F3683FB3C3683FFE93683FD4
:104960001B64683F0A34683FCA03683F5CD3673FF3
:10497000BFA2673FF471673FFC40673FD50F673FB9
:104980007FDE663FFCAC663F4B7B663F6B49663F14
:104990005E17663F23E5653FBAB2653F2380653FFA
:1049A0005E4D653F6B1A653F4BE7643FFDB3643F67
:1049B0008180643FD84C643F0119643FFDE4633F4C
:1049C000CBB0633F6C7C633FDF47633F2513633F9E
:1049D0003DDE623F28A9623FE673623F773E623F59
:1049E000DB08623F11D3613F1B9D613FF766613F6A
:1049F000A630613F29FA603F7EC3603FA78C603FCD
:104A0000A355603F721E603F14E75F3F8AAF5F3F70
:104A1000D3775F3FEF3F5F3FDF075F3FA2CF5E3F50
:104A200039975E3FA35E5E3FE1255E3FF2EC5D3F5E
:104A3000D8B35D3F917A5D3F1D415D3F7E075D3F8D
:104A4000B2CD5C3FBB935C3F97595C3F481F5C3FD6
:104A5000CCE45B3F25AA5B3F516F5B3F52345B3F29
:104A600027F95A3FD1BD5A3F4E825A3FA1465A3F7D
:104A7000C70A5A3FC2CE593F9292593F3656593FC4
:104A8000AE19593FFCDC583F1EA0583F1563583FF4
:104A9000E025583F81E8573FF6AA573F406D573F02
:104AA000602F573F54F1563F1EB3563FBC74563FDC
:104AB0003036563F79F7553F97B8553F8B79553F7C
:104AC000543A553FF2FA543F66BB543FB07B543FD3
:104AD000CF3B543FC3FB533F8EBB533F2E7B533FD3
:104AE000A43A533FEFF9523F11B9523F0978523F70
:104AF000D636523F7AF5513FF3B3513F4372513F9F
:104B00006930513F65EE503F37AC503FE069503F50
:104B10005F27503FB5E44F3FE1A14F3FE45E4F3F79
:104B2000BD1B4F3F6DD84E3FF4944E3F51514E3F09
:104B3000850D4E3F91C94D3F73854D3F2C414D3FF3
:104B4000BCFC4C3F23B84C3F61734C3F762E4C3F2E
:104B500063E94B3F27A44B3FC25E4B3F35194B3FA8
:104B60007FD34A3FA18D4A3F9A474A3F6B014A3F54
:104B700013BB493F9374493FEB2D493F1BE7483F27
:104B800023A0483F0259483FBA11483F4ACA473F0D
:104B9000B282473FF23A473F0AF3463FFBAA463FFD
:104BA000C362463F651A463FDED1453F3189453FE6
:104BB0005C40453F5FF7443F3BAE443FF064443FB9
:104BC0007E1B443FE4D1433F2388433F3C3E433F69
:104BD0002DF4423FF8A9423F9B5F423F1815423FE8
:104BE0006ECA413F9D7F413FA634413F88E9403F27
:104BF000449E403FD952403F4807403F90BB3F3F13
:104C0000B36F3F3FAE233F3F84D73E3F348B3E3FA1
:104C1000BE3E3E3F21F23D3F5FA53D3F77583D3FC1
:104C2000690B3D3F36BE3C3FDC703C3F5D233C3F63
:104C3000B9D53B3FEF873B3FFF393B3FEBEB3A3F7B
:104C4000B19D3A3F514F3A3FCD003A3F23B2393FF1
:104C50005463393F6014393F48C5383F0A76383FBE
:104C6000A826383F20D7373F7587373FA437373FCF
:104C7000AFE7363F9597363F5747363FF5F6353F16
:104C80006EA6353FC355353FF404353F00B4343F7D
:104C9000E962343FAD11343F4EC0333FCB6E333FFA
:104CA000231D333F59CB323F6A79323F5827323F79
:104CB00022D5313FC982313F4C30313FACDD303FEE
:104CC000E98A303F0238303FF8E42F3FCB912F3F45
:104CD0007B3E2F3F08EB2E3F72972E3FBA432E3F6D
:104CE000DEEF2D3FE09B2D3FBF472D3F7BF32C3F59
:104CF000159F2C3F8D4A2C3FE2F52B3F15A12B3FF2
:104D0000254C2B3F14F72A3FE0A12A3F8A4C2A3F2B
:104D100012F7293F78A1293FBD4B293FDFF5283FF6
:104D2000E09F283FBF49283F7DF3273F199D273F3C
:104D30009346273FECEF263F2499263F3B42263FF0
:104D400030EB253F0494253FB83C253F4AE5243FFE
:104D5000BB8D243F0C36243F3BDE233F4A86233F56
:104D6000392E233F06D6223FB37D223F4025223FE6
:104D7000ADCC213FF973213F251B213F30C2203F9D
:104D80001C69203FE80F203F93B61F3F1F5D1F3F68
:104D90008B031F3FD7A91E3F04501E3F11F61D3F36
:104DA000FE9B1D3FCC411D3F7BE71C3F0A8D1C3FF6
:104DB0007A321C3FCBD71B3FFC7C1B3F0F221B3F93
:104DC00003C71A3FD76B1A3F8D101A3F24B5193FFE
:104DD0009D59193FF7FD183F32A2183F4F46183F23
:104DE0004DEA173F2E8E173FEF31173F93D5163FF1
:104DF0001979163F801C163FCABF153FF662153F52
:104E00000306153FF4A8143FC64B143F7BEE133F37
:104E10001291133F8C33133FE8D5123F2778123F8E
:104E2000491A123F4EBC113F365E113F0000113F40
:104E3000AEA1103F3F43103FB3E40F3F0A860F3F40
:104E400045270F3F63C80E3F64690E3F490A0E3F76
:104E500012AB0D3FBF4B0D3F4FEC0C3FC38C0C3FD3
:104E60001B2D0C3F57CD0B3F776D0B3F7C0D0B3F40
:104E700064AD0A3F314D0A3FE2EC093F788C093FAF
:104E8000F22B093F51CB083F956A083FBD09083F07
:104E9000CBA8073FBD47073F94E6063F5085063F36
:104EA000F123063F78C2053FE460053F35FF043F2C
:104EB0006C9D043F883B043F8AD9033F7177033FD1
:104EC0003E15033FF1B2023F8A50023F09EE013F17
:104ED0006E8B013FBA28013FEBC5003F0363003FE3
:104EE0000100003FCA39FF3E6073FE3EC3ACFD3E89
:104EF000F4E5FC3EF21EFC3EBE57FB3E5890FA3EE7
:104F0000BFC8F93EF500F93EF938F83ECB70F73EE0
:104F10006CA8F63EDCDFF53E1B17F53E294EF43E4D
:104F20000685F33EB2BBF23E2EF2F13E7928F13E09
:104F3000955EF03E8094EF3E3CCAEE3EC8FFED3EEB
:104F40002535ED3E526AEC3E509FEB3E1FD4EA3EC3
:104F5000BF08EA3E303DE93E7371E83E87A5E73E73
:104F60006DD9E63E250DE63EAF40E53E0C74E43ECD
:104F70003AA7E33E3CDAE23E0F0DE23EB63FE13EA9
:104F80003072E03E7DA4DF3E9ED6DE3E9208DE3EDD
:104F9000593ADD3EF56BDC3E649DDB3EA8CEDA3E41
:104FA000C0FFD93EAC30D93E6D61D83E0392D73EAA
:104FB0006EC2D63EAEF2D53EC322D53EAE52D43EF0
:104FC0006E82D33E04B2D23E70E1D13EB210D13EE9
:104FD000CA3FD03EB96ECF3E7F9DCE3E1BCCCD3E6C
:104FE0008EFACC3ED828CC3EF956CB3EF284CA3E4F
:104FF000C2B2C93E6BE0C83EEB0DC83E433BC73E64
:105000007368C63E7C95C53E5DC2C43E17EFC33E85
:10501000A91BC33E1548C23E5A74C13E79A0C03E8A
:1050200071CCBF3E43F8BE3EEE23BE3E744FBD3E44
:10503000D47ABC3E0EA6BB3E23D1BA3E12FCB93E8A
:10504000DD26B93E8251B83E027CB73E5EA6B63E32
:1050500096D0B53EA9FAB43E9824B43E634EB33E12
:105060000B78B23E8EA1B13EEECAB03E2BF4AF3EFD
:10507000451DAF3E3C46AE3E106FAD3EC197AC3EC7
:1050800050C0AB3EBDE8AA3E0811AA3E3039A93E49
:105090003761A83E1C89A73EE0B0A63E83D8A53E56
:1050A0000400A53E6427A43EA44EA33EC375A23EC1
:1050B000C29CA13EA0C3A03E5EEA9F3EFD109F3E63
:1050C0007B379E3EDA5D9D3E1A849C3E3AAA9B3E0B
:1050D0003BD09A3E1EF6993EE11B993E8741983E91
:1050E0000D67973E768C963EC0B1953EEDD6943EC8
:1050F000FBFB933EED20933EC045923E776A913E86
:10510000118F903E8EB38F3EEED78E3E31FC8D3E9A
:1051100058208D3E64448C3E53688B3E268C8A3EDC
:10512000DDAF893E79D3883EFAF6873E601A873E26
:10513000AB3D863EDA60853EF083843EEAA6833E40
:10514000CBC9823E91EC813E3E0F813ED031803E04
:1051500093A87E3E52ED7C3EDF317B3E3A76793E2F
:1051600063BA773E5AFE753E2142743EB685723E62
:105170001BC9703E500C6F3E564F6D3E2C926B3EDD
:10518000D3D4693E4B17683E9559663EB19B643E49
:105190009FDD623E601F613EF4605F3E5CA25D3E4B
:1051A00097E35B3EA6245A3E8A65583E43A6563E88
:1051B000D1E6543E3427533E6D67513E7CA74F3EA7
:1051C00062E74D3E1F274C3EB3664A3E1EA6483E50
:1051D00062E5463E7E24453E7263433E40A2413E28
:1051E000E6E03F3E671F3E3EC15D3C3EF69B3A3ED9
:1051F00006DA383EF117373EB755353E5993333E00
:10520000D7D0313E320E303E694B2E3E7E882C3E4A
:1052100071C52A3E4102293EEF3E273E7C7B253E5A
:10522000E8B7233E34F4213E5F30203E6A6C1E3ED8
:1052300055A81C3E21E41A3ECE1F193E5D5B173E69
:10524000CD96153E20D2133E550D123E6D48103EB0
:1052500068830E3E47BE0C3E09F90A3EB033093E54
:105260003C6E073EACA8053E02E3033E3D1D023EF8
:105270005E57003ECC22FD3DA996F93D540AF63D0D
:10528000CF7DF23D18F1EE3D3264EB3D1DD7E73D99
:10529000DA49E43D69BCE03DCB2EDD3D01A1D93DBD
:1052A0000C13D63DEC84D23DA2F6CE3D2E68CB3D0C
:1052B00092D9C73DCE4AC43DE3BBC03DD12CBD3DD4
:1052C0009A9DB93D3E0EB63DBD7EB23D18EFAE3D56
:1052D000515FAB3D67CFA73D5C3FA43D31AFA03DE3
:1052E000E51E9D3D798E993DEFFD953D486D923DC2
:1052F00082DC8E3DA14B8B3DA3BA873D8B29843D3B
:105300005898803D170E7A3D4CEB723D50C86B3D6E
:1053100025A5643DCD815D3D485E563D993A4F3DA2
:10532000C016483DC0F2403D99CE393D4CAA323DB1
:10533000DD852B3D4A61243D973C1D3DC517163D3B
:10534000D5F20E3DC8CD073DA0A8003DBC06F33CFC
:1053500008BCE43C2671D63C1A26C83CE6DAB93CC7
:105360008D8FAB3C11449D3C76F88E3CBFAC803CAD
:10537000DBC1643C0A2A483C12922B3CF8F90E3CF3
:1053800082C3E43BE592AB3B50C4643B4DC5E43A79
:105390009C2A6633B6C1E4BA84C264BBFF91ABBB3E
:1053A0009CC2E4BB85F90EBC9E912BBC972948BCDE
:1053B00068C164BC85AC80BC3DF88EBCD7439DBC45
:1053C000538FABBCADDAB9BCE125C8BCED70D6BC1F
:1053D000CFBBE4BC8206F3BC83A800BDABCD07BD48
:1053E000B8F20EBDA81716BD7B3C1DBD2D6124BDB6
:1053F000C0852BBD30AA32BD7CCE39BDA3F240BDE5
:10540000A41648BD7C3A4FBD2C5E56BDB0815DBD33
:1054100009A564BD33C86BBD2FEB72BDFA0D7ABD13
:105420004A9880BD7D2984BD95BA87BD924B8BBDBE
:1054300074DC8EBD396D92BDE1FD95BD6B8E99BD5D
:10544000D61E9DBD22AFA0BD4E3FA4BD59CFA7BD66
:10545000435FABBD0AEFAEBDAE7EB2BD2F0EB6BD93
:105460008C9DB9BDC32CBDBDD5BBC0BDC04AC4BD9C
:1054700084D9C7BD2068CBBD93F6CEBDDD84D2BD37
:10548000FD12D6BDF3A0D9BDBD2EDDBD5BBCE0BD18
:10549000CB49E4BD0FD7E7BD2464EBBD0AF1EEBDF7
:1054A000C07DF2BD460AF6BD9B96F9BDBE22FDBD8C
:1054B000575700BE361D02BEFAE203BEA5A805BEC0
:1054C000346E07BEA93309BE02F90ABE40BE0CBE47
:1054D00061830EBE664810BE4E0D12BE19D213BEB9
:1054E000C69615BE565B17BEC71F19BE1AE41ABE74
:1054F0004EA81CBE636C1EBE573020BE2DF421BECC
:10550000E1B723BE757B25BEE83E27BE3A0229BE21
:1055100069C52ABE77882CBE624B2EBE2B0E30BECC
:10552000D0D031BE529333BEB05535BEEA1737BE28
:10553000FFD938BEEF9B3ABEBA5D3CBE601F3EBE8F
:10554000DFE03FBE39A241BE6B6343BE772445BE58
:105550005BE546BE17A648BEAC664ABE18274CBEE1
:105560005BE74DBE75A74FBE666751BE2D2753BE84
:10557000CAE654BE3CA656BE836558BE9F245ABE9A
:1055800090E35BBE55A25DBEED605FBE591F61BE7C
:1055900098DD62BEAA9B64BE8E5966BE441768BE83
:1055A000CCD469BE25926BBE4F4F6DBE490C6FBE09
:1055B00014C970BEAF8572BE1A4274BE53FE75BE6A
:1055C0005CBA77BE337679BED8317BBE4BED7CBEFC
:1055D0008CA87EBECD3180BE3A0F81BE8EEC81BEDE
:1055E000C7C982BEE7A683BEEC8384BED76085BEF2
:1055F000A73D86BE5C1A87BEF7F687BE76D388BE07
:10560000DAAF89BE228C8ABE4F688BBE60448CBEE6
:1056100055208DBE2EFC8DBEEAD78EBE8AB38FBEBE
:105620000D8F90BE746A91BEBD4592BEE92093BEB7
:10563000F8FB93BEE9D694BEBDB195BE728C96BE02
:105640000A6797BE834198BEDE1B99BE1AF699BEC3
:1056500038D09ABE37AA9BBE16849CBED75D9DBE2D
:1056600078379EBEF9109FBE5BEA9FBE9DC3A0BE69
:10567000BE9CA1BEC075A2BEA14EA3BE6127A4BEA2
:105680000000A5BE7FD8A5BEDDB0A6BE1989A7BE05
:105690003461A8BE2D39A9BE0411AABEBAE8AABEBB
:1056A0004DC0ABBEBE97ACBE0D6FADBE3946AEBEF3
:1056B000421DAFBE28F4AFBEEBCAB0BE8BA1B1BED7
:1056C0000778B2BE604EB3BE9524B4BEA6FAB4BE8F
:1056D00093D0B5BE5BA6B6BEFF7BB7BE7F51B8BE4A
:1056E000D926B9BE0FFCB9BE1FD1BABE0BA6BBBE30
:1056F000D07ABCBE714FBDBEEB23BEBE3FF8BEBE6E
:105700006ECCBFBE76A0C0BE5774C1BE1248C2BE2A
:10571000A61BC3BE13EFC3BE59C2C4BE7895C5BE97
:105720007068C6BE3F3BC7BEE70DC8BE67E0C8BED7
:10573000BFB2C9BEEF84CABEF656CBBED528CCBE1A
:105740008BFACCBE17CCCDBE7B9DCEBEB66ECFBE87
:10575000C73FD0BEAF10D1BE6DE1D1BE01B2D2BE47
:105760006B82D3BEAA52D4BEC022D5BEAAF2D5BE89
:105770006BC2D6BE0092D7BE6A61D8BEA930D9BE70
:10578000BCFFD9BEA5CEDABE619DDBBEF16BDCBE2F
:10579000563ADDBE8E08DEBE9AD6DEBE7AA4DFBEE5
:1057A0002D72E0BEB33FE1BE0C0DE2BE38DAE2BEC0
:1057B00037A7E3BE0874E4BEAC40E5BE220DE6BEEA
:1057C0006AD9E6BE84A5E7BE7071E8BE2D3DE9BE8C
:1057D000BB08EABE1BD4EABE4D9FEBBE4F6AECBECF
:1057E0002135EDBEC5FFEDBE39CAEEBE7D94EFBEDC
:1057F000925EF0BE7628F1BE2BF2F1BEAFBBF2BED8
:105800000285F3BE254EF4BE1817F5BED9DFF5BEEE
:1058100069A8F6BEC870F7BEF638F8BEF200F9BE49
:10582000BCC8F9BE5490FABEBB57FBBEEF1EFCBE0F
:10583000F1E5FCBEC0ACFDBE5D73FEBEC739FFBE68
:10584000FEFFFFBE016300BFE9C500BFB82801BF6E
:105850006D8B01BF08EE01BF895002BFF0B202BFDD
:105860003D1503BF707703BF88D903BF863B04BFD4
:105870006A9D04BF33FF04BFE26005BF76C205BF67
:10588000F02306BF4E8506BF92E606BFBB4707BFA3
:10589000C9A807BFBC0908BF936A08BF50CB08BF9F
:1058A000F12B09BF778C09BFE1EC09BF304D0ABF6E
:1058B00063AD0ABF7A0D0BBF766D0BBF56CD0BBF24
:1058C0001A2D0CBFC28C0CBF4DEC0CBFBD4B0DBFD5
:1058D00011AB0DBF480A0EBF63690EBF61C80EBF92
:1058E00043270FBF09860FBFB1E40FBF3D4310BF71
:1058F000ADA110BFFFFF10BF345E11BF4DBC11BF83
:10590000481A12BF267812BFE7D512BF8A3313BFD9
:10591000119113BF79EE13BFC44B14BFF2A814BF8B
:10592000020615BFF46215BFC8BF15BF7F1C16BFA6
:10593000177916BF92D516BFEE3117BF2C8E17BF41
:105940004CEA17BF4E4618BF31A218BFF5FD18BF6D
:105950009B5919BF23B519BF8C101ABFD66B1ABF3C
:1059600001C71ABF0D221BBFFB7C1BBFC9D71BBFC2
:1059700078321CBF088D1CBF79E71CBFCB411DBF0F
:10598000FD9B1DBF0FF61DBF02501EBFD6A91EBF37
:105990008A031FBF1E5D1FBF92B61FBFE60F20BF49
:1059A0001B6920BF2FC220BF231B21BFF77321BF5C
:1059B000ABCC21BF3F2522BFB27D22BF05D622BF7F
:1059C000372E23BF498623BF3ADE23BF0A3624BFC2
:1059D000BA8D24BF48E524BFB63C25BF039425BF3C
:1059E0002FEB25BF394226BF239926BFEBEF26BFF9
:1059F000924627BF179D27BF7BF327BFBE4928BF0D
:105A0000DF9F28BFDEF528BFBB4B29BF77A129BF89
:105A100011F729BF894C2ABFDEA12ABF12F72ABF7E
:105A2000244C2BBF13A12BBFE1F52BBF8B4A2CBFFE
:105A3000149F2CBF7AF32CBFBE472DBFDE9B2DBF1A
:105A4000DDEF2DBFB8432EBF71972EBF07EB2EBFE2
:105A50007A3E2FBFCA912FBFF7E42FBF013830BF66
:105A6000E78A30BFABDD30BF4B3031BFC78231BFBB
:105A700021D531BF572732BF697932BF57CB32BFEB
:105A8000221D33BFC96E33BF4DC033BFAC1134BF0D
:105A9000E86234BFFFB334BFF20435BFC25535BF2F
:105AA0006DA635BFF4F635BF564736BF949736BF5F
:105AB000AEE736BFA33737BF738737BF1FD737BFB0
:105AC000A62638BF097638BF46C538BF5F1439BF30
:105AD000536339BF22B239BFCB003ABF504F3ABFF0
