:020000040800F2
:10000000103E002001010008CD10000899100008E2
:10001000C9100008450D00087D28000800000000F8
:10002000000000000000000000000000C5160008ED
:10003000A50D000800000000551100081D1E000855
:100040001B0100081B0100081B0100081B01000820
:100050001B0100081B0100081B0100081B01000810
:100060001B0100081B0100081B0100081B01000800
:100070001B0100081B0100081B0100081B010008F0
:100080001B0100081B010008790800081B0100087B
:100090001B0100081B0100081B0100081B010008D0
:1000A0001B010008052200081B0100081B010008B5
:1000B0001B0100081B0100081B0100081B010008B0
:1000C0001B0100081B0100081B0100081B010008A0
:1000D0001B0100081B0100081B0100081B01000890
:1000E0001B0100081B0100081B010008DFF80CD0F1
:1000F00000F080FB00480047D5280008103E002093
:100100000648804706480047FEE7FEE7FEE7FEE7B1
:10011000FEE7FEE7FEE7FEE7FEE7FEE77D1E0008DE
:10012000ED000008F0B480EA0102D40F4200B2EB07
:10013000410F02D20246084611464A0042D0C30D82
:10014000DDB2C1F3C752AD1A202D35DAC1F3160165
:1001500041F4000204B15242C5F1200602FA06F150
:100160002A411044B3EBD05F23D0C4B1012DA0EBE2
:10017000C35009DCF0BC4FF0004202EAC352DBB2CC
:1001800000F5000000F0ABBA400000F1807000EB19
:10019000C350A0F1807040EAD170490009E04908DD
:1001A00041EAC071A0EBC35000F50000400800EB2D
:1001B000C350F0BC00F08ABA6142012202EB410157
:1001C000001BF6E7F0BC704781F00041AAE780F021
:1001D0000040A7E780EA010210B502F000434000AA
:1001E00022D04A001FD0010E01EB1261C0F356006D
:1001F000C2F3560240F4000042F40002A0FB0220C9
:1002000000047F39140400D0401C50EA124001D48D
:100210004000491EC2B20C0604EBD010401C40083E
:10022000802A02D003E0002010BD20F00100002948
:1002300000DA0020184310BD30B480EA010202F059
:10024000004530F0004221F0004013D090B1C30DC2
:10025000D40DC2F31601C0F31600E41A41F40001F4
:1002600040F400027D34914201D3641C00E0490057
:10027000002C02DA30BC002070474FF4000000234D
:10028000914201D3891A034340084FEA4101F7D153
:1002900051B1914202D14FF0004105E002D24FF03E
:1002A000010101E06FF0010103EBC450284430BCB0
:1002B00000F00CBA2DE9FE4F804681EA0300C00F22
:1002C0000C46009021F0004123F00045B8EB0200FD
:1002D000A94105D24046214690461C460B4602469F
:1002E00023F00040104347D0270DC7F30A00C3F3A3
:1002F0000A510290401A019040286BDAC3F31300B0
:1003000040F4801B0098924620B10023D2EB030AF0
:1003100063EB0B0B01985946C0F14002504600F0C8
:10032000A4F906460D4650465946019A00F0BCF91C
:1003300010EB08006141002487EA115284EAE77358
:100340001A4340D0009A62B3019A012A4FEA075239
:1003500015DC001B61EB02014FF0004202EA07527C
:10036000CDE90042001C41F5801132462B4600F0D9
:10037000F3F903B0BDE8F08F40462146F9E7001BD2
:1003800061EB0201001C41F5801300185B4120184D
:10039000A2F5001747EB030140EAD570B6196D418D
:1003A00011E06D084FEA360645EAC0754FEA07527C
:1003B000001B61EB0201001C41F5801149084FEA66
:1003C00030000019514132462B4603B0BDE8F04FD2
:1003D00000F0B3B90098012240000023D0EB0202E4
:1003E00063EBE073009821464FEAE074B8EB00003D
:1003F00061EB0401E9E783F000435BE781F0004132
:1004000058E72DE9FE4F81EA030404F0004421F08F
:10041000004100944FF0000B23F0004350EA010428
:100420005ED052EA03045BD0C3F30A54C1F30A5509
:100430002C44A4F2F3340194A0FB0254C1F3130141
:1004400041F48011C3F3130343F4801301FB02440E
:1004500000FB034E840A970A44EA815447EA835713
:10046000A4FB076802958D0A05FB07854FEA932CCC
:1004700004FB0C542705029D4FEA065847EA16373D
:10048000B5EB08056EEB070C870E920E47EA811755
:1004900042EA8312A7FB0201B6EB0B0164EB0004F6
:1004A0002B0D43EA0C335E1844EB1C50DA465146E0
:1004B000E7FB0201C5F313044FEA0B3343EA14537D
:1004C0004FEA0432019C43EA0603A4F10C040294AF
:1004D000009CCDE900B400F03FF903B0BDE8F08F17
:1004E00000200146F9E72DE9F04D81EA030404F00C
:1004F000004B21F0004514464FF0000A23F0004164
:1005000050EA050220D054EA01021DD0C5F30A5773
:100510000246C5F31303C1F31300C1F30A5640F4B6
:10052000801543F48013A7EB0608101BD64608F28B
:10053000FD3873EB050002D308F1010801E09218C1
:100540005B41B8F1000F03DA00200146BDE8F08DF1
:1005500000204FF48011064684460EE0171B73EB13
:10056000050705D3121B63EB050306434CEA010C98
:1005700049084FEA300092185B4150EA0107EDD17B
:1005800052EA030012D082EA040083EA050108431C
:1005900005D0101BAB4106D20122002306E0002249
:1005A0004FF0004302E06FF0010253101AEB060017
:1005B0004CEB085110EB0A0041EB0B01BDE8F04D8C
:1005C00000F0BBB8C10F80EAE0700844CA07962368
:1005D000002100F084B896230022114600F07FB875
:1005E0000EB540F2334102910021CDE900110A46D7
:1005F0000B4600F0B1F803B000BD00F0004220F05F
:100600000040C10DC0F3160040F400007F2901DA5C
:1006100000207047962903DCC1F19601C84001E033
:1006200096398840002AF4D04042704770B5C1F333
:100630000A5201F000450024C1F3130140F2FF33D8
:1006400041F480119A4201DA002070BD40F2334338
:100650009A42A2F2334203DC524200F015F800E065
:1006600090402C43F1D0404270BD202A04DB203A58
:1006700000FA02F1002070479140C2F1200320FAF5
:1006800003F3194390407047202A04DB203A21FAF3
:1006900002F00021704721FA02F3D040C2F120029B
:1006A0009140084319467047202A06DBCB17203AB1
:1006B00041FA02F043EAE07306E041FA02F3D04067
:1006C000C2F1200291400843194670470029A8BF93
:1006D0007047401C490008BF20F00100704710B46B
:1006E000B0FA80FC00FA0CF050EA010404BF10BC20
:1006F000704749B1CCF1200421FA04F411FA0CF14D
:1007000018BF012121430843A3EB0C01CB1D4FEA85
:1007100000614FEA102042BF002010BC704700EB80
:10072000C35010440029A4BF10BC7047401C4900AE
:1007300008BF20F0010010BC704710B5141E73F103
:10074000000408DA401C41F1000192185B411A4391
:1007500001D120F0010010BD2DE9F04D92469B46DD
:1007600011B1B1FA81F202E0B0FA80F22032904683
:10077000FFF77BFF04460F4640EA0A0041EA0B01FF
:1007800053465A46084313D0114653EA010019D084
:10079000C8F140025046FFF777FF05460E46504627
:1007A00059464246FFF761FF084305D0012004E0A7
:1007B00020463946BDE8F08D0020054346EAE07644
:1007C0002C4337430A986305E40AA0EB0800002293
:1007D000FD0A44EA47540A3002D500200146E9E701
:1007E000010510196941DDE9084500196941BDE8B5
:1007F000F04DA2E7064C074D06E0E06840F001032B
:1008000094E8070098471034AC42F6D3FFF772FC27
:10081000DC280008FC28000870B58D1810F8014B82
:1008200014F0030201D110F8012B231106D110F8A6
:10083000013B03E010F8016B01F8016B521EF9D186
:10084000ABB110F8012B04F00C048A1A0C2C03D065
:10085000A2EB84129B1C08E010F8014BA2EB0422CF
:10086000F8E712F8014B01F8014B5B1EF9D5A942DC
:10087000D4D3002070BD000010B54FF49061434800
:1008800000F0F4F800287DD041480068072858D2CD
:10089000DFE800F0570420213C3D050000BF142193
:1008A0003C4800F0F5F8A0F57450B8383A49C863F0
:1008B0001821364800F0ECF8A0F578501938364980
:1008C00008640846C06B41423348006C081A32493C
:1008D000886352E000BF14212C4800F0D9F8A0F53D
:1008E0007450B4382C4988631821284800F0D0F897
:1008F000A0F578501938284908640846806B4142B1
:100900002548006C091A2448C16336E000BF142151
:100910001E4800F0BDF8A0F57450B4381E49886335
:1009200014211C4800F0B4F8A0F5785019381A4981
:10093000C8630846C06B4042896B411A164801647F
:100940001BE01421114800F0A3F8A0F57450B4384E
:100950001149886314210F4800F09AF8A0F57850E7
:1009600019380D49C8631821084800F091F8A0F51E
:10097000785019380849086400BF00BF4FF49061EF
:10098000024800E001E000F014F810BD002401402E
:10099000A0380020002801408439002021B142689D
:1009A00042F48062426003E0426822F48062426066
:1009B000704700220A12D3430360704721B1826856
:1009C00042F00102826003E0826822F0010282604C
:1009D0007047000010B504461248844208D1012136
:1009E000401500F0F3FC0021601500F0EFFC17E06B
:1009F0000D48844208D10121001500F0E7FC0021D8
:100A0000201500F0E3FC0BE00848844208D10121E6
:100A1000C80300F0DBFC00214FF4004000F0D6FCDE
:100A200010BD00000024014000280140003C0140AE
:100A300021B1426842F40062426003E0426822F45D
:100A400000624260704721B1826842F400428260D5
:100A500003E0826822F40042826070470A46002167
:100A6000816821F4E04111438160704770B502460E
:100A70000020002300240B125568CEB205EA0604BC
:100A800015681D4015B10CB1012000E0002070BDBB
:100A900008B5024600200090009201F12800009B5A
:100AA000184400900098006880B208BD01460020FC
:100AB0008A6802F008020AB1012000E000207047B5
:100AC00010B50023CBB21AB144681C43446002E065
:100AD00044689C43446010BD30B5024600200023AA
:100AE00050680F4C20400D790C6844EA05242043DF
:100AF000506090680B4C2040D1E902542C434D7952
:100B000044EA450420439060D06A20F470000C7CD5
:100B1000641EE4B2234340EA0350D06230BD0000BB
:100B2000FFFEF0FFFDF7F1FFF0B50446154600208B
:100B300000220026092911DDE068A1F10A0707EB70
:100B4000470C072707FA0CF29043A1F10A0707EBBD
:100B5000470703FA07F21043E0600CE0206901EB5D
:100B6000410C072707FA0CF2904301EB410703FA07
:100B700007F210432061A06BC0F30156EF1C06F191
:100B8000010CA7EB0C0707EB870C1F2707FA0CF2E9
:100B90009043EF1C06F1010CA7EB0C0707EB87074E
:100BA00001FA07F21043A063F0BD21B1426842F49C
:100BB0008052426003E0426822F4805242607047F3
:100BC00010B50A4600210023816B21F44011531E09
:100BD00041EA0351816310BD816841F008018160E1
:100BE000704708B5002300930090009B0B440093CE
:100BF000009B1A6008BD21B1826842F4A0028260A5
:100C000003E0826822F4A00282607047816841F0AC
:100C1000040181607047000008B500F0BDFC0121AF
:100C2000042000F0C3FB4FF40040ADF8000010209A
:100C30008DF8030003208DF802006946044800F097
:100C400001F94FF40041024800F0D2F908BD00005C
:100C5000000801402DE9F0411C48B0F8740084B24E
:100C600040F68C20844205DA194904F5617051F888
:100C7000200004E0A4F68C20154951F82000064617
:100C8000134850F8245029460020FFF7A3FA0746DE
:100C900031464FF08340FFF79DFA80463946FFF713
:100CA00093FA0A49C86031460020FFF793FA0746D5
:100CB00029464FF08340FFF78DFA80463946FFF70B
:100CC00031FA02490861BDE8F08100008439002052
:100CD0002400002010B54FF4806000F031FA01F0DC
:100CE00063F800F0DBF900F02FF800F039F8FFF7B7
:100CF00093FF4FF48071104800F078F945F23F00FF
:100D000000F030FC0D4908804FF480710A4800F073
:100D10006FF9642000F047F8002140F6CA0001F0A6
:100D200095F900F019FA00F0D1FA00F054F801201A
:100D30000349087010BD0000000C01401C00002099
:100D40001000002000BFFEE710B5002404E020469C
:100D500000F06AF9601CC4B20A2CF8DB10BD000078
:100D600008B50121082000F021FB4FF44070ADF8D8
:100D7000000003208DF8020010208DF80300694662
:100D8000074800F05FF84FF40071054800F030F9B3
:100D900000F096FB4FF48071014800F029F908BD7E
:100DA000000C0140704710B5044603E04FF47A7020
:100DB00000F005F8201EA4F10104F7D110BD30B5F4
:100DC000044600F017F9054600BF00F013F9401B78
:100DD000A042FAD330BD08B519208DF800000020DC
:100DE0008DF801008DF8020001208DF8030068469F
:100DF00000F06EF918208DF8000004208DF8010035
:100E000001208DF802008DF80300684600F060F9BB
:100E100012208DF8000002208DF8010000208DF8CE
:100E2000020001208DF80300684600F051F908BD6A
:100E300010B50121084600F0C9FA0021012000F098
:100E4000C5FA10BD2DE9F04102460025002600201C
:100E500000230024002791F803C00CF00F0591F83F
:100E600003C00CF0100CBCF1000F03D091F802C0CD
:100E70004CEA050591F800C0BCF1000F31D01468B0
:100E800000202BE04FF0010C0CFA00F3B1F800C089
:100E90000CEA03069E4220D183004FF00F0C0CFA9F
:100EA00003F7BC4305FA03FC4CEA040491F803C0C1
:100EB000BCF1280F06D14FF0010C0CFA00FCC2F86F
:100EC00014C00AE091F803C0BCF1480F05D14FF0FF
:100ED000010C0CFA00FCC2F810C0401C0828D1D349
:100EE0001460B1F800C0BCF1FF0F34DD546800207D
:100EF0002EE000F1080C4FF0010808FA0CF3B1F8ED
:100F000000C00CEA03069E4221D183004FF00F0C73
:100F10000CFA03F7BC4305FA03FC4CEA040491F80D
:100F200003C0BCF1280F05D100F1080C08FA0CF839
:100F3000C2F8148091F803C0BCF1480F07D100F14A
:100F4000080C4FF0010808FA0CF8C2F81080401C99
:100F50000828CED35460BDE8F0810000F0B50A4601
:100F6000002300240021002500F00046B6F1004FC8
:100F700002D11D4EF16901E01B4E7168C0F30345BB
:100F800083B200F44016B6F5401F08D121F070611D
:100F9000154E766826F07066134F7E6012E000F4FE
:100FA0008016B6F5801F06D1032606FA05F4A14384
:100FB00041F0706106E0460D360103FA06F6B143D2
:100FC00041F0706122B1460D360103FA06F6314355
:100FD00000F00046B6F1004F02D1034EF16101E08E
:100FE000014E7160F0BD000000000140416170479A
:100FF000016170470B4A11684FF0E02252694FF0CF
:10100000E0239B69D21A64235A434FF0E0235B69C3
:10101000B2FBF3F201EBC10303EB011302EB83001C
:10102000704700001800002070B5044604EB44002F
:10103000174951F8200004EB4401154A02EB8101E5
:101040004860FFF7D7FF0646FFF7C5FA0546114986
:10105000FFF7F2F804EB44010D4A42F8210004EBDB
:1010600044020B4B03EB8202516804EB440253F839
:101070002200FFF7A9F804EB4401054A02EB8101C5
:10108000886004EB4400114601EB8000806870BD6D
:10109000E43800200024744900BFFEE708B50121B0
:1010A000082000F083F94FF48050ADF800001020C4
:1010B0008DF8030003208DF8020069460148FFF710
:1010C000C1FE08BD000C014000BFFEE770470000F4
:1010D00070B5002100230F22C47804B3154C246896
:1010E00004F4E064C4F5E064210AC1F10403CA40D9
:1010F000447804FA03F184781440214309010E4C2A
:101100000678A155047804F01F050124AC40057849
:101110006D11AD0005F1E025C5F8004109E0047846
:1011200004F01F050124AC40044D0678761145F803
:10113000264070BD0CED00E000E400E080E100E03E
:1011400002490143024A1160704700000000FA059D
:101150000CED00E07047000000B587B001214802A7
:1011600000F024F90121880200F020F90121042077
:1011700000F01CF94FF4004000F0ECF87020ADF8DE
:10118000040000208DF8070001A94D48FFF75AFE22
:101190004C48FFF71FFC4FF4A020029001208DF86F
:1011A0000C008DF80D004FF4602004904FF40060A7
:1011B000059001208DF8180000214248FFF738FC07
:1011C00002A94048FFF788FC3F48FFF703FC0120D5
:1011D0008DF80C0000208DF80D004FF46020049075
:1011E0004FF40060059001208DF81800002136486A
:1011F000FFF71EFC02A93448FFF76EFC00213148BE
:10120000FFF7CCFB00212F48FFF7CFFC0022142171
:101210002C48FFF7E6FC002218212A48FFF7E1FCE2
:1012200000221C212748FFF7DCFC4FF480512548A1
:10123000FFF714FC03212348FFF7C2FC032301221C
:1012400006212048FFF770FC0323022205211D48D8
:10125000FFF76AFC03231A4604211A48FFF764FCCF
:1012600000211948FFF79AFB00211748FFF79DFC62
:10127000002214211448FFF7B4FC00221821124860
:10128000FFF7AFFC00221C210F48FFF7AAFC032147
:101290000D48FFF795FC0323012206210A48FFF7BA
:1012A00043FC0323022205210748FFF73DFC0323EB
:1012B0001A4604210448FFF737FC07B000BD0000C0
:1012C00000080140002401400028014010B501221F
:1012D0004FF490611D48FFF7F3FB01211C48FFF715
:1012E000B2FB01211948FFF769FB01211848FFF7FC
:1012F00065FB1648FFF770FC1548FFF76DFC00BF53
:101300001248FFF7D3FB0028FAD100BF1048FFF7BF
:10131000CDFB0028FAD101210C48FFF76CFC01211C
:101320000B48FFF768FC0948FFF770FC0848FFF717
:101330006DFC00BF0548FFF7B9FB0028FAD104484F
:10134000FFF7B4FB0028F5D110BD000000240140D8
:101350000028014001460020034A506820F4404024
:1013600008435060704700000010024029B1064A4F
:10137000D2690243044BDA6104E0034AD269824332
:10138000014BDA61704700000010024029B1064AA3
:1013900012690243044B1A6104E0034A1269824352
:1013A000014B1A61704700000010024029B1064A43
:1013B00092690243044B9A6104E0034A92698243B2
:1013C000014B9A61704700000010024029B1064AA3
:1013D000D2680243044BDA6004E0034AD2688243D5
:1013E000014BDA60704700000010024030B5002168
:1013F0000022002400232D4D6D6805F00C0121B161
:10140000042905D0082923D105E0294D056022E0F3
:10141000274D05601FE0254D6D6805F47012234DC2
:101420006D6805F48034022505EB92421CB9214D0C
:10143000554305600BE01D4D6D6805F400351DB189
:101440001C4D5543056002E0194D5543056002E00F
:10145000174D056000BF00BF144D6D6805F0F00129
:101460000909154D6B5C0568DD4045600F4D6D68E1
:1014700005F4E061090A104D6B5C4568DD4085604C
:101480000A4D6D6805F46051C90A0B4D6B5C4568E7
:10149000DD40C560054D6D6805F44041890B074D81
:1014A0006B5CC568B5FBF3F5056130BD001002400B
:1014B00000127A0000093D00AC380020BC38002042
:1014C00000B587B0012141F20D00FFF76FFF012148
:1014D0002148FFF743FD01210846FFF73FFD382073
:1014E000ADF8180003208DF81A0018208DF81B00A5
:1014F00006A91A48FFF7A6FC01210803FFF766FFBB
:1015000000214FF48050FFF761FF0020ADF8040088
:101510004FF48270ADF806004FF40060ADF808009B
:101520000020ADF80A000120ADF80C004002ADF833
:101530000E002820ADF810000020ADF812000720A2
:10154000ADF8140001A9064800F09EF801210448F6
:1015500000F080F807B000BD00023000000C014030
:101560000030014010B5044600BF0221094800F0D8
:101570007DF80028F9D0A1B2064800F083F800BF3A
:101580000121044800F072F80028F9D0014800F069
:1015900076F810BD0030014000B587B00121092068
:1015A000FFF704FF01218803FFF7E0FE4FF46040DE
:1015B000ADF8180003208DF81A0018208DF81B00D4
:1015C00006A91548FFF73EFC0020ADF804004FF4D3
:1015D0008270ADF806004FF40060ADF808000020FE
:1015E000ADF80A000120ADF80C004002ADF80E0085
:1015F0003020ADF810000020ADF812000720ADF843
:10160000140001A9054800F03FF80121034800F04B
:1016100021F807B000BD0000000C01400038004078
:1016200010B5044600BF0221094800F01FF8002849
:10163000F9D02146064800F025F800BF01210448F2
:1016400000F014F80028F9D0014800F018F810BD97
:101650000038004021B1028842F04002028004E0DC
:1016600002884FF6BF731A4002807047024600207E
:1016700013890B400BB1012000E0002070470146A8
:10168000888970478181704710B50022028802F472
:1016900041520B884C8823438C882343CC882343B6
:1016A0000C8923434C8923438C892343CC892343CE
:1016B0001A430280838B4FF2FF74234083830B8A8B
:1016C000038210BD704710B500F002F810BD000095
:1016D0000CB50020019000903348006840F4803041
:1016E0003149086000BF3048006800F400300090C5
:1016F0000198401C0190009818B90198B0F5A06FAE
:10170000F1D12948006800F4003010B101200090A8
:1017100001E0002000900098012843D12348006890
:1017200040F01000214908600846006820F00300DE
:1017300008600846006840F0020008601A484068E7
:10174000194948600846406848600846406840F4C7
:10175000806048600846406820F47C104860084675
:10176000406840F4E81048600846006840F0807027
:10177000086000BF0C48006800F000700028F9D035
:101780000948406820F0030007494860084640685F
:1017900040F00200486000BF0348406800F00C00C1
:1017A0000828F9D10CBD00000010024000200240C2
:1017B0002DE9F04F85B00027F64EF7480190F74924
:1017C000C868F749FEF706FD8046FEF716FFF549A3
:1017D0000860F2490869F249FEF7FCFC8046FEF712
:1017E0000CFFF1490860ED490869FEF706FFEB4977
:1017F000486108694FF08041FEF71EFD8246E748C8
:10180000C1683046FEF7E6FC83464FF08041FEF7A4
:1018100013FD81465146FEF7D7FC8046FEF7EDFEEC
:10182000DE49886108694FF08041FEF705FD86F0CA
:10183000004B0090D948C1685846FEF7CBFC824661
:101840004FF08041FEF7F8FC81460099FEF7BCFCA2
:101850008046FEF7D2FED149C8610846406900289B
:1018600001DD012000E000200490CC4880690028C0
:1018700001DD012000E000200390C848C069002875
:1018800001DD012000E00020029002988100022288
:10189000039802FB001104980844C7B2BF49486985
:1018A000FEF790FE83463146FEF794FC824601998E
:1018B000FEF7C2FC8146BD49FEF78CFC8046FEF770
:1018C0009CFEB64948618869FEF77CFE8346314636
:1018D000FEF780FC82460199FEF7AEFC8146B349D3
:1018E000FEF778FC8046FEF788FEAC498861C8693F
:1018F000FEF768FE83463146FEF76CFC824601998E
:10190000FEF79AFC8146A949FEF764FC8046FEF783
:1019100074FEA249C861072F78D2DFE807F0040BF4
:10192000529ADEF5F40040F265419C48C1620163C1
:101930004163B7E19948806944429848C06945428B
:1019400060199B4908600846006840F6CA01884251
:1019500006DD084660439649096890FBF1F000E017
:10196000204604469248006840F6CA01884206DDD7
:10197000084668438E49096890FBF1F000E028466C
:10198000054640F6CA01091B481BC11700EB9171BF
:101990008A1082490A63204604EBD0714A107F49BD
:1019A000096B0A447D49CA62284605EBD0714A108A
:1019B0007A49C96A0A4479494A6302207D49086024
:1019C00070E17648C06944427448406945426019F4
:1019D000774908600846006840F6CA01884206DD7B
:1019E000084660437249096890FBF1F000E0204628
:1019F00004466F48006840F6CA01884207DD084681
:101A000068436B49096890FBF1F001E049E1284621
:101A1000054640F6CA01091B481BC11700EB91712E
:101A20008A105E49CA62204604EBD0714A105B49B5
:101A3000C96A0A4459494A63284605EBD0714A10DD
:101A40005649496B0A4455490A63062059490860BA
:101A500028E152488469456960195549086008467B
:101A6000006840F6CA01884206DD084660435049D6
:101A7000096890FBF1F000E0204604464C480068FD
:101A800040F6CA01884206DD0846684348490968AD
:101A900090FBF1F000E02846054640F6CA01091B1C
:101AA000481BC11700EB91718A103C49CA6220465D
:101AB00004EBD0714A103949C96A0A4437490A63AC
:101AC000284605EBD0714A103449096B0A44334962
:101AD0004A63012037490860E4E0304840694442E5
:101AE0002E488069454260193149086008460068FF
:101AF00040F6CA01884208DD084660432C4909685F
:101B000090FBF1F002E088E030E0204604462848EF
:101B1000006840F6CA01884206DD08466843244949
:101B2000096890FBF1F000E02846054640F6CA013E
:101B3000091B481BC11700EB91718A1017494A63B2
:101B4000204604EBD0714A101449496B0A441349EA
:101B50000A63284605EBD0714A101049096B0A4404
:101B60000E49CA620420134908609BE00B4844698F
:101B7000C56960190E4908600846006840F6CA0148
:101B8000884219DD084660430949096890FBF1F075
:101B900013E00000D7B3DD3F0000C04184390020CE
:101BA0000000C842983800209C38002000A00C4556
:101BB000A4380020A0380020204604466948006868
:101BC00040F6CA01884206DD08466843654909684F
:101BD00090FBF1F000E02846054640F6CA01091BDB
:101BE000481BC11700EB91718A105F490A632046B8
:101BF00004EBD0714A105C49096B0A445A494A63A4
:101C0000284605EBD0714A105749496B0A4456499A
:101C1000CA6203205549086044E05348C469856995
:101C20006019504908600846006840F6CA018842B9
:101C300006DD084660434B49096890FBF1F000E07F
:101C4000204604464748006840F6CA01884206DD3F
:101C5000084668434349096890FBF1F000E02846D4
:101C6000054640F6CA01091B481BC11700EB9171DC
:101C70008A103D494A63204604EBD0714A103A4924
:101C8000496B0A443849CA62284605EBD0714A10AC
:101C90003549C96A0A4434490A6305203349086052
:101CA00000E000BF00BF3048C06A40F6CA0102220F
:101CB00002FB10102C4908600846006B40F6CA0170
:101CC00002FB1010284948600846406B40F6CA01E4
:101CD00002FB1010244988602CB925B940F6CA00CF
:101CE0000860486088602048006840F6CA01884261
:101CF00001DD084601E01C4800681B4908600846F1
:101D0000406840F6CA01884201DD084601E01648F5
:101D10004068154948600846806840F6CA01884214
:101D200001DD084601E0104880680F4988600846D8
:101D300000680F4908600C4840680E4908600A486E
:101D400080680D490860084800880C4908800648EA
:101D50008088091D088004480089091D088005B095
:101D6000BDE8F08FA438002084390020A03800207E
:101D70008C3800209038002094380020342C01400A
:101D8000042808D14FF0E021096941F004014FF027
:101D9000E022116107E04FF0E021096921F0040120
:101DA0004FF0E0221161704770B51948FFF71EFB34
:101DB0001748406842F21071B0FBF1F4E408214684
:101DC000B1F1807F00D31DE021F07F40401E4FF035
:101DD000E022506150170F22002807DA13071E0E69
:101DE0000C4B00F00F052D1F5E5503E013071D0E71
:101DF000094B1D5400BF00204FF0E02290610720E6
:101E0000106100BF6FF00400FFF7BAFF70BD000063
:101E1000D038002018ED00E000E400E010B51448D0
:101E20000068401C1249086012480088401C114993
:101E3000088008464088401C488008468088401C2E
:101E400088800846C088401CC88008460089401C1D
:101E5000088108464089401C488108468089401C0A
:101E600088810548007810B1084600F037F810BDA9
:101E700018000020C03800201000002010B51348C2
:101E8000006840F0010011490860084640681049A8
:101E900008400E494860084600680E4908400B4952
:101EA00008600846006820F4802008600846406802
:101EB00020F4FE0048604FF41F008860FFF703FC29
:101EC0004FF000600449086010BD0000001002409F
:101ED0000000FFF8FFFFF6FE08ED00E010B5044635
:101EE0002088012803DB00F02FF800202080608884
:101EF0000A2803DB00F07EF800206080A088142808
:101F000003DB00F09BF80020A080E088322803DB90
:101F100000F07CF80020E0802089642803DB00F0DA
:101F20006FF8002020816089C82803DB00F08CF85E
:101F300000206081A089B0F5FA7F03DB00F068F82B
:101F40000020A08110BD00002DE9F84F0220FFF70E
:101F50006BF8009000F0A4FC1E490888FEF740FBD7
:101F600080461D4A1D4BFEF7BEFA064600221C4B5A
:101F7000FEF747FA044600221A4BFEF79BF9824609
:101F8000FEF754FB4FF4B47190FBF1F201FB120029
:101F9000154908600846006800EB8000134909688D
:101FA00001EB400112484167406FB0F5616F03DB00
:101FB00000210F48416707E00D48406F002803DA11
:101FC00040F60F610A484167FEF744FEFFF7F0FB59
:101FD000BDE8F88F5C390020922449922449924050
:101FE00000807640000045400400002008000020EA
:101FF0008439002010B50120FFF716F8044610BD03
:1020000010B50220FFF710F8044610BD704700001D
:1020100008480078401CC0B2064908700A2807DD4D
:10202000002008700448006880F48050024908606D
:10203000704700000C0000200C0C014010B500207F
:10204000FEF7F2FF044610BD7047000030B58DB0BA
:1020500005460C4601210C20FFF7A8F9012140F6A6
:102060000100FFF7A3F94FF4F060ADF83000032052
:102070008DF8320018208DF833000CA95D48FEF76A
:10208000E1FE0320ADF830008DF8320018208DF805
:1020900033000CA95848FEF7D5FEFEF7C9FE012112
:1020A0005648FEF75BFF564800F006F9ADF8285099
:1020B000ADF824400020ADF82A002020ADF826001D
:1020C00001208DF82C0001214D4800F0BBF809A932
:1020D0004B4800F081FB0621494800F073FB1021BA
:1020E000474800F054FB7021454800F062FB002196
:1020F000434800F055FB0020ADF820006020ADF80B
:1021000014000020ADF82200ADF81E00ADF81C0050
:102110000120ADF816000420ADF818000020ADF83D
:102120001A0005A9364800F0D7F905A9344800F08F
:1021300029FA05A9324800F085FA7020ADF814009C
:1021400040F60E00ADF81A0005A92D4800F0D4FAAB
:1021500008212B4800F00CFA0821294800F064FA05
:102160000821274800F0BEFA0821254800F002FBAC
:102170000020ADF81000ADF80C00ADF80E001C20EA
:10218000ADF80A004FF48070ADF808008000ADF89B
:1021900006004000ADF8040001A9194800F05EF8FF
:1021A00001221021164800F08EF901221146144830
:1021B00000F089F901228021114800F084F9702192
:1021C0000F4800F0F6FA20210D4800F0F2FA012144
:1021D0000B4800F062F81021094800F061F9012174
:1021E000074800F05DF90121054800F04AF80DB0FC
:1021F00030BD000000080140000C01404000160006
:10220000002C014010B501210D4800F04BF918B128
:1022100001210B4800F032F81021094800F042F982
:1022200018B11021064800F029F82021044800F0D8
:1022300039F918B12021024800F020F810BD000043
:10224000002C014021B1028842F08002028004E0AB
:1022500002884FF67F731A40028070470A884B88C5
:102260001A438B881A43CB881A430B891A434B892C
:102270001A438B891A43A0F844207047CA4302824C
:10228000704721B1028842F00102028004E0028816
:102290004FF6FE731A400280704731B1B0F8442007
:1022A00042F40042A0F8442005E0B0F84420C2F314
:1022B0000E02A0F84420704710B5044668488442D6
:1022C00008D10121C014FFF781F80021E014FFF7C5
:1022D0007DF8C4E0B4F1804F08D101210846FFF732
:1022E00055F800210120FFF751F8B8E05D4884421D
:1022F00008D101210220FFF749F800210220FFF751
:1023000045F8ACE05848844208D101210420FFF789
:102310003DF800210420FFF739F8A0E0534884423B
:1023200008D101210820FFF731F800210820FFF72C
:102330002DF894E04E48844208D101211020FFF787
:1023400025F800211020FFF721F888E04948844251
:1023500008D101212020FFF719F800212020FFF7E4
:1023600015F87CE04448844208D101214014FFF76D
:102370002DF800216014FFF729F870E03F488442EF
:1023800009D10121C804FFF721F800214FF40020F2
:10239000FFF71CF863E03A48844209D1012108059F
:1023A000FFF714F800214FF48010FFF70FF856E004
:1023B0003448844209D101214805FFF707F800217C
:1023C0004FF40010FFF702F849E02F48844208D18B
:1023D00001214020FEF7DAFF00214020FEF7D6FF62
:1023E0003DE02A48844208D101218020FEF7CEFF3B
:1023F00000218020FEF7CAFF31E02548844208D141
:1024000001218015FEF7C2FF0021A015FEF7BEFFD7
:1024100025E02048844209D101210804FEF7D6FFB7
:1024200000214FF48030FEF7D1FF18E01A488442B3
:1024300009D101214804FEF7C9FF00214FF4003003
:10244000FEF7C4FF0BE01548844208D1012188043F
:10245000FEF7BCFF00214FF48020FEF7B7FF10BD50
:10246000002C01400004004000080040000C004027
:10247000001000400014004000340140004C0140B6
:10248000005001400054014000180040001C004072
:10249000002000400040014000440140004801404D
:1024A0008182704730B50246002000230024158A3F
:1024B00005EA0103958905EA010413B10CB1012075
:1024C00000E0002030BD1AB183890B43838102E014
:1024D00083898B438381704770B5002400220023D9
:1024E000058C4FF6FE7635400584028C8388048B7C
:1024F0004FF68F752C40B51E2C400D882C43751E51
:102500002A400D892A434D882A43144DA8420BD0F6
:10251000134DA84208D0134DA84205D0124DA84231
:1025200002D0124DA84213D14FF6F7752A404D89BB
:102530002A434FF6FB752A408D882A434FF6FF65E4
:102540002B404FF6FF552B408D892B43CD892B43D4
:1025500083800483CD888586028470BD002C014071
:102560000034014000400140004401400048014067
:102570000A460021018B4FF6F7731940114301837E
:102580007047000070B5002400220023058C4FF630
:10259000EF7635400584028C8388048B48F6FF75FE
:1025A0002C404FF6FF452C400D884FF6FF7606EA8B
:1025B00005252C434FF6DF752A400D8906EA0515DF
:1025C0002A434D8806EA05152A43154DA84202D034
:1025D000144DA8421DD14FF67F752A404D894FF604
:1025E000FF7606EA05152A434FF6BF752A408D8807
:1025F00006EA05152A434FF6FF352B404FF2FF75CB
:102600002B408D8906EA85052B43CD8906EA850591
:102610002B4383800483CD880587028470BD00002E
:10262000002C0140003401400A460021018B4FF28A
:10263000FF7319404FF6FF7303EA02231943018326
:102640007047000070B5002400220023058C4FF66F
:10265000FF6635400584028C8388848B4FF68F7526
:102660002C404FF6FC752C400D882C434FF6FF553F
:102670002A400D894FF6FF7606EA05252A434D8844
:1026800006EA05252A43154DA84202D0144DA8425A
:102690001DD14FF2FF752A404D894FF6FF7606EAAD
:1026A00005252A434FF6FF352A408D8806EA052581
:1026B0002A434EF6FF752B404DF6FF752B408D8952
:1026C00006EA05152B43CD8906EA05152B438380C1
:1026D0008483CD888587028470BD0000002C014072
:1026E000003401400A460021818B4FF6F7731940F0
:1026F000114381837047000070B50022002300243D
:10270000058C4EF6FF7635400584038C8488828BD9
:1027100048F6FF752A404FF6FF452A400D884FF6D0
:10272000FF7606EA05252A434DF6FF752B400D89F5
:1027300006EA05352B434D8806EA05352B430B4D3C
:10274000A84202D00A4DA84208D14BF6FF752C4092
:102750008D894FF6FF7606EA85152C4384808283A7
:10276000CD88A0F84050038470BD0000002C0140CB
:10277000003401400A460021818B4FF2FF7319405B
:102780004FF6FF7303EA02231943818370470A4619
:10279000002101894FF68F73194011430181704761
:1027A00002894FF67F731A40028102890A4302812F
:1027B000704782884FF68F731A40828082880A435E
:1027C0008280704702894FF6F8731A4002810289AD
:1027D0000A43028170470000002202881D4B984284
:1027E0000ED01D4B98420BD0B0F1804F08D01B4B40
:1027F000984205D01A4B984202D01A4B984204D105
:102800004FF68F731A404B881A43174B984207D0E4
:10281000164B984204D04FF6FF431A40CB881A4318
:1028200002808B8883850B8803850A4B98420BD0E6
:10283000094B984208D00E4B984205D00D4B984258
:1028400002D00D4B984201D10B7A0386012383827B
:1028500070470000002C014000340140000400409B
:1028600000080040000C0040001000400014004030
:1028700000400140004401400048014000BFFEE725
:1028800002E008C8121F08C1002AFAD17047704739
:10289000002001E001C1121F002AFBD17047000097
:1028A00010B54FF400410948FEF7A0FB4FF6FF704A
:1028B000FEF7B6FEC0F30D00054908804FF4004155
:1028C0000248FEF795FB012010BD00000008014002
:1028D0005C390020FEF7FEF900BFFEE7FC28000887
:1028E00000000020C038000018080008105F000831
:1028F000C038002050050000902800085200010355
:102900001CC8000100FF007DC3E43A68C3643B7348
:1029100092AB3B0EC3E43BBEF90E3CD8912B3CD1AD
:1029200029483CA1C1643CA2AC803C59F88E3CF4DF
:10293000439D3C708FAB3CC9DAB93CFE25C83C0ACC
:1029400071D63CEBBBE43C9F06F33C91A8003DB93B
:10295000CD073DC6F20E3DB617163D893C1D3D3CE8
:1029600061243DCE852B3D3EAA323D8ACE393DB114
:10297000F2403DB216483D8B3A4F3D3A5E563DBF60
:10298000815D3D17A5643D42C86B3D3DEB723D083E
:102990000E7A3D5198803D8429843D9CBA873D9AAA
:1029A0004B8B3D7BDC8E3D406D923DE8FD953D724D
:1029B0008E993DDD1E9D3D29AFA03D553FA43D6054
:1029C000CFA73D4A5FAB3D11EFAE3DB67EB23D367F
:1029D0000EB63D939DB93DCA2CBD3DDCBBC03DC785
:1029E0004AC43D8BD9C73D2768CB3D9AF6CE3DE51D
:1029F00084D23D0513D63DFAA0D93DC42EDD3D62FB
:102A0000BCE03DD34900FF00E43D16D7E73D2B6411
:102A1000EB3D11F1EE3DC77DF23D4D0AF63DA2962C
:102A2000F93DC522FD3D5B57003E391D023EFEE2E9
:102A3000033EA8A8053E386E073EAD33093E06F9B1
:102A40000A3E43BE0C3E65830E3E6948103E520D61
:102A5000123E1DD2133ECA96153E5A5B173ECB1F3F
:102A6000193E1EE41A3E52A81C3E666C1E3E5B30A8
:102A7000203E30F4213EE5B7233E797B253EEC3EF7
:102A8000273E3D02293E6DC52A3E7B882C3E664B83
:102A90002E3E2E0E303ED4D0313E5693333EB455AA
:102AA000353EED17373E03DA383EF39B3A3EBE5DC6
:102AB0003C3E631F3E3EE3E03F3E3CA2413E6F632F
:102AC000433E7A24453E5EE5463E1BA6483EAF6641
:102AD0004A3E1B274C3E5FE74D3E79A74F3E696754
:102AE000513E3027533ECDE6543E3FA6563E8765C5
:102AF000583EA3245A3E94E35B3E58A25D3EF160EB
:102B00005F3E5D1F613E00FF009CDD623EAD9B6449
:102B10003E9159663E4817683ECFD4693E28926B75
:102B20003E524F6D3E4D0C6F3E18C9703EB38572DC
:102B30003E1D42743E57FE753E5FBA773E3676794B
:102B40003EDC317B3E4FED7C3E90A87E3ECF318017
:102B50003E3C0F813E90EC813EC9C9823EE9A6838E
:102B60003EEE83843ED960853EA93D863E5E1A874F
:102B70003EF9F6873E78D3883EDCAF893E248C8AC6
:102B80003E51688B3E62448C3E57208D3E30FC8D1A
:102B90003EECD78E3E8CB38F3E0F8F903E756A9180
:102BA0003EBF45923EEB20933EFAFB933EEBD6941C
:102BB0003EBEB1953E748C963E0B67973E8541981C
:102BC0003EE01B993E1CF6993E3AD09A3E39AA9BAC
:102BD0003E18849C3ED95D9D3E7A379E3EFB109FF9
:102BE0003E5DEA9F3E9EC3A03EC09CA13EC175A231
:102BF0003EA24EA33E6327A43E0200A53E81D8A577
:102C00003EDEB0A63E1B8900FF00A73E3561A83E10
:102C10002F39A93E0611AA3EBBE8AA3E4FC0AB3EE3
:102C2000C097AC3E0E6FAD3E3A46AE3E431DAF3E42
:102C30002AF4AF3EEDCAB03E8DA1B13E0978B23E56
:102C4000624EB33E9624B43EA7FAB43E94D0B53E4D
:102C50005DA6B63E017CB73E8051B83EDB26B93E4C
:102C600011FCB93E21D1BA3E0CA6BB3ED27ABC3E85
:102C7000724FBD3EED23BE3E41F8BE3E6FCCBF3E1F
:102C800077A0C03E5974C13E1448C23EA81BC33E43
:102C900015EFC33E5BC2C43E7A95C53E7168C63E21
:102CA000413BC73EE90DC83E69E0C83EC1B2C93EDE
:102CB000F084CA3EF856CB3ED628CC3E8CFACC3EA9
:102CC00019CCCD3E7D9DCE3EB86ECF3EC93FD03EA5
:102CD000B010D13E6EE1D13E02B2D23E6C82D33E04
:102CE000AC52D43EC122D53EACF2D53E6CC2D63EEB
:102CF0000192D73E6B61D83EAA30D93EBEFFD93E85
:102D0000A6CEDA3E639DDB3E1CB5F36BDC3E583A43
:102D1000DD3E9008DE3E9CD6DE3E7CA4DF3E2F7278
:102D2000E03EB53FE13E0E0DE23E3ADAE23E39A723
:102D3000E33E0A74E43EAE40E53E240DE63E6CD927
:102D4000E63E85A5E73E7171E83E2E3DE93EBD08B1
:102D5000EA3E1DD4EA3E4E9FEB3E506AEC3E2335E0
:102D6000ED3EC7FFED3E3BCAEE3E7F94EF3E935EE5
:102D7000F03E7828F13E2CF2F13EB0BBF23E0485E5
:102D8000F33E274EF43E1917F53EDADFF53E6BA809
:102D9000F63ECA70F73EF738F83EF300F93EBEC87B
:102DA000F93E5690FA3EBC57FB3EF11EFC3EF3E561
:102DB000FC3EC2ACFD3E5F73FE3EC939FF3EAF0430
:102DC00000FF003F0263003FEAC5003FB928013F12
:102DD0006E8B013F09EE013F8A50023FF1B2023F84
:102DE0003E15033F7077033F89D9033F873B043F7C
:102DF0006B9D043F34FF043FE360053F77C2053F0E
:102E0000F123063F4F85063F93E6063FBC47073F49
:102E1000CAA8073FBD09083F946A083F51CB083F45
:102E2000F22B093F778C093FE2EC093F304D0A3F16
:102E300064AD0A3F7B0D0B3F776D0B3F56CD0B3FCB
:102E40001A2D0C3FC28C0C3F4EEC0C3FBE4B0D3F7D
:102E500011AB0D3F490A0E3F64690E3F62C80E3F39
:102E600044270F3F09860F3FB2E40F3F3E43103F18
:102E7000ADA1103F0000113F355E113F4DBC113F29
:102E8000491A123F2778123FE8D5123F8B33133F80
:102E90001191133F7AEE133FC54B143FF3A8143F33
:102EA0000306153FF562153FC9BF153F801C163F4D
:102EB0001879163F92D5163FEF31173F2D8E173FE9
:102EC0004D00FF00EA173F4E46183F31A2183FF66B
:102ED000FD183F9C59193F24B5193F8C101A3FD754
:102EE0006B1A3F02C71A3F0E221B3FFC7C1B3FCAD6
:102EF000D71B3F79321C3F098D1C3F7AE71C3FCB23
:102F0000411D3FFD9B1D3F10F61D3F03501E3FD747
:102F1000A91E3F8A031F3F1E5D1F3F93B61F3FE759
:102F20000F203F1B69203F30C2203F241B213FF868
:102F300073213FACCC213F4025223FB37D223F0689
:102F4000D6223F382E233F4986233F3BDE233F0BCB
:102F500036243FBA8D243F49E5243FB73C253F0442
:102F600094253F2FEB253F3A42263F2399263FECFD
:102F7000EF263F9246273F189D273F7CF3273FBE11
:102F800049283FDF9F283FDEF5283FBC4B293F788B
:102F9000A1293F11F7293F894C2A3FDFA12A3F137E
:102FA000F72A3F254C2B3F14A12B3FE1F52B3F8CFB
:102FB0004A2C3F159F2C3F7BF32C3FBE472D3FDF14
:102FC0009B2D00FF003FDDEF2D3FB9432E3F729751
:102FD0002E3F08EB2E3F7B3E2F3FCA912F3FF7E459
:102FE0002F3F0138303FE88A303FABDD303F4B3078
:102FF000313FC882313F21D5313F5727323F697970
:10300000323F58CB323F231D333FCA6E333F4DC052
:10301000333FAD11343FE862343F00B4343FF30432
:10302000353FC255353F6DA6353FF4F6353F57471E
:10303000363F9597363FAEE7363FA337373F748725
:10304000373F20D7373FA726383F0976383F47C557
:10305000383F6014393F5463393F22B2393FCC00C6
:103060003A3F514F3A3FB09D3A3FEAEB3A3FFF3982
:103070003B3FEE873B3FB8D53B3F5D233C3FDC7099
:103080003C3F35BE3C3F690B3D3F76583D3F5FA519
:103090003D3F21F23D3FBD3E3E3F338B3E3F84D717
:1030A0003E3FAE233F3FB26F3F3F90BB3F3F47079E
:1030B000403FD852403F439E403F88E9403FA534BF
:1030C000413F9D00FF007F413F6DCA413F171542C0
:1030D0003F9B5F423FF7A9423F2DF4423F3B3E43B7
:1030E0003F2388433FE3D1433F7D1B443FEF64448C
:1030F0003F3AAE443F5EF7443F5B40453F30894531
:103100003FDED1453F641A463FC362463FFAAA46B6
:103110003F0AF3463FF13A473FB182473F49CA472A
:103120003FBA11483F0259483F22A0483F1BE74899
:103130003FEB2D493F9374493F12BB493F6A014A17
:103140003F99474A3FA08D4A3F7ED34A3F34194BAF
:103150003FC25E4B3F26A44B3F62E94B3F762E4C6D
:103160003F60734C3F22B84C3FBBFC4C3F2B414D62
:103170003F72854D3F90C94D3F850D4E3F51514E99
:103180003FF3944E3F6DD84E3FBD1B4F3FE35E4F24
:103190003FE1A14F3FB5E44F3F5F27503FE069500B
:1031A0003F37AC503F64EE503F6830513F42725160
:1031B0003FF3B3513F79F5513FD536523F0878522E
:1031C0003F10B95210BD3FEFF9523FA33A533F2D84
:1031D0007B533F8DBB533FC3FB533FCE3B543FAF6D
:1031E0007B543F66BB543FF2FA543F533A553F8AF3
:1031F00079553F97B8553F78F7553F2F36563FBC26
:1032000074563F1DB3563F54F1563F5F2F573F4012
:103210006D573FF6AA573F80E8573FE025583F14C7
:1032200063583F1DA0583FFBDC583FAE19593F354E
:1032300056593F9192593FC2CE593FC70A5A3FA0B3
:10324000465A3F4E825A3FD0BD5A3F27F95A3F5205
:10325000345B3F516F5B3F24AA5B3FCCE45B3F474D
:103260001F5C3F97595C3FBA935C3FB2CD5C3F7E99
:10327000075D3F1D415D3F907A5D3FD7B35D3FF2F3
:10328000EC5D6810915E3FA25E5E3F38975E3FA1A5
:10329000CF5E3FDE075F3FEE3F5F3FD2775F3F8904
:1032A000AF5F3F14E75F3F711E603FA255603FA7CD
:1032B0008C603F7EC3603F28FA603FA630613FF7D5
:1032C00066613F1A9D613F11D3613FDA08623F7723
:1032D0003E623FE673623F28A9623F3DDE623F24C3
:1032E00013633FDE47633F6B7C633FCAB0633FFCC1
:1032F000E4633F0119643FD84C643F8180643FFD23
:10330000B3643F4BE7643F6B1A653F5E4D653F22F8
:1033100080653FB9B20812E51000FF0017663F6BE9
:1033200049663F4A7B663FFCAC663F7FDE663FD422
:103330000F673FFB40673FF471673FBFA2673F5B8A
:10334000D3673FC903683F0934683F1B64683FFE89
:1033500093683FB2C3683F39F3683F9022693FBA30
:1033600051693FB480693F80AF693F1DDE693F8C82
:103370000C6A3FCC3A6A3FDD686A3FBF966A3F738A
:10338000C46A3FF7F16A3F4D1F6B3F744C6B3F6C53
:10339000796B3F35A66B3FCED26B3F39FF6B3F75E4
:1033A0002B6C3F81576C3F5E836C3F0CAF6C3F8B47
:1033B000DA6C3FDB056D3FFB306D3FEC5B6D3FAD85
:1033C000866D3F3FB16D3FA2DB6D3FD5056E3FD8A7
:1033D0002F6E3FAC596E3F51836E3FC6AC6E3F0BB4
:1033E000D66E3F20FF6E3F06286F3FBC506F3F42B6
:1033F000796F3F99A16F3FC0C96F3FB6F16F3F7DB5
:1034000019703F1441703F7B68703FB28F703FB9B5
:10341000B6703F90DD703F37047110F53FAD2A71F3
:103420003FF450713F0A77713FF09C713FA6C27123
:103430003F2CE8713F810D723FA632723F9B57725D
:103440003F5F7C723FF3A0723F57C5723F8AE972BB
:103450003F8C0D733F5E31733F0055733F7078733F
:103460003FB19B733FC0BE733F9FE1733F4E0474F7
:103470003FCB26743F1849743F346B743F1F8D74E3
:103480003FDAAE743F63D0743FBCF1743FE4127511
:103490003FDB33753FA154753F3675753F9A95757F
:1034A0003FCDB5753FCED5753F9FF5753F3F15763E
:1034B0003FAE34763FEB53763FF772763FD291764C
:1034C0003F7CB0763FF5CE763F3CED763F520B77B2
:1034D0003F3729773FEA46773F6C64773FBD817776
:1034E0003FDC9E773FCABB773F86D8773F11F577A1
:1034F0003F6A11783F922D783F8849783F4D657833
:103500003FE080783F419C783F71B7783F70D27838
:10351000481CEA783FD707793F4022793F773C79CA
:103520003F7D56793F5170793FF389793F63A379A5
:103530003FA2BC793FAED5793F89EE793F32077A19
:103540003FA91F7A3FED377A3F00507A3FE1677A13
:103550003F917F7A3F0E977A3F59AE7A3F71C57A95
:103560003F58DC7A3F0DF37A3F90097B3FE01F7BA9
:103570003FFF357B3FEB4B7B3FA5617B3F2D777B4F
:103580003F838C7B3FA7A17B3F98B67B3F57CB7B8C
:103590003FE4DF7B3F3EF47B3F66087C3F5C1C7C66
:1035A0003F20307C3FB1437C3F10577C3F3C6A7CDE
:1035B0003F377D7C3FFE8F7C3F93A27C3FF6B47CFF
:1035C0003F27C77C3F25D97C3FF0EA7C3F89FC7CC4
:1035D0003FEF0D7D3F231F7D3F25307D3FF4407D34
:1035E0003F90517D3FFA617D3F31727D3F35827D55
:1035F0003F07927D3FA6A17D3F13B17DE8051035C1
:103600007D3F55CF7D3F29DE7D3FCBEC7D3F3BFBB2
:103610007D3F77097E3F81177E3F58257E3FFD32F3
:103620007E3F6E407E3FAD4D7E3FBA5A7E3F9367F0
:103630007E3F3A74101006807E3FEE8C201447982F
:103640007E3FD8A47E3F80B07E3FF6BB7E3F39C729
:103650007E3F49D27E3F26DD7E3FD0E77E3F48F267
:103660007E3F8CFC7E3F9E067F3F7C107F3F281A6A
:103670007F3FA1237F3FE72C7F3FF9357F3FD93E36
:103680007F3F86477F3C10617F3F47587F3F5C60AC
:103690007F3F3D687F3FEB6F7F3F66777F3FAE7E2A
:1036A0007F3FC3857F3FA58C7F3F54937F3FD09959
:1036B0007F3F19A07F3F2FA67F3F12AC7F3FC2B153
:1036C0007F3F3FB77F3F89BC7F3FA0C17F3F84C61C
:1036D0007F3F34CB7F3FB2CF7F3FFCD37F3F14D8B7
:1036E0007F3FF8DB7F3FA9DF7C1012E37F3F73E66B
:1036F0007F3F8BE97F3F70EC7F3F22EF341029F151
:103700007F3FECF37F3F05F67F3FEAF77F3F9DF970
:103710007F3F1CFB7F3F68FC7F3F81FD7F3F67FE53
:103720007F3F1AFF7F3F9A0412E6083004000080B2
:103730000821102118212021282130213821402161
:103740004821502158216021682170217821802151
:10375000882190219821A021A821B021B821C02141
:10376000C821D021D821E021E821F021F825002529
:103770000825102518252025282530253825402501
:1037800048255025582560256825702578258025F1
:10379000882590259825A025A825B025B825C025E1
:1037A000C84781B0D825E016EFE847AE80F8290079
:1037B00029081AAE104B6F402029282930293829B2
:1037C00040294829502958296029684BA7A1782900
:1037D0008029882990299829A029A829B01AF0B809
:1037E00029C029C829D029D829E04B94A2F029F86A
:1037F0004F3D6A08032D10032D18032D20031E676B
:1038000028032D30032D38032D40032D48032D5060
:10381000032D58032D60034FA66170032D78031EFE
:10382000E180032D88032D90031E5998034F72C524
:10383000A8032DB0032DB8031EE2C0031E01C80368
:103840004FEE37D8032DE0032DE8032DF0032DF8BC
:10385000032D00042D08042D10042D18044F783C6E
:1038600028042D30042D38042D40041E7248044FC6
:10387000429C58042D60042D68042D70042D78049A
:103880002D80042D88042D90042D98042DA0042D46
:10389000A8042DB0042DB8042DC0042DC8042DD0CB
:1038A000042DD8041ED3E0044FF872F0042DF80460
:1038B0002D00051EA008054FCFD518052D20052D7C
:1038C00028052D30052D38052D40052D48054F6460
:1038D000D058054F208D68052D70052D78052D8059
:1038E000051EA088054FC1BE98054F7178A8052D0B
:1038F000B0052DB8052DC0052DC8051EF4D0054F07
:10390000607CE0051EA7E8051E82F0052DF8051E67
:10391000A700064FF19C10062D18061EAE20062D9E
:1039200028062D30062D38062D40062D48062D5030
:10393000062D58064FB7F168062D70064F43798063
:10394000062D88064F21FF98062DA0062DA8061EDD
:10395000ADB0061ED9B8062DC0062DC8062DD0065E
:103960002DD8062DE0062DE8062DF0061E8CF80653
:103970001E0D00074F5F8310072D18072D20074FDE
:10398000CFD230072D38072D40071E4E48074FF87D
:10399000F158074FC09668072D70072D78074F1E06
:1039A000DE88072D90072D98071E91A0072DA807E8
:1039B0004FB3C3B8072DC0071E0AC8071ECAD007D9
:1039C0004F5CD3E0072DE8071EFCF0071ED5F80773
:1039D0002D00082D08084F4B7B18082D20081E23AA
:1039E00028081EBA30084F238040082D48082D5063
:1039F000082D58082D60082D68082D70081EFD78C8
:103A0000081ECB80081E6C88081EDF90081E2598B3
:103A1000082DA0082DA8082DB0082DB8081EDBC061
:103A2000082DC8084F1B9DD8082DE0084F29FAF033
:103A3000082DF8081EA300091E7208092D10091E82
:103A40008A18091ED320091EEF28091EDF30091E1F
:103A5000A238091E3940091EA348091EE150092D4C
:103A600058091ED860094F917A70092D78092D8068
:103A7000094FBB9390091E4898092DA0094F25AA0C
:103A8000B0092DB8092DC0094FD1BDD0091EA1D84C
:103A9000092DE0092DE8091E92F0091E36F8092DBE
:103AA000000A1EFC080A1E1E100A1E15180A2D20E8
:103AB0000A4F81E8300A2D380A1E60400A2D480A54
:103AC0004F1EB3580A1E30600A4F79F7700A1E8BDA
:103AD000780A1E54800A2D880A2D900A1EB0980A72
:103AE0001ECFA00A2DA80A1E8EB00A1E2EB80A1ECE
:103AF000A4C00A2DC80A1E11D00A1E09D80A1ED653
:103B0000E00A4F7AF5F00A1E43F80A1E69000B4FCF
:103B100065EE100B2D180B2D200B2D280B2D300BC7
:103B20001EE4380B2D400B2D480B4FF494580B2DF1
:103B3000600B1E91680B1E73700B1E2C780B1EBC45
:103B4000800B1E23880B1E61900B2D980B1E63A00B
:103B50000B4F27A4B00B1E35B80B1E7FC00B1EA148
:103B6000C80B1E9AD00B1E6BD80B4F13BBE80B2D46
:103B7000F00B2DF80B4F23A0080C2D100C1E4A182B
:103B80000C1EB2200C1EF2280C2D300C4FFBAA404C
:103B90000C1E65480C2D500C1E31580C1E5C600C20
:103BA0001E5F680C1E3B700C1EF0780C1E7E800C95
:103BB0004FE4D1900C1E3C980C2DA00C4FF8A9B0EE
:103BC0000C1E18B80C4F6ECAC80C1EA6D00C2DD8EF
:103BD0000C1E44E00C1ED9E80C1E48F00C2DF80C0D
:103BE0001EB3000D2D080D2D100D1E34180D1EBE18
:103BF000200D2D280D2D300D1E77380D2D400D4F29
:103C000036BE500D2D580D1EB9600D1EEF680D2DDE
:103C1000700D1EEB780D4FB19D880D1ECD900D4F90
:103C200023B2A00D2DA80D1E48B00D1E0AB80D1E02
:103C3000A8C00D2DC80D1E75D00D1EA4D80D4FAFF8
:103C4000E7E80D2DF00D1EF5F80D1E6E000E1EC3DB
:103C5000080E1EF4100E2D180E1EE9200E2D280E33
:103C60001E4E300E1ECB380E2D400E1E59480E2E05
:103C70006A500E1D580E1E22600E1EC9680E1E4C84
:103C8000700E1EAC780E1EE9800E1E02880E1EF805
:103C9000900E1ECB980E2DA00E2DA80E2DB00E1E30
:103CA000BAB80E1EDEC00E1EE0C80E1EBFD00E2D0E
:103CB000D80E2DE00E1E8DE80E1EE2F00E1E15F839
:103CC0000E3D000F1D080F1EE0100F1E8A180F4F2B
:103CD00012F7280F1EBD300F1EDF380F1EE0400FF9
:103CE0001EBF480F1E7D500F1E19580F1E93600FE8
:103CF0002D680F1E24700F1E3B780F4F30EB880F7E
:103D00001EB8900F1E4A980F1EBBA00F1E0CA80FC6
:103D10002DB00F1E4AB80F1E39C00F2DC80F2DD061
:103D20000F2DD80F1EADE00F1EF9E80F1E25F00F66
:103D30002DF80F1E1C00101EE808102D10101E1F5D
:103D400018101E8B20102D28101E0430101E113844
:103D5000101EFE40101ECC48101E7B50102E0A581C
:103D6000101D60104FCBD770101E0F78104F03C777
:103D700088101E8D90102D98101E9DA0101EF7A863
:103D8000101E32B0101E4FB8102DC0101E2EC810BD
:103D90002DD0101E93D8101E19E0102DE8101ECA49
:103DA000F0101EF6F8102D00111EF408111EC6109A
:103DB000111E7B18111E1220111E8C28112D30117E
:103DC0002D38112D40111E4E48111E3650112D5800
:103DD000111EAE60111E3F68111EB370111E0A78CD
:103DE000111E4580114F63C890112D98111E12A00D
:103DF000111EBFA8111E4FB0111EC3B8111E1BC04B
:103E0000114F57CDD0111E7CD8112DE0111E31E875
:103E1000112DF0111E78F8112D00122D08121E958B
:103E200010122D18122ECB20121D28121E943012A3
:103E30001E5038122D40121E7848121EE450121ED9
:103E40003558121E6C60121E8868121E8A70121E6F
:103E50007178122D80122D88122D90122D98122D0E
:103E6000A0121EBAA8121EEBB0121E03B8121E0139
:103E7000C0121ECAC8121E60D0121EC3D8121EF471
:103E8000E0121EF2E8121EBEF0121E58F8121EBFFB
:103E900000131EF508131EF910131ECB18131E6C09
:103EA00020131EDC28131E1B30131E2938131E0678
:103EB00040131EB248131E2E50131E7958131E9520
:103EC00060131E8068131E3C70131EC878131E25D5
:103ED00080131E5288131E5090131E1F98131EBF6E
:103EE000A0131E30A8131E73B0131E87B8131E6DC7
:103EF000C0131E25C8131EAFD0131E0CD8131E3AB4
:103F0000E0131E3CE8131E0FF0131EB6F8131E300C
:103F100000141E7D08141E9E10141E9218141E59A3
:103F200020141EF528141E6430141EA838141EC058
:103F300040141EAC48141E6D50141E0358141E6EFF
:103F400060141EAE68141EC370141EAE78141E6E6C
:103F500080141E0488141E7090141EB298141ECA79
:103F6000A0141EB9A8141E7FB0141E1BB8141E8EF8
:103F7000C0141ED8C8141EF9D0141EF2D8141EC2C4
:103F8000E0141E6BE8141EEBF0141E43F8141E73AD
:103F900000151E7C08151E5D10151E1718152EA97C
:103FA00020151D28151E5A30151E7938151E714012
:103FB000151E4348151EEE50151E7458151ED4606C
:103FC000151E0E68151E2370151E1278151EDD8035
:103FD000151E8288151E0290151E5E98151E96A04D
:103FE000151EA9A8151E98B0151E63B8151E0BC086
:103FF000151E8EC8151EEED0151E2BD8151E45E0B9
:10400000151E3CE8151E10F0151EC1F8151E5000B7
:10401000161EBD08161E0810161E3018161E372054
:10402000161E1C28161EE030161E8338161E04406D
:10403000161E6448161EA450161EC358161EC260D3
:10404000161EA068161E5E70161EFD78161E7B805A
:10405000161EDA88161E1A90161E3A98161E3BA0D7
:10406000161E1EA8161EE1B0161E87B8161E0DC01D
:10407000161E76C8161EC0D0161EEDD8161EFBE002
:10408000161EEDE8161EC0F0161E77F8161E11005B
:10409000171E8E08171EEE10171E3118171E5820F7
:1040A000171E6428171E5330171E2638171EDD40B2
:1040B000171E7948171EFA50171E6058171EAB605E
:1040C000171EDA68171EF070171EEA78171ECB80CD
:1040D000171E9188171E3E90171ED098171E93A08A
:1040E000171E52A8171EDFB0171E3AB8171E63C05E
:1040F000171E5AC8171E21D0171EB6D8171E1BE050
:10410000171E50E8171E56F0171E2CF8171ED30066
:10411000181E4B08181E9510181EB118181E9F2047
:10412000181E6028181EF430181E5C38181E9740A0
:10413000181EA648181E8A50181E4358181ED16013
:10414000181E3468181E6D70181E7C78181E628048
:10415000181E1F88181EB390181E1E98181E62A0E5
:10416000181E7EA8181E72B0181E40B8181EE6C091
:10417000181E67C8181EC1D0181EF6D8181E06E0F3
:10418000181EF1E8181EB7F0181E59F8181ED700AF
:10419000191E3208191E6910191E7E18191E712069
:1041A000191E4128191EEF30191E7C38191EE840CF
:1041B000191E3448191E5F50191E6A58191E556081
:1041C000191E2168191ECE70191E5D78191ECD802A
:1041D000191E2088191E5590191E6D98191E68A069
:1041E000191E47A8191E09B0191EB0B8191E3CC0E7
:1041F000191EACC8191C0602E3033E3DD8191E5E09
:10420000E0191ECCE8191EA9F0191E54F8191ECF8A
:10421000001A1E18081A1E32101A1E1D181A1EDA4D
:10422000201A1E69281A1ECB301A1C0601A1D93D7E
:104230000C401A1EEC481A1EA2501A1E2E581A1EA6
:1042400092601A1ECE681A1EE3701A1ED1781A1ECA
:104250009A801A1E3E881A1EBD901A1E18981A1EA1
:1042600051A01A1E67A81A1E5CB01A1E31B81A1E79
:10427000E5C01A1E79C81A1EEFD01A1E48D81A1E99
:1042800082E01A1EA1E81A1EA3F01A1E8BF81A1E4D
:1042900058001B1E17081B1E4C101B1E50181B1EFF
:1042A00025201B1ECD281B1E48301B1E99381B1EA7
:1042B000C0401B1EC0481B1E99501B1E4C581B1E85
:1042C000DD601B1E4A681B1E97701B1EC5781B1ED7
:1042D000D5801B1EC8881B1EA0901B1EBC981B1CD3
:1042E0000608BCE43C26A81B1C061A26C83CE6B8F7
:1042F0001B1E8DC01B1C0611449D3C76D01B1EBF8F
:10430000D81B1EDBE01B1C0A0A2A483C12922B3CDD
:10431000F8F81B1E82001C1EE5081C00FF0050C49C
:10432000643B4DC5E43A9C2A6633B6C1E4BA84C204
:1043300064BBFF91ABBB9CC2E4BB85F90EBC9E91F4
:104340002BBC972948BC68C164BC85AC80BC3DF8D7
:104350008EBCD7439DBC538FABBCADDAB9BCE12555
:10436000C8BCED70D6BCCFBBE4BC8206F3BC83A84E
:1043700000BDABCD07BDB8F20EBDA81716BD7B3C86
:104380001DBD2D6124BDC0852BBD30AA32BD7CCEA4
:1043900039BDA3F240BDA41648BD7C3A4FBD2C5E8A
:1043A00056BDB0815DBD09A564BD33C86BBD2FEBA3
:1043B00072BDFA0D7ABD4A9880BD7D2984BD95BA3B
:1043C00087BD924B8BBD74DC8EBD396D92BDE1FD16
:1043D00095BD6B8E99BDD61E9DBD22AFA0BD4E3F33
:1043E000A4BD59CFA7BD435FABBD0AEFAEBDAE7E46
:1043F000B2BD2F0EB6BD8C9DB9BDC32CBDBDD5BB06
:10440000C0BDC04AC4BD84D9C7BD2068CBBD93F62A
:10441000CEBDDD84D2BDFD12D6BDF3A01CAAD9BD90
:10442000BD2EDDBD5BBCE0BDCB49E4BD0FD7E7BD14
:104430002464EBBD0AF1EEBDC07DF2BD460AF6BDB7
:104440009B96F9BDBE22FDBD575700BE361D02BE6C
:10445000FAE203BEA5A805BE346E07BEA93309BEA5
:1044600002F90ABE40BE0CBE61830EBE664810BE95
:104470004E0D12BE19D213BEC69615BE565B17BEA0
:10448000C71F19BE1AE41ABE4EA81CBE636C1EBE1E
:10449000573020BE2DF421BEE1B723BE757B25BE6B
:1044A000E83E27BE3A0229BE69C52ABE77882CBEDF
:1044B000624B2EBE2B0E30BED0D031BE529333BED7
:1044C000B05535BEEA1737CF1900FF0038BEEF9B55
:1044D0003ABEBA5D3CBE601F3EBEDFE03FBE39A2C1
:1044E00041BE6B6343BE772445BE5BE546BE17A65F
:1044F00048BEAC664ABE18274CBE5BE74DBE75A7EA
:104500004FBE666751BE2D2753BECAE654BE3CA6B9
:1045100056BE836558BE9F245ABE90E35BBE55A22B
:104520005DBEED605FBE591F61BE98DD62BEAA9B95
:1045300064BE8E5966BE441768BECCD469BE25924F
:104540006BBE4F4F6DBE490C6FBE14C970BEAF85B8
:1045500072BE1A4274BE53FE75BE5CBA77BE337625
:1045600079BED8317BBE4BED7CBE8CA87EBECD31F2
:1045700080BE3A0F81BE8EEC81BEC7C982BEE7A65F
:1045800083BEEC8384BED76085BEA73D86BE5C1A21
:1045900087BEF7F687BE76D388BEDAAF89BE228C97
:1045A0008ABE4F688BBE60448CBE55208DBE2EFCEB
:1045B0008DBEEAD78EBE8AB38FBE0D8F90BE746A51
:1045C00091BEBD4592BEE92093BE00FF00F8FB936B
:1045D000BEE9D694BEBDB195BE728C96BE0A6797F1
:1045E000BE834198BEDE1B99BE1AF699BE38D09A9A
:1045F000BE37AA9BBE16849CBED75D9DBE78379EF3
:10460000BEF9109FBE5BEA9FBE9DC3A0BEBE9CA12B
:10461000BEC075A2BEA14EA3BE6127A4BE0000A568
:10462000BE7FD8A5BEDDB0A6BE1989A7BE3461A8DD
:10463000BE2D39A9BE0411AABEBAE8AABE4DC0ABB0
:10464000BEBE97ACBE0D6FADBE3946AEBE421DAF0D
:10465000BE28F4AFBEEBCAB0BE8BA1B1BE0778B224
:10466000BE604EB3BE9524B4BEA6FAB4BE93D0B518
:10467000BE5BA6B6BEFF7BB7BE7F51B8BED926B91A
:10468000BE0FFCB9BE1FD1BABE0BA6BBBED07ABC52
:10469000BE714FBDBEEB23BEBE3FF8BEBE6ECCBFEB
:1046A000BE76A0C0BE5774C1BE1248C2BEA61BC310
:1046B000BE13EFC3BE59C2C4BE7895C5BE7068C6EE
:1046C000BE3F3BC7BEE70DC8BE67E000FF00C8BEE7
:1046D000BFB2C9BEEF84CABEF656CBBED528CCBE8B
:1046E0008BFACCBE17CCCDBE7B9DCEBEB66ECFBEF8
:1046F000C73FD0BEAF10D1BE6DE1D1BE01B2D2BEB8
:104700006B82D3BEAA52D4BEC022D5BEAAF2D5BEF9
:104710006BC2D6BE0092D7BE6A61D8BEA930D9BEE0
:10472000BCFFD9BEA5CEDABE619DDBBEF16BDCBE9F
:10473000563ADDBE8E08DEBE9AD6DEBE7AA4DFBE55
:104740002D72E0BEB33FE1BE0C0DE2BE38DAE2BE30
:1047500037A7E3BE0874E4BEAC40E5BE220DE6BE5A
:104760006AD9E6BE84A5E7BE7071E8BE2D3DE9BEFC
:10477000BB08EABE1BD4EABE4D9FEBBE4F6AECBE3F
:104780002135EDBEC5FFEDBE39CAEEBE7D94EFBE4C
:10479000925EF0BE7628F1BE2BF2F1BEAFBBF2BE48
:1047A0000285F3BE254EF4BE1817F5BED9DFF5BE5F
:1047B00069A8F6BEC870F7BEF638F8BEF200F9BEBA
:1047C000BCC8F9BE5490FABEBB57FBBE1C39EF1EE5
:1047D000FCBEF1E5FCBEC0ACFDBE5D73FEBEC739DC
:1047E000FFBEFEFFFFBE016300BFE9C500BFB828E2
:1047F00001BF6D8B01BF08EE01BF895002BFF0B24F
:1048000002BF3D1503BF201C1C3EBF88D903BF86D5
:104810003B04BF6A9D04BF33FF04BFE26005BF765F
:10482000C205BFF02306BF4E8506BF92E606BFBB9A
:104830004707BFC9A807BFBC0908BF936A08BF5094
:10484000CB08BFF12B09BF201C1C06BFE1EC09BF40
:10485000201C1C0EBF63AD0ABF7A0D0BBF766D0B1B
:10486000BF201C1EBF201C1EBF201C1C0ABF4DECFD
:104870000CBFBD4B0DBF201C1C12BF480A0EBF63EE
:10488000690EBF61C80EBF43270FBF201C1C0ABFA3
:10489000B1E40FBF3D4310BF201C1C0ABFFFFF1037
:1048A000BF345E11BF201C1C12BF481A12BF2678ED
:1048B00012BFE7D512BF8A3313BF201C1C22BF7959
:1048C000EE13BFC44B14BFF2A814BF020615BFF409
:1048D0006215BFC8BF15BF7F1C16BF177916BF2052
:1048E0001C1C0EBFEE3117BF2C8E17BF4CEA17BF32
:1048F000201C1EBF201C1C0EBFF5FD18BF9B5919A4
:10490000BF23B519BF201C1C22BFD66B1ABF01C71D
:104910001ABF0D221BBFFB7C1BBFC9D71BBF783240
:104920001CBF088D1CBF79E71CBF201C1EBF201CAC
:104930001C0EBF0FF61DBF02501EBFD6A91EBF2002
:104940001C1EBF201C1C0ABF92B61FBFE60F20BF53
:10495000201C1C22BF2FC220BF231B21BFF77321A5
:10496000BFABCC21BF3F2522BFB27D22BF05D622DF
:10497000BF372E23BF201C1C0ABF3ADE23BF0A36D6
:1049800024BF201C1C0EBF48E524BFB63C25BF0336
:104990009425BF201C1C06BF394226BF201C1C06C4
:1049A000BFEBEF26BF201C1C0ABF179D27BF7BF360
:1049B00027BF201C1EBF201C1EBF201C1C0ABFBB03
:1049C0004B29BF77A129BF201C1EBF201C1C12BF72
:1049D000DEA12ABF12F72ABF244C2BBF13A12BBF85
:1049E000201C1C0EBF8B4A2CBF149F2CBF7AF32CAB
:1049F000BF201C1C06BFDE9B2DBF201C1C12BFB895
:104A0000432EBF71972EBF07EB2EBF7A3E2FBF20DC
:104A10001C1EBF201C1EBF201C1C06BFE78A30BF07
:104A2000201C1EBF201C1C06BFC78231BF201C1EBD
:104A3000BF201C1EBF201C1C0EBF57CB32BF221D27
:104A400033BFC96E33BF201C1C06BFAC1134BF205E
:104A50001C1C0ABFFFB334BFF20435BF201C1EBFAD
:104A6000201C1EBF201C1C0ABF564736BF94973619
:104A7000BF201C1EBF201C1C0EBF738737BF1FD753
:104A800037BFA62638BF201C1C0EBF46C538BF5FE7
:104A90001439BF536339BF201C1C16BFCB003ABF6B
:104AA000504F3ABFAF9D3ABFE9EB3ABFFE393BBF2B
:104AB000201C1EBF201C1C12BF5C233CBFDB703CB3
:104AC000BF34BE3CBF680B3DBF201C1C0EBF5EA5A3
:104AD0003DBF20F23DBFBC3E3EBF201C1C10BF832B
:104AE000D73EBFAD233FBFB16F3FBF8FBB3F0E1C53
:104AF000040740BF201C1EBF201C1C06BF87E940C6
:104B0000BF201C1C06BF9C7F41BF201C1EBF201C59
:104B10001C0EBF9A5F42BFF6A942BF2CF442BF20D1
:104B20001C1C06BF228843BF201C1C06BF7C1B44E4
:104B3000BF201C1EBF201C1EBF201C1C06BF5A40CD
:104B400045BF201C1C06BFDDD145BF201C1C0EBF6D
:104B5000C26246BFF9AA46BF09F346BF201C1EBF6A
:104B6000201C1EBF201C1C0ABFB91148BF01594898
:104B7000BF201C1C0EBF1AE748BFEA2D49BF927424
:104B800049BF201C1C06BF69014ABF201C1C06BF70
:104B90009F8D4ABF201C1EBF201C1C06BFC15E4B40
:104BA000BF201C1EBF201C1C06BF752E4CBF201C26
:104BB0001EBF201C1C1ABFBAFC4CBF2A414DBF713E
:104BC000854DBF8FC94DBF840D4EBF50514EBF2084
:104BD0001C1C0ABF6CD84EBFBC1B4FBF201C1C1630
:104BE000BFE0A14FBFB4E44FBF5E2750BFDF6950A5
:104BF000BF36AC50BF201C1EBF201C1EBF201C1C7B
:104C000006BFF2B351BF201C1EBF201C1C06BF07ED
:104C10007852BF201C1C06BFEEF952BF201C1EBFDD
:104C2000201C1EBF201C1C06BFC2FB53BF201C1E25
:104C3000BF201C1C0ABF65BB54BFF1FA54BF201C27
:104C40001EBF201C1C06BF96B855BF201C1EBF20CF
:104C50001C1C06BFBB7456BF201C1C06BF53F1565C
:104C6000BF201C1EBF201C1C06BFF5AA57BF201C5E
:104C70001C06BFDF2558BF201C1EBF201C1EBF20E6
:104C80001C1C06BFAD1959BF201C1EBF201C1C0ACE
:104C9000BFC1CE59BFC60A5ABF201C1C06BF4D82D9
:104CA0005ABF201C1C0EBF26F95ABF51345BBF509F
:104CB0006F5BBF201C1C06BFCBE45BBF201C1C0627
:104CC000BF96595CBF201C1EBFA0121C0ABF7D07E7
:104CD0005DBF1C415DBF201C1EBF201C1C06BFF118
:104CE000EC5DBF201C1EBF201C1EBF201C1EBF2051
:104CF0001C1EBF201C1EBF201C1EBF201C1EBF2050
:104D00001C1C06BF13E75FBF201C1EBF201C1C0A13
:104D1000BFA68C60BF7DC360BF201C1EBF201C1CB3
:104D200006BFF66661BF201C1C06BF10D361BF2002
:104D30001C1C06BF763E62BF70131EBF78131C0694
:104D4000BF3CDE62BF201C1EBF201C1EBF201C1EDD
:104D5000BF201C1EBF201C1C0ABF001964BFD74CFB
:104D600064BF201C1C0ABFFCB364BF4AE764BF20B9
:104D70001C1C06BF5D4D65BF201C1EBF201C1EBF36
:104D8000201C1C06BF5D1766BF08141EBF201C1C1C
:104D900006BFFBAC66BF20141EBF201C1EBF201C1C
:104DA0001EBF38141C06BFBEA267BF201C1EBF203A
:104DB0001C1EBF201C1C0ABF1A6468BFFD9368BF7D
:104DC000201C1C06BF38F368BF201C1C06BFB9514D
:104DD00069BF90141EBF98141EBF201C1EBF201C4C
:104DE0001C06BFCB3A6ABFB8141EBF201C1C06BFEE
:104DF00072C46ABF201C1EBF201C1EBF201C1C0AC0
:104E0000BF6B796BBF34A66BBF201C1EBF00151C87
:104E100006BF742B6CBF10151EBF201C1EBF201CAC
:104E20001EBF201C1C06BFDA056DBF201C1C06BF60
:104E3000EB5B6DBF48151EBF50151C0ABFA1DB6D93
:104E4000BFD4056EBF201C1EBF201C1EBF201C1C13
:104E500006BFC5AC6EBF88151EBF201C1EBF201C20
:104E60001EBF201C1EBF201C1EBF201C1C06BFBF57
:104E7000C96FBF201C1EBFC8151EBFD0151EBF2086
:104E80001C1EBF201C1EBFE8151C0ABF8FDD70BF93
:104E9000360471BF201C1C06BFF35071BF10161ED4
:104EA000BF201C1EBF201C1EBF28161EBF201C1E9C
:104EB000BF201C1EBF40161EBF201C1EBF201C1C76
:104EC0000ABF56C572BF89E972BF68161EBF701649
:104ED0001C06BFFF5473BF201C1C06BFB09B73BFD2
:104EE000201C1EBF201C1C06BF4D0474BFA8161E2C
:104EF000BFB0161EBF201C1EBF201C1C06BFD9AE93
:104F000074BF201C1EBF201C1EBF201C1EBFE81625
:104F10001C12BFA05475BF357575BF999575BFCC70
:104F2000B575BF201C1EBF201C1EBF201C1C06BF49
:104F3000AD3476BF201C1EBF201C1EBF201C1EBF10
:104F4000201C1EBF50171EBF58171EBF60171EBF64
:104F5000201C1EBF201C1EBF78171C06BFBC8177FB
:104F6000BF201C1C06BFC9BB77BF98171EBFA01768
:104F70001EBF201C1EBF201C1EBFB8171EBF201C3A
:104F80001EBFC8171EBF201C1EBF201C1005BF6FF0
:104F9000D278481F78BF201C1EBFF8171EBF201CE8
:104FA0001EBF08181EBF201C1EBF201C1EBF2018BD
:104FB0001C06BFA1BC79BF30181EBF38181EBF2009
:104FC0001C1C06BFA81F7ABF201C1EBF201C1EBFB2
:104FD000201C1C0EBF907F7ABF0D977ABF58AE7A07
:104FE000BF201C1EBF201C1EBF201C1EBF201C1E5D
:104FF000BF201C1EBF201C1EBFB0181EBF201C1EC1
:10500000BFC0181EBF201C1C06BFA6A17BBFD8189E
:105010001D84051F7BBFE8181EBFF0181EBF201C93
:105020001EBF00191EBF201C1EBF10191EBF18195D
:105030001EBF201C1C06BF367D7CBF201C1EBF204F
:105040001C1EBF40191EBF48191C06BF24D97CBFB7
:10505000201C1EBF60191EBF201C1EBF70191EBF62
:10506000201C1C06BFF3407DBF201C1C06BFF9613D
:105070007DBF98191EBFA0191EBF201C11701F7D77
:10508000BFB8191DE8051C077DBF54CF7DBF201C8C
:105090001EBF201C1C06BF3AFB7DBF201C1EBFF09C
:1050A000191EBF201C1EBF201C1EBF201C1EBF209F
:1050B0001C1C06BFB95A7EBF201A1EBF201C1EBF73
:1050C000201C1EBF201C1EBF401A1EBF481A1EBF38
:1050D000201C1EBF581A1EBF601A1EBF681A1EBFB2
:1050E000201C1EBF201C1EBF801A1EBF201C1EBFFE
:1050F000901A1EBF981A1EBF201C1EBF201C1C0623
:10510000BFE62C7FBFB81A1EBFC01A1EBFC81A1533
:105110003C1F7FBF201C1C06BF5B607FBF201C1E86
:10512000BF201C1EBFF81A1EBF201C1EBF081B1E5E
:10513000BF101B1EBF201C1EBF201B1EBF281B1E16
:10514000BF301B1EBF201C1EBF201C1EBF481B1EC5
:10515000BF201C1EBF581B1C06BF83C67FBF201C60
:105160001EBF201C1EBF781B1EBF801B1EBF201C25
:105170001EBF901B1EBF981B1EBF201C1EBFA81B5E
:105180001EBFB01B1EBF201C1EBF201C1EBFC81B85
:105190001EBFD01B1EBF201C1EBFE01B1EBFE81B76
:1051A0001EBF201C1EBFF81B1EBF001C1EBF201CE4
:1051B0001EBF201C1EBF181C1EBF201C3108211042
:1051C0002118212021282130213821402148215037
:1051D000215843A1F168217021782180218843AAB8
:1051E000DF9821A021A821B021B81D201C31C821A1
:1051F000D021D821E021E821F021F825002508253B
:1052000010251825202528253025381D201C17BFDE
:10521000484847015058256016FA681D901D35789A
:10522000258025882590259825A025A825B025B876
:1052300025C025C81D201C35D825E01D201C1EBFFB
:10524000201C35F829001D201C1EBF201C1EBF205D
:105250001C39204B59253029381D201C394829502C
:105260001D201C396029681D201C39782980298857
:105270001D201C39981DC01E39A81A24B01D201CE1
:1052800039C029C81DF01E39D81AF7E01D201C3975
:10529000F01D181F1EBF201C3D08032D10032D18E4
:1052A000031E5D20031D201C4C04BF3FF438032D5A
:1052B00040032D48031D701F3D58031E2E60031D23
:1052C000201C4C04BFEC4B78031D201C3D88031EA2
:1052D0000E90031D201C1EBF201C1EBFC81F1EBF1A
:1052E000201C1EBF201C1EBF201C153C1F7ABF2087
:1052F0001C1EBFF81F3DE0032DE8031EAFF0031D89
:1053000018204C04BF64A308042D10042D18041D9C
:10531000201C3D28042D30041E3D38041D201C1E79
:10532000BF201C1EBF201C3D58042D60044F89491E
:1053300070041E6B78042D80042D88041D201C3DF4
:1053400098041DC0201FBF6DA8044FEB46B8041E73
:1053500053C0044F3DEDD0041E7DD8041D201C1EFB
:10536000BF201C1FBFECF0041D18213D00051D20AF
:105370001C1EBF201C1EBF38211EBF40211EBF2087
:105380001C1EBF201C3D38052D40051EBD48051DB7
:10539000201C1EBF78211EBF201C1FBF3568051EA4
:1053A0001970051ECC78051DA0211EBF201C1EBF34
:1053B000201C1EBFB8211EBF201C1EBFC8211FBF3E
:1053C0005FB0051E8DB8051DE0211EBF201C1EBF4D
:1053D000201C1EBF201C1FBF9CE0051D201C1EBFE3
:1053E000201C3DF8051D201C1EBF201C1FBF0B10DC
:1053F000061D201C1EBF201C1EBF48221EBF201CD5
:105400003D38061EB340061E7C48061E1550061E7B
:105410007E58061D201C1EBF88221FBF9A70061DC5
:10542000201C1FBFBD80061E0788061D201C3D983E
:10543000061D201C3DA8061D201C1EBF201C1EBFD3
:10544000E0221EBFE8221FBF40D0061EAED8061DB8
:10545000201C1FBFFCE8061D10231EBF201C1EBF02
:10546000201C1EBF201C1FBF8210071D38231FBF1A
:105470003A20071D201C1EBF50231FBF6D38071E7A
:105480007540071D201C1EBF201C1FBF7458071D20
:10549000201C1FBFDE68071ECD70071E8D78071DFC
:1054A000201C1FBF8188071EB590071DB8231EBF93
:1054B000201C1EBF201C1EBF201C1FBFFFB8071DC5
:1054C000E0231EBF201C1EBF201C1EBF201C1FBFB0
:1054D000C0E0071EF5E8071D201C1EBF201C1FBFD3
:1054E0008000081D28241EBF201C1FBF6C18081E2A
:1054F0005F20081D201C1EBF201C1EBF201C1EBFBD
:10550000201C1FBF6C48081D201C1EBF201C1FBF75
:105510008260081D88241FBF0270081D201C1EBF4A
:10552000201C1EBF201C1EBF201C1EBF201C1FBF16
:105530003EA0081E29A8081EE7B0081E78B8081D5E
:10554000201C1FBF12C8081D201C1EBF201C1FBF0F
:10555000A7E0081D201C1FBF7FF0081D201C1EBFD8
:10556000201C1EBF201C1EBF201C1EBF201C1EBFD7
:10557000201C1EBF201C1EBF201C1EBF201C1EBFC7
:10558000201C1EBF201C1EBF201C1FBFF358091D5E
:10559000201C1EBF201C1FBF1E70091D201C1FBF0A
:1055A000B380091D201C1FBF9890091D201C1EBF21
:1055B000C0251EBF201C1FBF52B0091E53B8091EB4
:1055C00028C0091D201C1FBF4FD0091D201C1FBF54
:1055D000C8E0091EC3E8091D201C1EBF201C1FBFF8
:1055E000AF000A1D201C1EBF201C1EBF201C1168FE
:1055F0001F58BF201C1FBFF7300A1E41380A1D204C
:105600001C1FBF55480A1D201C1FBFBD580A1D2066
:105610001C1EBF201C1FBF98700A1D201C1EBF200F
:105620001C1FBFF3880A1E67900A1D201C1EBF2086
:105630001C1FBFC4A80A1D201C1EBF201C1EBF208B
:105640001C1FBFF0C80A1E12D00A1D201C1FBFD786
:10565000E00A1D201C1FBFF4F00A1D201C1EBF20E5
:105660001C1FBF66080B1E38100B1EE1180B1E60B6
:10567000200B1EB6280B1EE2300B1D201C1FBFBEC8
:10568000400B1E6E480B1D201C1FBF52580B1E8660
:10569000600B1D201C1EBF201C1EBF201C1EBF2017
:1056A0001C1EBF201C1EBF201C1FBF77980B1D2077
:1056B0001C1EBF201C1FBFC3B00B1D201C1EBF2003
:1056C0001C1EBF201C1EBF201C1EBF201C1FBF1481
:1056D000E00B1E94E80B1EECF00B1E1CF80B1D20BB
:1056E0001C1FBF03080C1EBB100C1D201C1EBF205E
:1056F0001C1EBF201C1FBF0B300C1D201C1FBFC455
:10570000400C1D201C1FBFDF500C1D201C1EBF2085
:105710001C1FBF60680C1E3C700C1D201C1EBF208F
:105720001C1FBFE5880C1E24900C1D201C1FBF2EC3
:10573000A00C1D201C1FBF9CB00C1E19B80C1E6FA6
:10574000C00C1E9EC80C1EA7D00C1E89D80C1D2094
:105750001C1FBFDAE80C1D201C1FBF91F80C1D2078
:105760001C1FBFAF080D1E85100D1E35180D1D2006
:105770001C1FBF22280D1E60300D1E78380D1E6ABA
:10578000400D1D201C1FBFDD500D1E5E580D1D203D
:105790001C1FBFF0680D1C05003A3BBF201C1EBF3C
:1057A000201C1FBF52880D1D201C1FBF24980D1EDA
:1057B00055A00D1E61A80D1D201C1FBF0BB80D1D8F
:1057C000201C1FBF21C80D1D201C1FBFA5D80D1EEA
:1057D000B0E00D1E96E80D1E58F00D1D201C1FBFD9
:1057E0006F000E1EC4080E1D201C1C06BF01B43421
:1057F000BF201C1FBFAE280E1E4F300E1D201C1FC9
:10580000BF24400E1D201C1DC40A1F32BF201C1FB8
:10581000BF23600E1D201C1FBF4D700E1EAD780EE5
:105820001D201C1FBF03880E1EF9900E1ECC980E63
:105830001E7CA00E1E09A80E1E73B00E1D201C1F7C
:10584000BFDFC00E1D201C1FBFC0D00E1E7CD80E97
:105850001E16E00E1D201C1FBFE3F00E1D201C1F96
:10586000BF26000F1D201C1D200D1C042ABF8B18F5
:105870000F1E13200F1E79280F1D201C1FBFE0389C
:105880000F1EE1400F1EC0480F1D201C1EBF201C14
:105890001FBF94600F1EED680F1E25700F1D201C8A
:1058A0001FBF31800F1E05880F1D201C1EBF201C2E
:1058B0001FBFBCA00F1D201C1D280C1C0423BF4BA8
:1058C000B80F1D201C1FBF07C80F1EB4D00F1E41EC
:1058D000D80F1D201C1EBF201C1EBF201C1FBF3147
:1058E000F80F1E1D00101D201C1FBF9410101E203D
:1058F00018101E8C20101ED828101D201C1EBF2022
:105900001C1FBFFF40101ECD48101D201C1FBF0BC9
:1059100058101D201C1EBF201C1FBFFD70101E1024
:1059200078101D201C1FBFD888101E8E90101E25B9
:1059300098101E9EA0101D201C1FBF33B0101E50BB
:10594000B8101E4EC0101D201C1FBFF0D0101E949A
:10595000D8101D201C1FBF81E8101ECBF0101D2089
:105960001C2FBF0400111D08111EC710111E7C182A
:10597000111E1320111E8D28111EE930111E28380A
:10598000111E4A40111E4F48111E3750111C0601AE
:105990000011BFAF60111E4068111EB470111E0BC4
:1059A00078111D201C1FBF6488111E6590111E4AAE
:1059B00098111E13A0111D201C1FBF50B0111EC432
:1059C000B8111E1CC0111E58C8111E78D0111D2000
:1059D0001C1FBF65E0111E32E8111EE3F0111E7995
:1059E000F8111EF300121E5208121E9610121EBE4F
:1059F00018121D201C1EBF201C1FBF9530121E51E7
:105A000038121EF240121E7948121EE550121E3640
:105A100058121D201C1FBF8968121D201C1FBF7239
:105A200078121E3F80121EF288121E8B90121E0AE0
:105A300098121E6FA0121D201C1FBFECB0121D205B
:105A40001C11B41C0400BFCCC8121E62D0121EC5AB
:105A5000D8121EF6E0121EF4E8121EBFF0121E59F4
:105A6000F8121EC100131EF608131EFA10131ECDE5
:105A700018131E6E20131EDE28131E1C30131E2A40
:105A800038131E0740131EB348131E2F50131E7BDE
:105A900058131E9760131E8268131E3E70131ECA91
:105AA00078131E2680131E5388131E5190131E2038
:105AB00098131EC0A0131E32A8131E74B0131E89A3
:105AC000B8131E6FC0131E27C8131EB1D0131E0DAE
:105AD000D8131E3CE0131E3DE8131E11F0131EB830
