:020000040800F2
:10000000E804002001010008590600082506000840
:10001000550600085D030008E51200080000000016
:100020000000000000000000000000009909000826
:10003000BD0300080000000071060008210B000845
:100040001B0100081B0100081B0100081B01000820
:100050001B0100081B0100081B0100081B01000810
:100060001B0100081B0100081B0100081B01000800
:100070001B0100081B0100081B0100081B010008F0
:100080001B0100081B0100081B0100081B010008E0
:100090001B0100081B0100081B0100081B010008D0
:1000A0001B0100081B0100081B0100081B010008C0
:1000B0001B0100081B0100081B0100081B010008B0
:1000C0001B0100081B0100081B0100081B010008A0
:1000D0001B0100081B0100081B0100081B01000890
:1000E0001B0100081B0100081B010008DFF80CD0F1
:1000F00000F0EAF8004800473D130008E80400203B
:100100000648804706480047FEE7FEE7FEE7FEE7B1
:10011000FEE7FEE7FEE7FEE7FEE7FEE7790B0008F5
:10012000ED000008F0B480EA0102D40F4200B2EB07
:10013000410F02D20246084611464A0042D0C30D82
:10014000DDB2C1F3C752AD1A202D35DAC1F3160165
:1001500041F4000204B15242C5F1200602FA06F150
:100160002A411044B3EBD05F23D0C4B1012DA0EBE2
:10017000C35009DCF0BC4FF0004202EAC352DBB2CC
:1001800000F5000000F072B8400000F1807000EB54
:10019000C350A0F1807040EAD170490009E04908DD
:1001A00041EAC071A0EBC35000F50000400800EB2D
:1001B000C350F0BC00F051B86142012202EB410192
:1001C000001BF6E7F0BC704781F00041AAE780F021
:1001D0000040A7E730B480EA010202F0004530F0A9
:1001E000004221F0004013D090B1C30DD40DC2F3F2
:1001F0001601C0F31600E41A41F4000140F40002B5
:100200007D34914201D3641C00E04900002C02DAE5
:1002100030BC002070474FF400000023914201D30E
:10022000891A034340084FEA4101F7D151B1914285
:1002300002D14FF0004105E002D24FF0010101E090
:100240006FF0010103EBC450284430BC00F005B846
:1002500096230022114600F009B80029A8BF704774
:10026000401C490008BF20F00100704710B4B0FAEC
:1002700080FC00FA0CF050EA010404BF10BC704787
:1002800049B1CCF1200421FA04F411FA0CF118BFA1
:10029000012121430843A3EB0C01CB1D4FEA006170
:1002A0004FEA102042BF002010BC704700EBC35043
:1002B00010440029A4BF10BC7047401C490008BF6F
:1002C00020F0010010BC7047064C074D06E0E068C6
:1002D00040F0010394E8070098471034AC42F6D38D
:1002E000FFF708FF441300086413000808B500F086
:1002F000BDFA0121042000F0DDF94FF40040ADF813
:10030000000010208DF8030003208DF802006946DC
:10031000044800F05EF84FF40041024800F02EF966
:1003200008BD00000008014010B54FF4806000F0E7
:1003300095F900F0BBFB00F077F9012140F2E730BE
:1003400000F0A4FC00F00CF800F016F8FFF7CEFF68
:1003500001200149087010BD0400002000BFFEE725
:1003600010B5002404E0204600F024F9601CC4B25B
:100370000A2CF8DB10BD000008B50121082000F0B0
:1003800099F94FF44070ADF8000003208DF8020099
:1003900010208DF803006946074800F01AF84FF462
:1003A0000071054800F0EAF800F00EFA4FF4807191
:1003B000014800F0E3F808BD000C0140704710B59B
:1003C0000121084600F086F90021012000F082F9A1
:1003D00010BD2DE9F0410246002500260020002333
:1003E0000024002791F803C00CF00F0591F803C01A
:1003F0000CF0100CBCF1000F03D091F802C04CEAD5
:10040000050591F800C0BCF1000F31D01468002040
:100410002BE04FF0010C0CFA00F3B1F800C00CEA2D
:1004200003069E4220D183004FF00F0C0CFA03F715
:10043000BC4305FA03FC4CEA040491F803C0BCF188
:10044000280F06D14FF0010C0CFA00FCC2F814C0C2
:100450000AE091F803C0BCF1480F05D14FF0010C40
:100460000CFA00FCC2F810C0401C0828D1D314605C
:10047000B1F800C0BCF1FF0F34DD546800202EE05D
:1004800000F1080C4FF0010808FA0CF3B1F800C0B5
:100490000CEA03069E4221D183004FF00F0C0CFAA8
:1004A00003F7BC4305FA03FC4CEA040491F803C0CB
:1004B000BCF1280F05D100F1080C08FA0CF8C2F8BD
:1004C000148091F803C0BCF1480F07D100F1080C6B
:1004D0004FF0010808FA0CF8C2F81080401C0828F8
:1004E000CED35460BDE8F081F0B50A460023002465
:1004F0000021002500F00046B6F1004F02D11D4E4C
:10050000F16901E01B4E7168C0F3034583B200F44A
:100510004016B6F5401F08D121F07061154E76687F
:1005200026F07066134F7E6012E000F48016B6F578
:10053000801F06D1032606FA05F4A14341F070613D
:1005400006E0460D360103FA06F6B14341F070614C
:1005500022B1460D360103FA06F6314300F000469B
:10056000B6F1004F02D1034EF16101E0014E71601E
:10057000F0BD00000000014041617047016170471B
:100580000B4A11684FF0E02252694FF0E0239B695B
:10059000D21A4FF47A735A434FF0E0235B69B2FBEF
:1005A000F3F201EB4103C3EBC11302EBC30070474D
:1005B0000C00002070B5044604EB4400174951F8C4
:1005C000200004EB4401154A02EB81014860FFF76B
:1005D000D7FF0646FFF73CFE05461149FFF7FAFD37
:1005E00004EB44010D4A42F8210004EB44020B4B9A
:1005F00003EB8202516804EB440253F82200FFF738
:10060000E3FD04EB4401054A02EB8101886004EB41
:100610004400114601EB8000806870BD440000205A
:100620000024744900BFFEE708B50121082000F04E
:1006300041F84FF48050ADF8000010208DF8030011
:1006400003208DF8020069460148FFF7C2FE08BD8D
:10065000000C014000BFFEE7704700000249014363
:10066000024A1160704700000000FA050CED00E03E
:100670007047000029B1064AD2690243044BDA618F
:1006800004E0034AD2698243014BDA6170470000FB
:100690000010024029B1064A12690243044B1A6154
:1006A00004E0034A12698243014B1A61704700005B
:1006B0000010024029B1064A92690243044B9A6134
:1006C00004E0034A92698243014B9A61704700003B
:1006D0000010024029B1064AD2680243044BDA6096
:1006E00004E0034AD2688243014BDA60704700009D
:1006F0000010024030B500210022002400232D4DBF
:100700006D6805F00C0121B1042905D0082923D119
:1007100005E0294D056022E0274D05601FE0254DCD
:100720006D6805F47012234D6D6805F48034022560
:1007300005EB92421CB9214D554305600BE01D4D60
:100740006D6805F400351DB11C4D5543056002E090
:10075000194D5543056002E0174D056000BF00BF0D
:10076000144D6D6805F0F0010909154D6B5C0568C5
:10077000DD4045600F4D6D6805F4E061090A104DDC
:100780006B5C4568DD4085600A4D6D6805F460511D
:10079000C90A0B4D6B5C4568DD40C560054D6D6851
:1007A00005F44041890B074D6B5CC568B5FBF3F55B
:1007B000056130BD0010024000127A0000093D00C2
:1007C000100000202000002000B587B0012141F278
:1007D0000D00FFF76FFF01212148FFF785FE012182
:1007E0000846FFF781FE3820ADF8180003208DF889
:1007F0001A0018208DF81B0006A91A48FFF7E9FD1A
:1008000001210803FFF766FF00214FF48050FFF736
:1008100061FF0020ADF804004FF48270ADF80600CF
:100820004FF40060ADF808000020ADF80A00012088
:10083000ADF80C004002ADF80E002820ADF8100015
:100840000020ADF812000720ADF8140001A90648F9
:1008500000F084F80121044800F066F807B000BDFC
:1008600000023000000C01400030014000B587B0AC
:1008700001210920FFF71EFF01218803FFF7FAFE7F
:100880004FF46040ADF8180003208DF81A001820CE
:100890008DF81B0006A91548FFF79BFD0020ADF859
:1008A00004004FF48270ADF806004FF40060ADF81C
:1008B00008000020ADF80A000120ADF80C0040024D
:1008C000ADF80E003020ADF810000020ADF8120099
:1008D0000720ADF8140001A9054800F03FF80121F8
:1008E000034800F021F807B000BD0000000C0140F3
:1008F0000038004010B5044600BF0221094800F04E
:100900001FF80028F9D02146064800F025F800BF5E
:100910000121044800F014F80028F9D0014800F043
:1009200018F810BD0038004021B1028842F04002A2
:10093000028004E002884FF6BF731A4002807047BD
:100940000246002013890B400BB1012000E000207B
:1009500070470146888970478181704710B5002231
:10096000028802F441520B884C8823438C8823432D
:10097000CC8823430C8923434C8923438C8923430C
:10098000CC8923431A430280838B4FF2FF742340A8
:1009900083830B8A038210BD704710B500F002F804
:1009A00010BD00000CB50020019000903348006895
:1009B00040F480303149086000BF3048006800F4DE
:1009C000003000900198401C0190009818B90198DF
:1009D000B0F5A06FF1D12948006800F4003010B1E3
:1009E0000120009001E0002000900098012843D1F0
:1009F0002348006840F0100021490860084600685C
:100A000020F0030008600846006840F0020008601B
:100A10001A484068194948600846406848600846D6
:100A2000406840F4806048600846406820F47C10CC
:100A300048600846406840F4E8104860084600688E
:100A400040F08070086000BF0C48006800F0007043
:100A50000028F9D00948406820F0030007494860A1
:100A60000846406840F00200486000BF0348406804
:100A700000F00C000828F9D10CBD00000010024065
:100A800000200240042808D14FF0E021096941F01C
:100A900004014FF0E022116107E04FF0E021096905
:100AA00021F004014FF0E0221161704770B5194840
:100AB000FFF720FE174840684FF47A71B0FBF1F45D
:100AC000E4082146B1F1807F00D31DE021F07F4092
:100AD000401E4FF0E022506150170F22002807DA25
:100AE00013071E0E0C4B00F00F052D1F5E5503E083
:100AF00013071D0E094B1D5400BF00204FF0E022CC
:100B000090610720106100BF6FF00400FFF7BAFF8B
:100B100070BD00003000002018ED00E000E400E0AF
:100B200010B512480068401C104908601048008841
:100B3000401C0F49088008464088401C48800846F1
:100B40008088401C88800846C088401CC8800846B1
:100B50000089401C088108464089401C488105489E
:100B6000007810B1084600F037F810BD0C000020E6
:100B7000240000200400002010B51348006840F055
:100B800001001149086008464068104908400E49B4
:100B90004860084600680E4908400B49086008464E
:100BA000006820F4802008600846406820F4FE00B9
:100BB00048604FF41F008860FFF7EFFE4FF00060C1
:100BC0000449086010BD0000001002400000FFF85A
:100BD000FFFFF6FE08ED00E010B50446208801286E
:100BE00003DB00F026F8002020806088022803DB69
:100BF00000F044F800206080A088052803DB00F0A6
:100C000026F80020A080E0880A2803DB00F019F80D
:100C10000020E0802089142803DB00F035F8002054
:100C200020816089322803DB00F012F80020608107
:100C300010BD10B50120FFF7BDFC044600F064FBB9
:100C400010BD10B50220FFF7B5FC044610BD70477B
:100C500008480078401CC0B2064908700A2807DD21
:100C6000002008700448006880F480500249086041
:100C700070470000000000200C0C014010B500205F
:100C8000FFF798FC044610BD7047000030B58DB0EA
:100C900005460C4601210C20FFF70CFD012140F612
:100CA0000100FFF707FD4FF4F060ADF830000320BE
:100CB0008DF8320018208DF833000CA93E48FFF75C
:100CC00088FB0320ADF830008DF8320018208DF835
:100CD00033000CA93948FFF77CFBFFF770FB0121BB
:100CE0003748FFF701FC374800F0A6F8ADF8285068
:100CF000ADF824400020ADF82A002020ADF82600F1
:100D000001208DF82C0009A92E4800F099FA002046
:100D1000ADF820006020ADF814000020ADF82200EE
:100D2000ADF81E00ADF81C000120ADF8160004203F
:100D3000ADF818000020ADF81A0005A9214800F010
:100D40006FF905A91F4800F0C1F905A91D4800F079
:100D50001DFA08211B4800F0AFF90821194800F0DE
:100D600007FA0821174800F061FA4FF48040ADF807
:100D700010000020ADF80C004FF40050ADF80E004C
:100D80000120ADF80A000020ADF80800ADF806001B
:100D9000ADF8040001A90B4800F022F80121094830
:100DA00000F012F80121074800F036F8012105484B
:100DB00000F026F80DB030BD00080140000C0140E5
:100DC00040001600002C014021B1028842F0800250
:100DD000028004E002884FF67F731A400280704759
:100DE0000A884B881A438B881A43CB881A430B898D
:100DF0001A434B891A438B891A43A0F84420704741
:100E000021B1028842F00102028004E002884FF61C
:100E1000FE731A400280704731B1B0F8442042F4AA
:100E20000042A0F8442005E0B0F84420C2F30E02CE
:100E3000A0F844207047000010B50446684884427A
:100E400008D10121C014FFF745FC0021E014FFF791
:100E500041FCC4E0B4F1804F08D101210846FFF7FE
:100E600019FC00210120FFF715FCB8E05D48844221
:100E700008D101210220FFF70DFC00210220FFF71D
:100E800009FCACE05848844208D101210420FFF756
:100E900001FC00210420FFF7FDFBA0E05348844241
:100EA00008D101210820FFF7F5FB00210820FFF7FA
:100EB000F1FB94E04E48844208D101211020FFF755
:100EC000E9FB00211020FFF7E5FB88E04948844258
:100ED00008D101212020FFF7DDFB00212020FFF7B2
:100EE000D9FB7CE04448844208D101214014FFF73B
:100EF000F1FB00216014FFF7EDFB70E03F488442F6
:100F000009D10121C804FFF7E5FB00214FF40020BF
:100F1000FFF7E0FB63E03A48844209D1012108056C
:100F2000FFF7D8FB00214FF48010FFF7D3FB56E00A
:100F30003448844209D101214805FFF7CBFB002149
:100F40004FF40010FFF7C6FB49E02F48844208D158
:100F500001214020FFF79EFB00214020FFF79AFB74
:100F60003DE02A48844208D101218020FFF792FB0E
:100F700000218020FFF78EFB31E02548844208D114
:100F800001218015FFF786FB0021A015FFF782FBEA
:100F900025E02048844209D101210804FFF79AFB8B
:100FA00000214FF48030FFF795FB18E01A48844287
:100FB00009D101214804FFF78DFB00214FF40030D7
:100FC000FFF788FB0BE01548844208D10121880413
:100FD000FFF780FB00214FF48020FFF77BFB10BD63
:100FE000002C01400004004000080040000C0040BC
:100FF000001000400014004000340140004C01404B
:10100000005001400054014000180040001C004006
:1010100000200040004001400044014000480140E1
:1010200070B5002400220023058C4FF6FE76354073
:101030000584028C8388048B4FF68F752C40B51E77
:101040002C400D882C43751E2A400D892A434D885B
:101050002A43144DA8420BD0134DA84208D0134D7B
:10106000A84205D0124DA84202D0124DA84213D179
:101070004FF6F7752A404D892A434FF6FB752A40F3
:101080008D882A434FF6FF652B404FF6FF552B40C6
:101090008D892B43CD892B4383800483CD8885861E
:1010A000028470BD002C014000340140004001402A
:1010B00000440140004801400A460021018B4FF6E0
:1010C000F7731940114301837047000070B5002485
:1010D00000220023058C4FF6EF7635400584028C04
:1010E0008388048B48F6FF752C404FF6FF452C4053
:1010F0000D884FF6FF7606EA05252C434FF6DF757F
:101100002A400D8906EA05152A434D8806EA051589
:101110002A43154DA84202D0144DA8421DD14FF6C6
:101120007F752A404D894FF6FF7606EA05152A435A
:101130004FF6BF752A408D8806EA05152A434FF6FB
:10114000FF352B404FF2FF752B408D8906EA850550
:101150002B43CD8906EA85052B4383800483CD8804
:101160000587028470BD0000002C0140003401405E
:101170000A460021018B4FF2FF7319404FF6FF73AF
:1011800003EA0223194301837047000070B500246D
:1011900000220023058C4FF6FF6635400584028C43
:1011A0008388848B4FF68F752C404FF6FC752C404E
:1011B0000D882C434FF6FF552A400D894FF6FF76D8
:1011C00006EA05252A434D8806EA05252A43154DDA
:1011D000A84202D0144DA8421DD14FF2FF752A40FB
:1011E0004D894FF6FF7606EA05252A434FF6FF356F
:1011F0002A408D8806EA05252A434EF6FF752B40C6
:101200004DF6FF752B408D8906EA05152B43CD89D8
:1012100006EA05152B4383808483CD888587028465
:1012200070BD0000002C0140003401400A4600213E
:10123000818B4FF6F773194011438183704700008B
:10124000002202881D4B98420ED01D4B98420BD0B5
:10125000B0F1804F08D01B4B984205D01A4B9842F2
:1012600002D01A4B984204D14FF68F731A404B8824
:101270001A43174B984207D0164B984204D04FF6AA
:10128000FF431A40CB881A4302808B8883850B88E2
:1012900003850A4B98420BD0094B984208D00E4B5D
:1012A000984205D00D4B984202D00D4B984201D187
:1012B0000B7A03860123838270470000002C0140D3
:1012C000003401400004004000080040000C0040D1
:1012D0000010004000140040004001400044014064
:1012E0000048014000BFFEE702E008C8121F08C125
:1012F000002AFAD170477047002001E001C1121F97
:10130000002AFBD17047000010B54FF40041094896
:10131000FFF732F94FF6FF70FFF7ECFAC0F30D005C
:10132000054908804FF400410248FFF727F90120E2
:1013300010BD000000080140BC000020FEF7F4FFD3
:1013400000BFFEE764130008000000202400000036
:10135000E81200088813000824000020C4040000DC
:10136000F81200080000000000000000000000006B
:101370000000000000000000010203040102030459
:08138000060708090204060833
:04000005080000ED02
:00000001FF
