:020000040800F2
:1000000010060020010100085517000875100008AF
:1000100051170008E5070008C5220008000000008D
:10002000000000000000000000000000AD1B000800
:10003000C50E0008000000009D180008991C00086B
:100040001B0100081B0100081B0100081B01000820
:100050001B0100081B0100081B0100081B01000810
:100060001B0100081B0100081B0100081B01000800
:100070001B0100081B0100081B0100081B010008F0
:10008000410E00081B0100081B0100082D2200087A
:10009000492200081B0100081B0100081B01000881
:1000A0001B0100081B0100081B0100081B010008C0
:1000B0001B0100081B0100081B0100081B010008B0
:1000C0001B0100081B0100081B0100081B010008A0
:1000D0001B0100081B0100081B0100081B01000890
:1000E0001B0100081B0100081B010008DFF80CD0F1
:1000F00000F0EAFA004800475528000810060020E2
:100100000648804706480047FEE7FEE7FEE7FEE7B1
:10011000FEE7FEE7FEE7FEE7FEE7FEE7711D0008EB
:10012000ED000008F0B480EA0102D40F4200B2EB07
:10013000410F02D20246084611464A0042D0C30D82
:10014000DDB2C1F3C752AD1A202D35DAC1F3160165
:1001500041F4000204B15242C5F1200602FA06F150
:100160002A411044B3EBD05F23D0C4B1012DA0EBE2
:10017000C35009DCF0BC4FF0004202EAC352DBB2CC
:1001800000F5000000F0F6B9400000F1807000EBCF
:10019000C350A0F1807040EAD170490009E04908DD
:1001A00041EAC071A0EBC35000F50000400800EB2D
:1001B000C350F0BC00F0D5B96142012202EB41010D
:1001C000001BF6E7F0BC704781F00041AAE780F021
:1001D0000040A7E780EA010210B502F000434000AA
:1001E00022D04A001FD0010E01EB1261C0F356006D
:1001F000C2F3560240F4000042F40002A0FB0220C9
:1002000000047F39140400D0401C50EA124001D48D
:100210004000491EC2B20C0604EBD010401C40083E
:10022000802A02D003E0002010BD20F00100002948
:1002300000DA0020184310BD30B480EA010202F059
:10024000004530F0004221F0004013D090B1C30DC2
:10025000D40DC2F31601C0F31600E41A41F40001F4
:1002600040F400027D34914201D3641C00E0490057
:10027000002C02DA30BC002070474FF4000000234D
:10028000914201D3891A034340084FEA4101F7D153
:1002900051B1914202D14FF0004105E002D24FF03E
:1002A000010101E06FF0010103EBC450284430BCB0
:1002B00000F057B92DE9FE4F81EA030404F0004431
:1002C00021F0004100944FF0000B23F0004350EA6E
:1002D00001045ED052EA03045BD0C3F30A54C1F3B5
:1002E0000A552C44A4F2F3340194A0FB0254C1F348
:1002F000130141F48011C3F3130343F4801301FB92
:10030000024400FB034E840A970A44EA815447EAF8
:100310008357A4FB076802958D0A05FB07854FEA02
:10032000932C04FB0C542705029D4FEA065847EA1C
:100330001637B5EB08056EEB070C870E920E47EAF1
:10034000811742EA8312A7FB0201B6EB0B0164EBB3
:1003500000042B0D43EA0C335E1844EB1C50DA46C4
:100360005146E7FB0201C5F313044FEA0B3343EA9E
:1003700014534FEA0432019C43EA0603A4F10C042F
:100380000294009CCDE900B400F04FF903B0BDE841
:10039000F08F00200146F9E72DE9F04D81EA0304D2
:1003A00004F0004B21F0004514464FF0000A23F002
:1003B000004150EA050220D054EA01021DD0C5F3E5
:1003C0000A570246C5F31303C1F31300C1F30A56DB
:1003D00040F4801543F48013A7EB0608101BD646A3
:1003E00008F2FD3873EB050002D308F1010801E0C3
:1003F00092185B41B8F1000F03DA00200146BDE816
:10040000F08D00204FF48011064684460EE0171B45
:1004100073EB050705D3121B63EB050306434CEA98
:10042000010C49084FEA300092185B4150EA01077D
:10043000EDD152EA030012D082EA040083EA0501FA
:10044000084305D0101BAB4106D20122002306E071
:1004500000224FF0004302E06FF0010253101AEB4C
:1004600006004CEB085110EB0A0041EB0B01BDE814
:10047000F04D00F0CBB8C10F80EAE0700844CA0725
:100480009623002100F076B83EB5CA17CB0F0024A2
:1004900050405140C0186141DA0740F233430094A4
:1004A000CDE901232246234600F0BFF803B030BD5A
:1004B00000F0004220F00040C10DC0F3160040F4EF
:1004C00000007F2901DA00207047962903DCC1F182
:1004D0009601C84001E096398840002AF4D0404295
:1004E000704701F0004330B421F0004150EA0102AE
:1004F00006D00A0DA2F56072C1F31301002A02DCD6
:1005000030BC00207047440F44EAC104C100E01829
:1005100030BC00EBC25000F024B80000002801DB22
:10052000C0F10040002901DBC1F100418142704768
:10053000002801DBC0F10040002901DBC1F10041CE
:1005400088427047202A04DB203A00FA02F100209A
:1005500070479140C2F1200320FA03F31943904001
:1005600070470029A8BF7047401C490008BF20F011
:100570000100704710B4B0FA80FC00FA0CF050EAA9
:10058000010404BF10BC704749B1CCF1200421FA2A
:1005900004F411FA0CF118BF012121430843A3EB25
:1005A0000C01CB1D4FEA00614FEA102042BF002032
:1005B00010BC704700EBC35010440029A4BF10BC0E
:1005C0007047401C490008BF20F0010010BC704774
:1005D00010B541000CD0C0F3C751962908DC7E2924
:1005E00009DC06DB410204D000F0004040F07E5000
:1005F00010BD002010BDC1F19604C4F1200100FA25
:1006000001F1E040FFF7ADFFA04010BD10B5141E92
:1006100073F1000408DA401C41F1000192185B41BB
:100620001A4301D120F0010010BD2DE9F04D924692
:100630009B4611B1B1FA81F202E0B0FA80F22032A9
:100640009046FFF77FFF04460F4640EA0A0041EA62
:100650000B0153465A46084313D0114653EA010092
:1006600019D0C8F14002504600F040F805460E4649
:10067000504659464246FFF765FF084305D0012022
:1006800004E020463946BDE8F08D0020054346EAE7
:10069000E0762C4337430A986305E40AA0EB080090
:1006A0000022FD0A44EA47540A3002D500200146E0
:1006B000E9E7010510196941DDE9084500196941BB
:1006C000BDE8F04DA2E70000064C074D06E0E068EB
:1006D00040F0010394E8070098471034AC42F6D389
:1006E000FFF708FD302A0008502A0008202A04DB02
:1006F000203A21FA02F00021704721FA02F3D0409B
:10070000C2F120029140084319467047420005D0CB
:10071000C0F3C7525242914201DC0020704700EB07
:10072000C1507047962300221146FFF723BF70B5D2
:100730008C1810F8015B15F0070301D110F8013B8C
:100740002A1106D110F8012B03E010F8016B01F813
:10075000016B5B1EF9D12B0705D40023521E0DD46B
:1007600001F8013BFAE710F8013BCB1A921C03E0B9
:1007700013F8015B01F8015B521EF9D5A142D8D3F1
:10078000002070BD08B50121042001F0A9F8102057
:10079000ADF800008DF8030003208DF802006946D3
:1007A0000E4800F090FB10210C4800F061FC012184
:1007B000082001F095F82020ADF8000010208DF8F9
:1007C000030003208DF802006946054800F07BFB1A
:1007D0002021034800F04CFC08BD00000008014047
:1007E000000C014000BFFEE7B1F5007F3AD00FDCFE
:1007F000202928D006DC01291CD004291DD0082975
:1008000040D11DE0402921D0B1F5807F3AD126E0CA
:10081000B1F5004F31D006DCB1F5806F25D0B1F5D0
:10082000006F2FD124E0B1F5803F12D0B1F5003F29
:1008300028D111E0154A826025E00822C26022E03A
:100840001022C2601FE0082202611CE01022026137
:1008500019E00822426016E01022426013E00422F0
:10086000426010E0042242600DE0042242600AE08F
:10087000002282610422426005E00022826104229B
:10088000426000E000BF00BF7047000001010100AE
:1008900000B589B00121480601F002F801210920C4
:1008A00001F01EF801214FF4EA1000F097FB4FF41D
:1008B0008070ADF8040048208DF8070003208DF803
:1008C000060001A93A4800F0FEFA4FF40070ADF8B6
:1008D000040018208DF8070003208DF8060001A9F8
:1008E000334800F0F0FA13208DF8000000208DF856
:1008F00001008DF8020001208DF80300684600F029
:100900002BFF14208DF8000000208DF801008DF8D9
:10091000020001208DF80300684600F01DFF254805
:1009200000F04AF800208DF81E008DF81F008DF8A9
:1009300020008DF821008DF8220001208DF8230081
:1009400000208DF81A008DF81B0004208DF81C0083
:1009500002208DF81D000420ADF8180006A91548E6
:1009600000F063F900208DF812008DF813000120CB
:100970008DF814000020ADF80800ADF80A00ADF8BD
:100980000C00ADF80E00ADF8100001208DF8150038
:1009900002A800F02DF801220221064800F03CF9DF
:1009A00001221146034800F037F909B000BD0000EC
:1009B000000C01400064004010B504460B4884421E
:1009C00009D10121480600F07BFF00214FF00070A3
:1009D00000F076FF08E00121880600F071FF002199
:1009E0004FF0806000F06CFF10BD0000006400401C
:1009F00010B50021837A012202FA03F13D4A126800
:100A000042F001023B4B1A603A4A1C3212688A4398
:100A1000384B1C331A60027BCAB9364A0C32126852
:100A20008A43344B0C331A604288C38842EA03433A
:100A3000304A4032847A42F834300288838842EA6D
:100A400003432C4A4032847A02EBC4025360027B97
:100A5000012A19D1274A0C3212680A43254B0C335C
:100A60001A604288038842EA0343224A4032847A69
:100A700042F83430C288838842EA03431D4A403238
:100A8000847A02EBC4025360C27A3AB9194A121D41
:100A900012688A43174B1B1D1A6006E0154A121D87
:100AA00012680A43134B1B1D1A60028932B9114A9E
:100AB000143212688A430F4B14331A600289012AD8
:100AC00006D10C4A143212680A430A4B14331A60D6
:100AD000427B012A06D1074A1C3212680A43054BA1
:100AE0001C331A60034A126822F00102014B1A609B
:100AF00010BD00000066004070B504460D4600269B
:100B000060692840002871D0B5F5807F5CD010DC8A
:100B1000082D35D006DC012D20D0022D24D0042D47
:100B200072D127E0102D31D0202D35D0402D6BD142
:100B300038E0B5F5004F60D009DCB5F5007F49D04D
:100B4000B5F5806F4CD0B5F5006F5DD14FE0B5F5D0
:100B5000803F2DD0B5F5003F56D12FE0A0682D493C
:100B600000F065F9064651E0E068032100F05FF906
:100B700006464BE0E068082100F059F9064645E0DA
:100B8000E068102100F053F906463FE02069032198
:100B900000F04DF9064639E02069082100F047F9D8
:100BA000064633E02069102100F041F906462DE0A9
:100BB0006068082100F03BF9064627E060681021D4
:100BC00000F035F9064621E0A069012100F02FF977
:100BD00006461BE0A069022100F029F9064615E04F
:100BE000A069042100F023F906460FE00FE0A06998
:100BF000702100F01CF9064608E06068042100F04E
:100C000016F9064602E0FFE7002600BF00E00026D6
:100C1000304670BD010101001AB143690B434361C5
:100C200002E043698B434361704730B502460020C0
:100C30000023146824F002041460146844F00104D2
:100C4000146000E05B1C546804F001041CB94FF60A
:100C5000FF74A342F6D1546804F001040CB90020DB
:100C60006CE08C79012C04D1146844F08004146089
:100C700003E0146824F080041460CC79012C04D1C2
:100C8000146844F04004146003E0146824F0400445
:100C900014600C7A012C04D1146844F02004146010
:100CA00003E0146824F0200414604C7A012C04D171
:100CB000146844F01004146003E0146824F0100475
:100CC00014608C7A012C04D1146844F00804146078
:100CD00003E0146824F008041460CC7A012C04D1D9
:100CE000146844F00404146003E0146824F004045D
:100CF00014608C78A407CD7844EA05640D7944EA41
:100D000005444D7944EA05540D886D1E2C43D46189
:100D1000146824F001041460002300E05B1C546894
:100D200004F001041CB14FF6FF74A342F6D15468DD
:100D300004F001040CB1002000E0012030BD10B52A
:100D400000F5D87303EB01131B6803F0040313725F
:100D5000137A53B900F5D87303EB01131B6840F203
:100D6000FF7404EA5353136009E000F5D87303EBF2
:100D700001131B686FF0604404EAD303536000F56D
:100D8000D87303EB01131B6803F00203537200F5E1
:100D9000D87303EB01135B6803F00F03937200F544
:100DA000D87303EB01135B681B0AD37400F5D87387
:100DB00003EB01139B68D37200F5D87303EB0113A7
:100DC0009B681C0A147300F5D87303EB01139B682E
:100DD0001C0C547300F5D87303EB01139B681B0EB6
:100DE000937300F5D87303EB0113DB68D37300F53D
:100DF000D87303EB0113DB681C0A147400F5D87375
:100E000003EB0113DB681C0C547400F5D87303EB7F
:100E10000113DB681B0E937421B9C36843F02003F0
:100E2000C36003E0036943F02003036110BD024681
:100E3000002002EA01030BB1012000E0002070470E
:100E400010B54FF4001000F027F8012806D1400536
:100E500000F006F84FF4001000F010F810BD00008C
:100E600000F0805111B10349086001E00249486077
:100E700070470000040402400000024000F080516E
:100E800011B10349086001E0024948607047000061
:100E9000040402400000024001460020002201F04C
:100EA000805313B1054B1A6801E0054B1A6802EA3A
:100EB00001030BB1012000E0002070470004024054
:100EC0000000024070472DE9F0410246002500264F
:100ED000002000230024002791F803C00CF00F0528
:100EE00091F803C00CF0100CBCF1000F03D091F886
:100EF00002C04CEA050591F800C0BCF1000F31D0EA
:100F0000146800202BE04FF0010C0CFA00F3B1F84C
:100F100000C00CEA03069E4220D183004FF00F0C64
:100F20000CFA03F7BC4305FA03FC4CEA040491F8FD
:100F300003C0BCF1280F06D14FF0010C0CFA00FCE5
:100F4000C2F814C00AE091F803C0BCF1480F05D103
:100F50004FF0010C0CFA00FCC2F810C0401C08282D
:100F6000D1D31460B1F800C0BCF1FF0F34DD546878
:100F700000202EE000F1080C4FF0010808FA0CF3F5
:100F8000B1F800C00CEA03069E4221D183004FF065
:100F90000F0C0CFA03F7BC4305FA03FC4CEA0404FB
:100FA00091F803C0BCF1280F05D100F1080C08FA34
:100FB0000CF8C2F8148091F803C0BCF1480F07D1B7
:100FC00000F1080C4FF0010808FA0CF8C2F8108084
:100FD000401C0828CED35460BDE8F081F0B50A4625
:100FE000002300240021002500F00046B6F1004F48
:100FF00002D11D4EF16901E01B4E7168C0F303453B
:1010000083B200F44016B6F5401F08D121F070619C
:10101000154E766826F07066134F7E6012E000F47D
:101020008016B6F5801F06D1032606FA05F4A14303
:1010300041F0706106E0460D360103FA06F6B14351
:1010400041F0706122B1460D360103FA06F63143D4
:1010500000F00046B6F1004F02D1034EF16101E00D
:10106000014E7160F0BD0000000001404161704719
:101070000161704700BFFEE708B501210D2000F0B7
:101080002FFC01211748FFF7A9FF4FF4C050ADF81E
:10109000000010208DF8030003208DF8020069463F
:1010A0001148FFF710FF4FF40040ADF8000010208A
:1010B0008DF8030003208DF8020069460B48FFF706
:1010C00002FF4FF480510848FFF7D2FF4FF4006150
:1010D0000548FFF7CBFF4FF400410448FFF7C6FF78
:1010E00008BD000000023000000C01400008014073
:1010F0002DE9F04104460D4616462CB94FF4006127
:101100003348FFF7B5FF13E0002C01DD214600E076
:1011100061420846FFF7AFF980462E49FFF78CF889
:10112000074639464FF07E50FFF786F82A49086097
:101130002948016829480068FFF7FAF90AD22448CB
:101140000C30006880F4006021490C3108600020F8
:10115000224908602DB94FF400412148FFF788FF6C
:1011600013E0002D01DD294600E069420846FFF743
:1011700082F980461749FFF75FF8074639464FF076
:101180007E50FFF759F8174908601648016816485D
:101190000068FFF7CDF90AD211480C30006880F4DE
:1011A00000400F490C31086000200F4908603146AB
:1011B0000A480068FEF7B6FF0849086031460A4849
:1011C0000068FEF7AFFF08490860BDE8F081000045
:1011D000000C0140000048421001002008010020DE
:1011E00000080140140100200C0100202DE9F04707
:1011F000044600250026002125480068FFF78EF9E7
:1012000002D82046BDE8F0872248016822480068DD
:10121000FEF7E0FF80462148016821480068FEF79C
:10122000D9FF81462146FEF7D2FF07464146FEF729
:10123000CBFF0546284601F064F818B9284601F0AE
:1012400056F800B125461748016813480068FEF7B4
:10125000C1FF80461448016811480068FEF7BAFFD4
:101260008146124801682846FEF7B4FF8246494687
:10127000FEF758FF07464146FEF754FF064608486A
:10128000006805490860064805603046BAE7000076
:101290003800002040000020540000203C000020C6
:1012A000500000204C000020480000204400002096
:1012B0002DE9F04704460025002600212548006856
:1012C000FFF72CF902D82046BDE8F08722480168D4
:1012D00022480068FEF77EFF8046214801682148C9
:1012E0000068FEF777FF81462146FEF770FF07464C
:1012F0004146FEF769FF0546284601F002F818B995
:10130000284600F0F4FF00B125461748016813484D
:101310000068FEF75FFF80461448016811480068C6
:10132000FEF758FF8146124801682846FEF752FF33
:1013300082464946FEF7F6FE07464146FEF7F2FEB4
:1013400006460848006805490860064805603046BA
:10135000BAE7000058000020600000207400002060
:101360005C000020700000206C000020680000205D
:10137000640000202DE9FE4F06460C46002700259C
:101380000020029021463046FEF756FF07463946B8
:101390003A48FEF751FF804601F080FA054629469B
:1013A0002846FEF717FF8346354801F087F94FF0CE
:1013B00080410190FEF70EFF82462946FEF70AFFA4
:1013C00081464FF07E51FEF7ADFE80465946FEF74E
:1013D000A9FE02902B48046000210068FFF7A8F8DE
:1013E00049D229462846FEF7F5FE80460299FEF7C7
:1013F00023FF25490860084601684FF08040FEF74A
:10140000E9FE224908602048006821490860294611
:101410002846FEF7DFFE82464FF07E51FEF7D4FEEF
:1014200081464FF08041FEF7D5FE80460299FEF7D7
:1014300003FF1849086029462846FEF7CBFE0190B5
:101440000F4801F03BF94FF080410090FEF7C2FEDB
:1014500083462946FEF7BEFE82464FF07E51FEF7D8
:10146000B6FE81460199FEF75DFE80460299FEF7C1
:10147000E3FE09490860BDE8FE8F0000DA0F49402D
:10148000DA0F493F380000204400002048000020C7
:101490004C0000203C000020400000202DE9FE4FC1
:1014A00006460C46002700250020029021463046C3
:1014B000FEF7C2FE074639463A48FEF7BDFE8046B3
:1014C00001F0ECF9054629462846FEF783FE8346DF
:1014D000354801F0F3F84FF080410190FEF77AFEB5
:1014E00082462946FEF776FE81464FF07E51FEF792
:1014F00019FE80465946FEF715FE02902B480460FF
:1015000000210068FFF714F849D229462846FEF763
:1015100061FE80460299FEF78FFE25490860084665
:1015200001684FF08040FEF755FE224908602048D0
:1015300000682149086029462846FEF74BFE82468E
:101540004FF07E51FEF740FE81464FF08041FEF79E
:1015500041FE80460299FEF76FFE18490860294651
:101560002846FEF737FE01900F4801F0A7F84FF02C
:1015700080410090FEF72EFE83462946FEF72AFEA4
:1015800082464FF07E51FEF722FE81460199FEF71A
:10159000C9FD80460299FEF74FFE09490860BDE883
:1015A000FE8F0000DA0F4940DA0F493F5800002053
:1015B00064000020680000206C0000205C00002017
:1015C0006000002010B520480088012804DB00F0EE
:1015D0003DF800201C4908801B484088022804DB95
:1015E00000F0B4F800201849488017488088052882
:1015F00004DB00F049F80020134988801248C088B5
:101600000A2804DB00F03EF800200F49C8800E488D
:101610000089142804DB00F09AF800200A490881A8
:1016200009484089322804DB00F07AF80020064996
:10163000488105488089642804DB00F024F80020F4
:101640000149888110BD00005801002070B501F0EB
:1016500009F800F033FF0849C868FEF729FF04B213
:101660000649C868FEF724FF05B2054A2146284608
:10167000FFF73EFD70BD0000FC010020E8010020E6
:101680006F12833A704770471FB51F480088ADF846
:101690000C001D484088ADF80E001C49C868FEF7D4
:1016A00007FF00B2ADF808001948C06880F0004498
:1016B0002046FEF7FDFE00B2ADF80A00BDF80800B6
:1016C000BDF80A10401A00B2124908800220124BDD
:1016D00001AA02A9009003A800F07AFBBDF8060059
:1016E0000E490880BDF80400091D088006480088DE
:1016F00040B90548408828B940F63C70091F088069
:10170000091D08801FBD000002000020FC01002010
:10171000E80100200A000020CDCC4C3D342C0140D3
:1017200008480078401CC0B2064908700A2807DD46
:10173000002008700448006880F480500249086066
:10174000704700000C0000200C0C014070477047EF
:1017500000BFFEE77047000070B5002100230F2294
:10176000C47804B3154C246804F4E064C4F5E06460
:10177000210AC1F10403CA40447804FA03F18478D1
:101780001440214309010E4C0678A155047804F059
:101790001F050124AC4005786D11AD0005F1E02571
:1017A000C5F8004109E0047804F01F050124AC40AD
:1017B000044D0678761145F8264070BD0CED00E02A
:1017C00000E400E080E100E010B588B004460121AB
:1017D000042000F085F80121C80200F081F84FF4E0
:1017E0004070ADF8000018208DF8030003208DF83C
:1017F000020069462748FFF766FB601E80B2ADF81D
:1018000018001120ADF814000020ADF81A00ADF852
:10181000160005A9204800F0B7FC6020ADF80400D0
:101820000120ADF806000020ADF80800ADF80A0070
:10183000ADF80C00ADF80E00ADF81000ADF81200D8
:1018400001A9154800F002FC01A9134800F04AFC68
:101850000121114800F0D2FB01210F4800F0E6FB06
:1018600001210D4800F0D6FB4FF4FA500A493431FB
:101870000880091D0880C01000F0DEFF4FF47A6078
:10188000054934310880091D0880401000F0D4FF5C
:1018900008B010BD00080140002C01407047000056
:1018A00029B1064AD2690243044BDA6104E0034AD3
:1018B000D2698243014BDA61704700000010024098
:1018C00029B1064A12690243044B1A6104E0034A33
:1018D00012698243014B1A617047000000100240F8
:1018E00029B1064A92690243044B9A6104E0034A13
:1018F00092698243014B9A617047000000100240D8
:1019000030B500210022002400232D4D6D6805F024
:101910000C0121B1042905D0082923D105E0294D66
:10192000056022E0274D05601FE0254D6D6805F438
:101930007012234D6D6805F48034022505EB924248
:101940001CB9214D554305600BE01D4D6D6805F434
:1019500000351DB11C4D5543056002E0194D55433E
:10196000056002E0174D056000BF00BF144D6D68B3
:1019700005F0F0010909154D6B5C0568DD40456017
:101980000F4D6D6805F4E061090A104D6B5C456808
:10199000DD4085600A4D6D6805F46051C90A0B4D44
:1019A0006B5C4568DD40C560054D6D6805F44041E0
:1019B000890B074D6B5CC568B5FBF3F5056130BD60
:1019C0000010024000127A0000093D0018010020BA
:1019D0002801002000B587B001210420FFF780FF17
:1019E00001210803FFF77CFFE020ADF81800182064
:1019F0008DF81B0003208DF81A0006A91348FFF785
:101A000062FA0020ADF804004FF48270ADF80600D1
:101A10004FF40060ADF808000020ADF80A00012086
:101A2000ADF80C004002ADF80E003020ADF810000B
:101A30000020ADF8120001A9054800F099F8012135
:101A4000034800F07BF807B000BD0000000801402B
:101A50000030014010B5044600BF0221094800F0E3
:101A600079F80028F9D02146064800F07FF800BF39
:101A70000121044800F06EF80028F9D0014800F078
:101A800072F810BD0030014000B587B00121082078
:101A9000FFF726FF01218803FFF702FF4FF46040A4
:101AA000ADF8180018208DF81B0003208DF81A00DF
:101AB00006A91348FFF707FA0020ADF804004FF419
:101AC0008270ADF806004FF40060ADF80800002009
:101AD000ADF80A000120ADF80C004002ADF80E0090
:101AE0003020ADF810000020ADF8120001A9054823
:101AF00000F03EF80121034800F020F807B000BDD7
:101B0000000C01400038004010B5044600BF02211F
:101B1000094800F01FF80028F9D02146064800F0D7
:101B200025F800BF0121044800F014F80028F9D07E
:101B3000014800F018F810BD0038004021B10288BB
:101B400042F04002028004E002884FF6BF731A4060
:101B5000028070470246002013890B400BB1012020
:101B600000E00020704701468889704781817047F6
:101B700010B50022028802F441520B884C8823439E
:101B80008C882343CC8823430C8923434C892343EB
:101B90008C892343CC8923431A430280838B4FF2E1
:101BA000FF74234083830B8A038210BD704710B5F6
:101BB00000F002F810BD00000CB50020019000906C
:101BC0003348006840F480303149086000BF304835
:101BD000006800F4003000900198401C01900098CB
:101BE00018B90198B0F5A06FF1D12948006800F448
:101BF000003010B10120009001E00020009000981A
:101C0000012843D12348006840F0100021490860B2
:101C10000846006820F0030008600846006840F0AD
:101C2000020008601A484068194948600846406840
:101C300048600846406840F4806048600846406854
:101C400020F47C1048600846406840F4E810486082
:101C50000846006840F08070086000BF0C480068CB
:101C600000F000700028F9D00948406820F0030017
:101C7000074948600846406840F00200486000BFDD
:101C80000348406800F00C000828F9D10CBD0000A2
:101C9000001002400020024010B516480088401C89
:101CA0001449088008464088401C488008468088BF
:101CB000401C88800846C088401CC88008460089AF
:101CC000401C088108464089401C4881084680899C
:101CD000401C88810846D0E904305A1C40F10000BD
:101CE000C1E9042004480078012801D1FFF76AFC0B
:101CF00010BD0000580100200000002070B51848F9
:101D0000FFF7FEFD174800684FF47A72B0FBF2F15E
:101D1000B1F1807F01D301201DE021F07F40401E02
:101D20004FF0E022506150170F22002807DA130706
:101D30001D0E0D4B00F00F04241F1D5503E013076B
:101D40001C0E0A4B1C5400BF00204FF0E022906193
:101D500007201061002008B100BFFEE770BD000041
:101D6000440100202C01002018ED00E000E400E018
:101D700010B51348006840F001001149086008469A
:101D80004068104908400E494860084600680E49FE
:101D900008400B4908600846006820F4802008606D
:101DA0000846406820F4FE0048604FF41F00886039
:101DB000FFF7FDFE4FF000600449086010BD000011
:101DC000001002400000FFF8FFFFF6FE08ED00E003
:101DD0002DE9F04705460E4617469846DDF8209057
:101DE0007A48007880B9002409E0C4EBC401784A3D
:101DF00002EBC100002100F0F1F8601CC4B24C45B8
:101E0000F3DB0120714908700024D9E035F9140092
:101E1000FEF731FBC4EBC4016D4A42F8310036F9DC
:101E20001400FEF728FBC4EBC401694A02EBC101B0
:101E30004860C4EBC402664B03EBC2025168C4EBBA
:101E4000C40253F83200FEF7BFF9C4EBC401604A84
:101E500002EBC1018860C4EBC40102EBC1018868D8
:101E60004146FEF7B7F98246C4EBC400584A02EB7C
:101E7000C00041695046FEF755F9C4EBC401544A0D
:101E800002EBC1014861C4EBC400114601EBC00084
:101E9000806980F0004AC4EBC40002EBC0004169D5
:101EA0005046FEF745FB08D2C4EBC400484901EB9D
:101EB000C000806980F000401AE0C4EBC402444BCB
:101EC00003EBC2029169C4EBC40203EBC202506986
:101ED000FEF72EFB06D2C4EBC4003D4901EBC00067
:101EE000806905E0C4EBC400394901EBC0004069DA
:101EF000C4EBC401364A02EBC1014861C4EBC40221
:101F0000334B03EBC2029168C4EBC40203EBC20281
:101F1000D069FEF75FF9C4EBC4012D4A02EBC101A1
:101F20008862C4EBC4022A4B03EBC2025169C4EBC2
:101F3000C40203EBC202106AFEF74CF9C4EBC40101
:101F4000234A02EBC101C862C4EBC402204B03EB7D
:101F5000C202D16AC4EBC40203EBC202906AFEF76C
:101F6000E1F882461B49FEF7DDF8C4EBC401184ACC
:101F700002EBC1014863C4EBC40102EBC101486B31
:101F80001449FEF7CBFA01D2124811E0C4EBC401A8
:101F90000F4A02EBC101486B0F49FEF7C9FA01D2A3
:101FA0000D4805E0C4EBC400094901EBC000406BDB
:101FB0008246FEF77DFA00B227F81400601CC4B216
:101FC0004C45FFF623AFBDE8F08700000D00002070
:101FD0007801002000007A450060EA4531B900220E
:101FE000C261044A0262044A826100E000BF00BF8D
:101FF00070470000CDCC4C3E00007A4521B10288EC
:1020000042F08002028004E002884FF67F731A409B
:102010000280704721B1028842F00102028004E090
:1020200002884FF6FE731A400280704731B1B0F853
:10203000442042F40042A0F8442005E0B0F84420D7
:10204000C2F30E02A0F844207047000070B50024CF
:1020500000220023058C4FF6FE7635400584028C65
:102060008388048B4FF68F752C40B51E2C400D884D
:102070002C43751E2A400D892A434D882A43144D4E
:10208000A8420BD0134DA84208D0134DA84205D04A
:10209000124DA84202D0124DA84213D14FF6F77547
:1020A0002A404D892A434FF6FB752A408D882A43E2
:1020B0004FF6FF652B404FF6FF552B408D892B4384
:1020C000CD892B4383800483CD888586028470BDAF
:1020D000002C014000340140004001400044014018
:1020E0000048014070B5002400220023058C4FF603
:1020F000EF7635400584028C8388048B48F6FF75A3
:102100002C404FF6FF452C400D884FF6FF7606EA2F
:1021100005252C434FF6DF752A400D8906EA051583
:102120002A434D8806EA05152A43154DA84202D0D8
:10213000144DA8421DD14FF67F752A404D894FF6A8
:10214000FF7606EA05152A434FF6BF752A408D88AB
:1021500006EA05152A434FF6FF352B404FF2FF756F
:102160002B408D8906EA85052B43CD8906EA850536
:102170002B4383800483CD880587028470BD0000D3
:10218000002C014000340140002202881D4B98427F
:102190000ED01D4B98420BD0B0F1804F08D01B4B96
:1021A000984205D01A4B984202D01A4B984204D15B
:1021B0004FF68F731A404B881A43174B984207D03B
:1021C000164B984204D04FF6FF431A40CB881A436F
:1021D00002808B8883850B8803850A4B98420BD03D
:1021E000094B984208D00E4B984205D00D4B9842AF
:1021F00002D00D4B984201D10B7A038601238382D2
:1022000070470000002C01400034014000040040F1
:1022100000080040000C0040001000400014004086
:1022200000400140004401400048014010B5012138
:102230000448FEF761FC18B101210248FEF7D4FA08
:1022400010BD00000064004000B585B002211948AF
:10225000FEF752FC40B102211648FEF7C5FA6A4665
:1022600000211448FEF76BFD0098B0F5807F1CD16B
:102270009DF80C009DF80B1040EA012000B20E49B9
:1022800008809DF80E109DF80D0041EA002000B274
:10229000094948804FF400410848FEF7E9FE4FF431
:1022A00000610748FEF7E4FE00E000BF00BF05B094
:1022B00000BD000000640040020000200008014052
:1022C000000C014000BFFEE74100080218BF0420D7
:1022D0000A0E18BF40F001004FF07F4232EA0101C0
:1022E00008BF40F00200012808BF052070470146E2
:1022F0004FF07F40B0EB410F01D10120704700202B
:10230000FCE7014621F00040C0F1FF40C00F7047DC
:102310000121FEF7FBB900210846FDF78DBF6FF0E4
:102320005E010807FEF7F2B92DE9F04D0D4614469F
:102330004FF07F41B1EB440F9EBF4FF0FF3129605A
:10234000BDE8F08D4FF0004040EA0421C4F3C750CF
:10235000783810F01F024A4B4FEA601CC2F1200689
:102360007B44C4F3C750A0F178004FEA601003EB40
:10237000800053F82C3008BFD0E901C612D0D0F845
:1023800004C093402CFA06F73B4387680CFA02FC22
:1023900027FA06F8C06807FA02F2F0404CEA080C87
:1023A00042EA0006A3FB0132ACFB01C0A6FB0161BF
:1023B00001EB0C068E4234BF4FF0010C4FF0000CC5
:1023C000C1186144BCF1000F02D0814202D903E080
:1023D000814201D2012000E00020104400F12002DF
:1023E0004FEA92188006CA0C40EA42304F03C5F803
:1023F0000080FEF740F882463846FEF793F96FF00A
:102400001201FEF783F907463046FEF78BF96FF0AD
:102410002501FEF77BF9834639465046FDF782FEDB
:102420005946FDF77FFE00F500666FF30B06514637
:102430003046FDF7C9FE3946FDF7C6FE5946FDF7A1
:10244000C6FE1049FDF7C6FE07460F493046FDF7A8
:10245000C1FE3946FDF766FE07460C493046FDF7DA
:10246000B9FE3946FDF75EFE14F0004F08BFBDE827
:10247000F08DC8F1805180F000402960BDE8F08DFA
:10248000AC060000DB0FC92F22AAFD290000C92FCE
:1024900002E008C8121F08C1002AFAD1704770472D
:1024A000002001E001C1121F002AFBD1704700008B
:1024B0000149086070470000400100202DE9F05FED
:1024C0005D4800885D490968401A10F5FA5F04DA32
:1024D0005B480068401C5A490860574800885749C3
:1024E0000968401AB0F5FA5F04DD55480068401EDF
:1024F0005349086050480088514909684FF48042A8
:1025000002FB01004C49486008464068C117DFF8EB
:1025100034E1DEE900CEB0EB0C0261EB0E011046B7
:10252000FDF7B2FF06460022474BFDF735FF044694
:102530004FF06042454BFDF72FFF82460022444B8F
:10254000FDF7B8FE8046FDF7CCFF3B498860886800
:10255000FEF74CFE3849C860C868FDF7A9FF00B215
:1025600064214843344908610846008833490860BB
:1025700031484068C117334A03C23648008836499B
:102580000968401A10F5FA5F04DA34480068401C04
:10259000324908602F4800882F490968401AB0F571
:1025A000FA5F04DD2D480068401E2C490860294868
:1025B00000882A4909684FF4804202FB010025493E
:1025C000486008464068C117DFF894E0DEE900CEB5
:1025D000B0EB0C0261EB0E011046FDF755FF06460D
:1025E0000022194BFDF7D8FE80464FF06042174B92
:1025F000FDF7D2FE04460022154BFDF75BFE824636
:10260000FDF76FFF134988608868FEF751FE114996
:10261000C860C868FDF74CFF00B2642148430D490B
:102620000861084600880C4908600A484068C117DC
:102630000B4A03C2BDE8F09FE8010020140000200F
:1026400018000020200000200000D0404D62503FC4
:1026500000004E40FC010020280000202C0000203B
:102660003000002010B510211048FEF7FFFC4FF697
:10267000FF70FFF7EFF9C0F30D000D49088010213E
:102680000A48FEF7F5FC20210A48FEF7EFFC4FF65A
:10269000FF70FFF739FAC0F30D00074908802021C9
:1026A0000448FEF7E5FC012010BD000000080140D1
:1026B000E8010020000C0140FC0100202DE9F84356
:1026C000044602464F486946B0EB420F09D94FF025
:1026D000E640B0EB420F94BF00204FF0FF30009077
:1026E00030E0494B22F00040834271D947492046EF
:1026F000FDF770FDFDF76CFF8046FDF7D9FE00F099
:102700000300009042494046FDF764FD05464149FB
:102710004046FDF75FFD06463F494046FDF75AFD3E
:1027200007463E494046FDF755FD2146FDF74FFD62
:102730003946FDF749FD3146FDF746FD2946FDF7CF
:1027400043FD04462546009C002C45DB294614F039
:10275000010F08461CD0FDF73DFD06463049FDF748
:1027600039FD3049FDF733FD3146FDF733FD2E4984
:10277000FDF7D8FC3146FDF72DFD2946FDF72AFD72
:102780002946FDF7CFFC14F0020F1CD0BDE8F883FA
:10279000FDF720FD05462549FDF71CFD2449FDF701
:1027A000C1FC2946FDF716FD2249FDF7BBFC294671
:1027B000FDF710FD4FF07E51FDF7B4FC14F0020F51
:1027C00008BFBDE8F88380F00040BDE8F883FFE76C
:1027D0001046FFF7A9FDB4E76800B0F17F4F3CBF9A
:1027E0004FF07E50BDE8F88307D14FF00100FFF7AE
:1027F0005FFEBDE8F843FFF78EBD2846BDE8F8430D
:10280000FFF786BDB61F927E490E494683F9223FE7
:102810001A61342C0020A23300A0FD390000C93F0A
:10282000336D4C39DA82083CA0AA2ABEB93AB2BA52
:10283000CA9F2A3DDDFFFFBE10B5002107E042F62A
:102840003C0200BF1300A2F10102FBD1491C8142EE
:10285000F5D310BDFEF710FCFFF7BCF8FFF714F935
:10286000FDF790FF0A490B48FEF784FD0849094827
:10287000FEF714FEFFF742FAFEF70AF842F2107074
:10288000FEF7A2FF01200449087000BFFEE7000028
:102890000000204200007A44000000202DE9F843A7
:1028A000044602464C486946B0EB420F09D94FF046
:1028B000E640B0EB420F94BF00204FF0FF30009095
:1028C00030E0464B22F00040834265D9444920461F
:1028D000FDF780FCFDF77CFE8046FDF7E9FD00F08A
:1028E000030000903F494046FDF774FC05463E4911
:1028F0004046FDF76FFC06463C494046FDF76AFC42
:1029000007463B494046FDF765FC2146FDF75FFC65
:102910003946FDF759FC3146FDF756FC2946FDF7CF
:1029200053FC0446009D002D3ADB21460846FDF786
:1029300051FC06462F49FDF74DFC2F49FDF7F2FBF0
:102940003146FDF747FC2D49FDF7ECFB3146FDF71D
:1029500041FC2B49FDF7E6FB3146FDF73BFC2949DD
:10296000FDF7E0FB3146FDF735FC2749FDF7DAFBC3
:102970003146FDF72FFC2146FDF72CFC2146FDF7E3
:10298000D1FB15F0010F08BFBDE8F8830146BDE893
:10299000F8431E48FDF750BC1046FFF7C5FCC0E7E2
:1029A0006000B0F17F4F09D22046FFF78DFC04286C
:1029B00008BFFFF7B4FC2046BDE8F88306D101202C
:1029C000FFF776FDBDE8F843FFF7A5BC2046BDE85C
:1029D000F843FFF79DBC0000B61F927E490E4946A2
:1029E00083F9223F1A61342C0020A23300A0FD3964
:1029F0000000C93FBBE9223C0C6D063B8A76CE3C09
:102A0000ACB5593D35A1083E29AAAA3E000080BFB9
:102A1000000000006E83F9A22915444ED15727FC0F
:102A2000C0DD34F5999562DB4190433CAB6351FEC8
:102A3000502A000800000020440100002E07000872
:102A4000742A000844010020CC040000A0240008DF
:102A50006105FFA00FA00F01132D01020304041054
:102A6000090607080902040608ACA24A041C291832
:042A70004100000021
:04000005080000ED02
:00000001FF
