:020000040800F2
:100000009004002001010008870C00089F0B0008E5
:10001000830C0008490100082513000800000000B7
:100020000000000000000000000000007D0E00083D
:100030002908000800000000190E0008690F0008D8
:100040001B0100081B0100081B0100081B01000820
:100050001B0100081B0100082D0800081B010008F7
:100060001B0100081B0100081B0100081B01000800
:100070001B0100081B0100081B0100081B010008F0
:10008000A50700081B0100081B010008B9120008A1
:10009000D51200081B0100081B0100081B01000805
:1000A0001B0100081B0100081B0100081B010008C0
:1000B0001B0100081B0100081B0100081B010008B0
:1000C0001B0100081B0100081B0100081B010008A0
:1000D0001B0100081B0100081B0100081B01000890
:1000E000790800081B0100081B010008DFF80CD08C
:1000F00000F018F800480047491300089004002059
:100100000648804706480047FEE7FEE7FEE7FEE7B1
:10011000FEE7FEE7FEE7FEE7FEE7FEE72910000840
:10012000ED000008064C074D06E0E06840F00103D2
:1001300094E8070098471034AC42F6D3FFF7DAFF93
:100140006C1300088C13000800BFFEE7B1F5007FB8
:100150003AD00FDC202928D006DC01291CD0042944
:100160001DD0082940D11DE0402921D0B1F5807F64
:100170003AD126E0B1F5004F31D006DCB1F5806F01
:1001800025D0B1F5006F2FD124E0B1F5803F12D01A
:10019000B1F5003F28D111E0154A826025E0082220
:1001A000C26022E01022C2601FE0082202611CE04F
:1001B0001022026119E00822426016E0102242601B
:1001C00013E00422426010E0042242600DE00422A9
:1001D00042600AE0002282610422426005E00022BF
:1001E00082610422426000E000BF00BF704700004F
:1001F0000101010000B589B00121480600F00EFEA2
:100200000121092000F02AFE01214FF4EA1000F03C
:1002100075FC4FF48070ADF8040048208DF807009D
:1002200003208DF8060001A93A4800F0DBFB4FF4EB
:100230000070ADF8040018208DF8070003208DF839
:10024000060001A9334800F0CDFB13208DF8000013
:1002500000208DF801008DF8020001208DF80300C8
:10026000684600F025FD14208DF8000000208DF870
:1002700001008DF8020001208DF80300684600F0AF
:1002800017FD254800F04AF800208DF81E008DF873
:100290001F008DF820008DF821008DF8220001202C
:1002A0008DF8230000208DF81A008DF81B00042023
:1002B0008DF81C0002208DF81D000420ADF81800F8
:1002C00006A9154800F063F900208DF812008DF89A
:1002D000130001208DF814000020ADF80800ADF8DF
:1002E0000A00ADF80C00ADF80E00ADF810000120CA
:1002F0008DF8150002A800F02DF801220221064811
:1003000000F03CF901221146034800F037F909B02A
:1003100000BD0000000C01400064004010B5044620
:100320000B48844209D10121480600F087FD0021D5
:100330004FF0007000F082FD08E00121880600F017
:100340007DFD00214FF0806000F078FD10BD0000C1
:100350000064004010B50021837A012202FA03F103
:100360003D4A126842F001023B4B1A603A4A1C3285
:1003700012688A43384B1C331A60027BCAB9364A6A
:100380000C3212688A43344B0C331A604288C3889B
:1003900042EA0343304A4032847A42F834300288D9
:1003A000838842EA03432C4A4032847A02EBC40237
:1003B0005360027B012A19D1274A0C3212680A4382
:1003C000254B0C331A604288038842EA0343224AD1
:1003D0004032847A42F83430C288838842EA034348
:1003E0001D4A4032847A02EBC4025360C27A3AB9A1
:1003F000194A121D12688A43174B1B1D1A6006E02A
:10040000154A121D12680A43134B1B1D1A600289FC
:1004100032B9114A143212688A430F4B14331A60EE
:100420000289012A06D10C4A143212680A430A4B87
:1004300014331A60427B012A06D1074A1C32126823
:100440000A43054B1C331A60034A126822F001026A
:10045000014B1A6010BD00000066004070B50446F4
:100460000D46002660692840002871D0B5F5807FD0
:100470005CD010DC082D35D006DC012D20D0022DFB
:1004800024D0042D72D127E0102D31D0202D35D06D
:10049000402D6BD138E0B5F5004F60D009DCB5F5E3
:1004A000007F49D0B5F5806F4CD0B5F5006F5DD1B8
:1004B0004FE0B5F5803F2DD0B5F5003F56D12FE088
:1004C000A0682D4900F065F9064651E0E068032177
:1004D00000F05FF906464BE0E068082100F059F9AA
:1004E000064645E0E068102100F053F906463FE07B
:1004F0002069032100F04DF9064639E02069082102
:1005000000F047F9064633E02069102100F041F978
:1005100006462DE06068082100F03BF9064627E01A
:100520006068102100F035F9064621E0A06901213C
:1005300000F02FF906461BE0A069022100F029F91E
:10054000064615E0A069042100F023F906460FE0F5
:100550000FE0A069702100F01CF9064608E0606811
:10056000042100F016F9064602E0FFE7002600BF6E
:1005700000E00026304670BD010101001AB1436958
:100580000B43436102E043698B434361704730B5DD
:10059000024600200023146824F00204146014684A
:1005A00044F00104146000E05B1C546804F0010492
:1005B0001CB94FF6FF74A342F6D1546804F001044D
:1005C0000CB900206CE08C79012C04D1146844F043
:1005D0008004146003E0146824F080041460CC7973
:1005E000012C04D1146844F04004146003E0146842
:1005F00024F0400414600C7A012C04D1146844F0F7
:100600002004146003E0146824F0200414604C7A81
:10061000012C04D1146844F01004146003E0146841
:1006200024F0100414608C7A012C04D1146844F076
:100630000804146003E0146824F008041460CC7A01
:10064000012C04D1146844F00404146003E014681D
:1006500024F0040414608C78A407CD7844EA05647F
:100660000D7944EA05444D7944EA05540D886D1E20
:100670002C43D461146824F001041460002300E0CA
:100680005B1C546804F001041CB14FF6FF74A342D4
:10069000F6D1546804F001040CB1002000E0012000
:1006A00030BD10B500F5D87303EB01131B6803F0E0
:1006B00004031372137A53B900F5D87303EB0113D3
:1006C0001B6840F2FF7404EA5353136009E000F51D
:1006D000D87303EB01131B686FF0604404EAD30383
:1006E000536000F5D87303EB01131B6803F002039A
:1006F000537200F5D87303EB01135B6803F00F032B
:10070000937200F5D87303EB01135B681B0AD37473
:1007100000F5D87303EB01139B68D37200F5D8730F
:1007200003EB01139B681C0A147300F5D87303EBE9
:1007300001139B681C0C547300F5D87303EB011371
:100740009B681B0E937300F5D87303EB0113DB68F2
:10075000D37300F5D87303EB0113DB681C0A147420
:1007600000F5D87303EB0113DB681C0C547400F51F
:10077000D87303EB0113DB681B0E937421B9C368B4
:1007800043F02003C36003E0036943F020030361E7
:1007900010BD0246002002EA01030BB1012000E077
:1007A0000020704710B54FF4001000F027F8012822
:1007B00006D1400500F006F84FF4001000F010F8E4
:1007C00010BD000000F0805111B10349086001E044
:1007D00002494860704700000404024000000240E3
:1007E00000F0805111B10349086001E002494860FE
:1007F000704700000404024000000240014600204F
:10080000002201F0805313B1054B1A6801E0054B3B
:100810001A6802EA01030BB1012000E000207047D2
:1008200000040240000002407047000010B50120A3
:1008300000F034F8D0B102210D4800F0A7F948B912
:100840000C48D0E900305A1C40F100000949C1E9C8
:10085000002008E00748D0E90030591E60F1000090
:10086000044AC2E90010012000F012F810BD000097
:10087000000C01403000002010B54FF4806000F003
:100880000DF818B14FF4806000F002F810BD0000C0
:10089000014908607047000014040140014600202F
:1008A0000022074B1B6803EA0102054B14331B6847
:1008B0000B4013B10AB1012000E000207047000096
:1008C00000040140002123498279002A3AD00A46D7
:1008D000126803689A430B461A600A1D126803687F
:1008E0009A430B1D1A60027911440A6803681A437F
:1008F0000A60184A0832126803689A43154B083395
:100900001A601A1D126803689A43124B0C331A605E
:100910004279102A0ED11A1F126803681A430D4B30
:1009200008331A601A1D126803681A43094B0C3306
:100930001A600DE00749427911440A6803681A43B6
:100940000A6005E0027911440A6803689A430A6064
:1009500070470000000401400EB50121092000F09D
:100960007DFA00F091F90120ADF8080028208DF8FB
:100970000B0002A90A4800F035F80021012000F020
:1009800011F80120009000208DF8040008208DF857
:10099000050001208DF806006846FFF793FF0EBDA5
:1009A000000C014030B500228B071C0F0F2303FA07
:1009B00004F20B4B8C1053F824309343084C8D10E9
:1009C00044F8253023468C1053F824308C07240F2C
:1009D00000FA04F42343024C8D1044F8253030BD56
:1009E000080001402DE9F0410246002500260020C4
:1009F00000230024002791F803C00CF00F0591F8A4
:100A000003C00CF0100CBCF1000F03D091F802C031
:100A10004CEA050591F800C0BCF1000F31D0146814
:100A200000202BE04FF0010C0CFA00F3B1F800C0ED
:100A30000CEA03069E4220D183004FF00F0C0CFA03
:100A400003F7BC4305FA03FC4CEA040491F803C025
:100A5000BCF1280F06D14FF0010C0CFA00FCC2F8D3
:100A600014C00AE091F803C0BCF1480F05D14FF063
:100A7000010C0CFA00FCC2F810C0401C0828D1D3AD
:100A80001460B1F800C0BCF1FF0F34DD54680020E1
:100A90002EE000F1080C4FF0010808FA0CF3B1F851
:100AA00000C00CEA03069E4221D183004FF00F0CD8
:100AB0000CFA03F7BC4305FA03FC4CEA040491F872
:100AC00003C0BCF1280F05D100F1080C08FA0CF89E
:100AD000C2F8148091F803C0BCF1480F07D100F1AF
:100AE000080C4FF0010808FA0CF8C2F81080401CFE
:100AF0000828CED35460BDE8F0810000F0B50A4666
:100B0000002300240021002500F00046B6F1004F2C
:100B100002D11D4EF16901E01B4E7168C0F303451F
:100B200083B200F44016B6F5401F08D121F0706181
:100B3000154E766826F07066134F7E6012E000F462
:100B40008016B6F5801F06D1032606FA05F4A143E8
:100B500041F0706106E0460D360103FA06F6B14336
:100B600041F0706122B1460D360103FA06F63143B9
:100B700000F00046B6F1004F02D1034EF16101E0F2
:100B8000014E7160F0BD00000000014002460020EF
:100B900093680B400BB1012000E00020704700BFBC
:100BA000FEE700000848094908600020486008483E
:100BB00008620848C8620520074948704FF47A70F7
:100BC000C8800520C87070470000204160000020E8
:100BD0000000A0410AD7233C0000002010B52048A7
:100BE0000088012804DB00F03DF800201C49088043
:100BF0001B484088022804DB00F041F80020184917
:100C0000488017488088052804DB00F036F800206B
:100C1000134988801248C0880A2804DB00F024F8B1
:100C200000200F49C8800E480089142804DB00F01A
:100C300027F800200A49088109484089322804DB46
:100C400000F01CF800200649488105488089642886
:100C500004DB00F011F800200149888110BD00007C
:100C6000400000207047000010B5024800F0B8F8BE
:100C700010BD00004AFCFFFF704770477047704787
:100C8000704700BFFEE7704708B54FF4C06000F042
:100C900047F806208DF8000000208DF801008DF83F
:100CA000020001208DF80300684600F001F808BD3D
:100CB00070B5002100230F22C47804B3154C2468BA
:100CC00004F4E064C4F5E064210AC1F10403CA40FD
:100CD000447804FA03F184781440214309010E4C4E
:100CE0000678A155047804F01F050124AC4005786E
:100CF0006D11AD0005F1E025C5F8004109E004786B
:100D000004F01F050124AC40044D0678761145F827
:100D1000264070BD0CED00E000E400E080E100E062
:100D200002490143024A1160704700000000FA05C1
:100D30000CED00E000B589B00121042000F08EF830
:100D40000121084600F06AF80320ADF804001820DD
:100D50008DF8070003208DF8060001A91F48FFF752
:100D600041FE41F28830ADF81C000020ADF81800BB
:100D7000ADF81E00ADF81A0006A94FF0804000F053
:100D800049FA7020ADF808000120ADF80A000020F3
:100D9000ADF80C00ADF80E000220ADF810000020F8
:100DA000ADF81200ADF81400ADF8160002A94FF02E
:100DB000804000F091F902A94FF0804000F0D8F98E
:100DC0000121880700F060F90121880700F074F91B
:100DD0000121880700F064F909B000BD0008014056
:100DE0000C4A904200DA05E040F6B832904200DD4D
:100DF00000E002461146002905DD4FF08043998648
:100E000000221A8705E000224FF080439A864A426A
:100E10001A87704748F4FFFF7047000029B1064A5F
:100E2000D2690243044BDA6104E0034AD269824387
:100E3000014BDA61704700000010024029B1064AF8
:100E400012690243044B1A6104E0034A12698243A7
:100E5000014B1A61704700000010024029B1064A98
:100E600092690243044B9A6104E0034A9269824307
:100E7000014B9A617047000000100240704710B5A6
:100E800000F002F810BD00000CB5002001900090A9
:100E90003348006840F480303149086000BF304872
:100EA000006800F4003000900198401C0190009808
:100EB00018B90198B0F5A06FF1D12948006800F485
:100EC000003010B10120009001E000200090009857
:100ED000012843D12348006840F0100021490860F0
:100EE0000846006820F0030008600846006840F0EB
:100EF000020008601A48406819494860084640687E
:100F000048600846406840F4806048600846406891
:100F100020F47C1048600846406840F4E8104860BF
:100F20000846006840F08070086000BF0C48006808
:100F300000F000700028F9D00948406820F0030054
:100F4000074948600846406840F00200486000BF1A
:100F50000348406800F00C000828F9D10CBD0000DF
:100F6000001002400020024010B514480088401CC8
:100F70001249088008464088401C488008468088FE
:100F8000401C88800846C088401CC88008460089EC
:100F9000401C088108464089401C488108468089D9
:100FA000401C88810846D0E90420521C40F1000012
:100FB000C1E90420FFF712FE10BD00004000002030
:100FC00030B5164800684FF47A72B0FBF2F1B1F117
:100FD000807F01D301201DE021F07F40401E4FF0B3
:100FE000E022506150170F22002807DA13071D0E68
:100FF0000B4B00F00F04241F1D5503E013071C0EBC
:10100000084B1C5400BF00204FF0E02290610720E5
:101010001061002008B100BFFEE730BD1C000020B9
:1010200018ED00E000E400E010B51348006840F05F
:1010300001001149086008464068104908400E49FF
:101040004860084600680E4908400B490860084699
:10105000006820F4802008600846406820F4FE0004
:1010600048604FF41F008860FFF709FF4FF00060F1
:101070000449086010BD0000001002400000FFF8A5
:10108000FFFFF6FE08ED00E021B1028842F0800289
:10109000028004E002884FF67F731A400280704796
:1010A00021B1028842F00102028004E002884FF67A
:1010B000FE731A400280704731B1B0F8442042F408
:1010C0000042A0F8442005E0B0F84420C2F30E022C
:1010D000A0F844207047000070B5002400220023CF
:1010E000058C4FF6FE7635400584028C8388048B90
:1010F0004FF68F752C40B51E2C400D882C43751E65
:101100002A400D892A434D882A43144DA8420BD00A
:10111000134DA84208D0134DA84205D0124DA84245
:1011200002D0124DA84213D14FF6F7752A404D89CF
:101130002A434FF6FB752A408D882A434FF6FF65F8
:101140002B404FF6FF552B408D892B43CD892B43E8
:1011500083800483CD888586028470BD002C014085
:10116000003401400040014000440140004801407B
:1011700070B5002400220023058C4FF6EF76354031
:101180000584028C8388048B48F6FF752C404FF64B
:10119000FF452C400D884FF6FF7606EA05252C43C7
:1011A0004FF6DF752A400D8906EA05152A434D885A
:1011B00006EA05152A43154DA84202D0144DA8424F
:1011C0001DD14FF67F752A404D894FF6FF7606EA0E
:1011D00005152A434FF6BF752A408D8806EA051586
:1011E0002A434FF6FF352B404FF2FF752B408D8978
:1011F00006EA85052B43CD8906EA85052B438380C6
:101200000483CD880587028470BD0000002C014056
:1012100000340140002202881D4B98420ED01D4B25
:1012200098420BD0B0F1804F08D01B4B984205D0AC
:101230001A4B984202D01A4B984204D14FF68F7342
:101240001A404B881A43174B984207D0164B9842C6
:1012500004D04FF6FF431A40CB881A4302808B8894
:1012600083850B8803850A4B98420BD0094B984223
:1012700008D00E4B984205D00D4B984202D00D4B32
:10128000984201D10B7A03860123838270470000C4
:10129000002C0140003401400004004000080040E0
:1012A000000C0040001000400014004000400140CD
:1012B000004401400048014010B501210448FFF7F7
:1012C000CDF818B101210248FEF740FF10BD000023
:1012D0000064004000B585B002211048FFF7BEF859
:1012E00040B102210D48FEF731FF6A4600210B484C
:1012F000FFF7D7F940F20311009888420CD19DF80E
:10130000080048B99DF80B00012802D10449087073
:1013100002E000200249087005B000BD00640040F2
:101320000000002000BFFEE702E008C8121F08C14D
:10133000002AFAD170477047002001E001C1121F56
:10134000002AFBD170470000FFF7F4FCFFF704FB15
:10135000FEF750FFFFF726FCFFF732FE02E0012008
:1013600001490870FBE70000000000208C13000812
:10137000000000203000000028130008BC13000803
:101380003000002060040000381300080000000056
:10139000000000000000000000010000000200004A
:1013A000000300000004000000A24A040000000046
:0C13B00000000000010203040607080909
:04000005080000ED02
:00000001FF
